{
	"data": {
		"bytecode": {
			"linkReferences": {
				"remix_tests.sol": {
					"Assert": [
						{
							"length": 20,
							"start": 667
						},
						{
							"length": 20,
							"start": 1105
						},
						{
							"length": 20,
							"start": 1567
						},
						{
							"length": 20,
							"start": 1896
						},
						{
							"length": 20,
							"start": 2022
						},
						{
							"length": 20,
							"start": 2304
						},
						{
							"length": 20,
							"start": 2714
						},
						{
							"length": 20,
							"start": 3124
						},
						{
							"length": 20,
							"start": 3692
						},
						{
							"length": 20,
							"start": 3818
						},
						{
							"length": 20,
							"start": 3944
						},
						{
							"length": 20,
							"start": 4072
						},
						{
							"length": 20,
							"start": 4817
						},
						{
							"length": 20,
							"start": 5268
						},
						{
							"length": 20,
							"start": 5398
						}
					]
				}
			},
			"object": "608060405234801561001057600080fd5b50614bd1806100206000396000f3fe60806040523480156200001157600080fd5b50600436106200006a5760003560e01c80631f530be1146200006f57806337c2d7ea146200007b57806352c498ff14620000875780636331e7d414620000935780639b5c95c7146200009f578063d9f1924d14620000ab575b600080fd5b62000079620000b7565b005b62000085620004b4565b005b6200009162000847565b005b6200009d62000c98565b005b620000a962000d05565b005b620000b56200104e565b005b60008054906101000a900473ffffffffffffffffffffffffffffffffffffffff1673ffffffffffffffffffffffffffffffffffffffff166303b28c336040518163ffffffff1660e01b8152600401620001109062001656565b600060405180830381600087803b1580156200012b57600080fd5b505af115801562000140573d6000803e3d6000fd5b5050505060008054906101000a900473ffffffffffffffffffffffffffffffffffffffff1673ffffffffffffffffffffffffffffffffffffffff16639d8a1ecc60006040518263ffffffff1660e01b8152600401620001a09190620016e4565b600060405180830381600087803b158015620001bb57600080fd5b505af1158015620001d0573d6000803e3d6000fd5b5050505060008060009054906101000a900473ffffffffffffffffffffffffffffffffffffffff1673ffffffffffffffffffffffffffffffffffffffff1663426b628360006040518263ffffffff1660e01b8152600401620002339190620016e4565b602060405180830381865afa15801562000251573d6000803e3d6000fd5b505050506040513d601f19601f8201168201806040525081019062000277919062001752565b905073__$acbfb1c35000d78352310b16a054a6b106$__63767392b38260006040518363ffffffff1660e01b8152600401620002b5929190620017f6565b602060405180830381865af4158015620002d3573d6000803e3d6000fd5b505050506040513d601f19601f82011682018060405250810190620002f9919062001752565b5060008054906101000a900473ffffffffffffffffffffffffffffffffffffffff1673ffffffffffffffffffffffffffffffffffffffff16631a1ebfc960006040518263ffffffff1660e01b8152600401620003569190620016e4565b600060405180830381600087803b1580156200037157600080fd5b505af115801562000386573d6000803e3d6000fd5b5050505060008060009054906101000a900473ffffffffffffffffffffffffffffffffffffffff1673ffffffffffffffffffffffffffffffffffffffff1663426b628360006040518263ffffffff1660e01b8152600401620003e99190620016e4565b602060405180830381865afa15801562000407573d6000803e3d6000fd5b505050506040513d601f19601f820116820180604052508101906200042d919062001752565b905073__$acbfb1c35000d78352310b16a054a6b106$__63767392b38260016040518363ffffffff1660e01b81526004016200046b92919062001888565b602060405180830381865af415801562000489573d6000803e3d6000fd5b505050506040513d601f19601f82011682018060405250810190620004af919062001752565b505050565b60008054906101000a900473ffffffffffffffffffffffffffffffffffffffff1673ffffffffffffffffffffffffffffffffffffffff166303b28c336040518163ffffffff1660e01b81526004016200050d9062001656565b600060405180830381600087803b1580156200052857600080fd5b505af11580156200053d573d6000803e3d6000fd5b5050505060008054906101000a900473ffffffffffffffffffffffffffffffffffffffff1673ffffffffffffffffffffffffffffffffffffffff1663eecb7d2260006040518263ffffffff1660e01b81526004016200059d919062001990565b600060405180830381600087803b158015620005b857600080fd5b505af1925050508015620005ca575060015b6200069757620005d9620019e4565b806308c379a003620006855750620005f062001a7f565b80620005fd575062000687565b73__$acbfb1c35000d78352310b16a054a6b106$__6339df137f6000836040518363ffffffff1660e01b81526004016200063992919062001b92565b602060405180830381865af415801562000657573d6000803e3d6000fd5b505050506040513d601f19601f820116820180604052508101906200067d919062001752565b505062000691565b505b3d6000803e3d6000fd5b62000845565b60008060008054906101000a900473ffffffffffffffffffffffffffffffffffffffff1673ffffffffffffffffffffffffffffffffffffffff1663370603f860006040518263ffffffff1660e01b8152600401620006f69190620016e4565b600060405180830381865afa15801562000714573d6000803e3d6000fd5b505050506040513d6000823e3d601f19601f820116820180604052508101906200073f919062001e14565b5050509150915073__$acbfb1c35000d78352310b16a054a6b106$__63e8c2cb16836040518263ffffffff1660e01b81526004016200077f919062001f96565b602060405180830381865af41580156200079d573d6000803e3d6000fd5b505050506040513d601f19601f82011682018060405250810190620007c3919062001752565b5073__$acbfb1c35000d78352310b16a054a6b106$__63e8c2cb16826040518263ffffffff1660e01b8152600401620007fd919062002081565b602060405180830381865af41580156200081b573d6000803e3d6000fd5b505050506040513d601f19601f8201168201806040525081019062000841919062001752565b5050505b565b60008060009054906101000a900473ffffffffffffffffffffffffffffffffffffffff1673ffffffffffffffffffffffffffffffffffffffff16635c975abb6040518163ffffffff1660e01b8152600401602060405180830381865afa158015620008b6573d6000803e3d6000fd5b505050506040513d601f19601f82011682018060405250810190620008dc919062001752565b905073__$acbfb1c35000d78352310b16a054a6b106$__63767392b38260006040518363ffffffff1660e01b81526004016200091a92919062002145565b602060405180830381865af415801562000938573d6000803e3d6000fd5b505050506040513d601f19601f820116820180604052508101906200095e919062001752565b5060008054906101000a900473ffffffffffffffffffffffffffffffffffffffff1673ffffffffffffffffffffffffffffffffffffffff16638456cb596040518163ffffffff1660e01b8152600401600060405180830381600087803b158015620009c857600080fd5b505af1158015620009dd573d6000803e3d6000fd5b5050505060008060009054906101000a900473ffffffffffffffffffffffffffffffffffffffff1673ffffffffffffffffffffffffffffffffffffffff16635c975abb6040518163ffffffff1660e01b8152600401602060405180830381865afa15801562000a50573d6000803e3d6000fd5b505050506040513d601f19601f8201168201806040525081019062000a76919062001752565b905073__$acbfb1c35000d78352310b16a054a6b106$__63767392b38260016040518363ffffffff1660e01b815260040162000ab4929190620021fd565b602060405180830381865af415801562000ad2573d6000803e3d6000fd5b505050506040513d601f19601f8201168201806040525081019062000af8919062001752565b5060008054906101000a900473ffffffffffffffffffffffffffffffffffffffff1673ffffffffffffffffffffffffffffffffffffffff16633f4ba83a6040518163ffffffff1660e01b8152600401600060405180830381600087803b15801562000b6257600080fd5b505af115801562000b77573d6000803e3d6000fd5b5050505060008060009054906101000a900473ffffffffffffffffffffffffffffffffffffffff1673ffffffffffffffffffffffffffffffffffffffff16635c975abb6040518163ffffffff1660e01b8152600401602060405180830381865afa15801562000bea573d6000803e3d6000fd5b505050506040513d601f19601f8201168201806040525081019062000c10919062001752565b905073__$acbfb1c35000d78352310b16a054a6b106$__63767392b38260006040518363ffffffff1660e01b815260040162000c4e929190620022b5565b602060405180830381865af415801562000c6c573d6000803e3d6000fd5b505050506040513d601f19601f8201168201806040525081019062000c92919062001752565b50505050565b60405162000ca69062001597565b604051809103906000f08015801562000cc3573d6000803e3d6000fd5b506000806101000a81548173ffffffffffffffffffffffffffffffffffffffff021916908373ffffffffffffffffffffffffffffffffffffffff160217905550565b60008054906101000a900473ffffffffffffffffffffffffffffffffffffffff1673ffffffffffffffffffffffffffffffffffffffff166303b28c336040518163ffffffff1660e01b815260040162000d5e9062001656565b600060405180830381600087803b15801562000d7957600080fd5b505af115801562000d8e573d6000803e3d6000fd5b5050505060008060008060008060009054906101000a900473ffffffffffffffffffffffffffffffffffffffff1673ffffffffffffffffffffffffffffffffffffffff1663370603f860006040518263ffffffff1660e01b815260040162000df79190620016e4565b600060405180830381865afa15801562000e15573d6000803e3d6000fd5b505050506040513d6000823e3d601f19601f8201168201806040525081019062000e40919062001e14565b9450945094509450945073__$acbfb1c35000d78352310b16a054a6b106$__63e8c2cb16866040518263ffffffff1660e01b815260040162000e83919062002394565b602060405180830381865af415801562000ea1573d6000803e3d6000fd5b505050506040513d601f19601f8201168201806040525081019062000ec7919062001752565b5073__$acbfb1c35000d78352310b16a054a6b106$__63e8c2cb16856040518263ffffffff1660e01b815260040162000f0191906200247f565b602060405180830381865af415801562000f1f573d6000803e3d6000fd5b505050506040513d601f19601f8201168201806040525081019062000f45919062001752565b5073__$acbfb1c35000d78352310b16a054a6b106$__63bfba5dd684336040518363ffffffff1660e01b815260040162000f8192919062002554565b602060405180830381865af415801562000f9f573d6000803e3d6000fd5b505050506040513d601f19601f8201168201806040525081019062000fc5919062001752565b5073__$acbfb1c35000d78352310b16a054a6b106$__63767392b38360016040518363ffffffff1660e01b81526004016200100292919062001888565b602060405180830381865af415801562001020573d6000803e3d6000fd5b505050506040513d601f19601f8201168201806040525081019062001046919062001752565b505050505050565b60008054906101000a900473ffffffffffffffffffffffffffffffffffffffff1673ffffffffffffffffffffffffffffffffffffffff166303b28c336040518163ffffffff1660e01b8152600401620010a79062001656565b600060405180830381600087803b158015620010c257600080fd5b505af1158015620010d7573d6000803e3d6000fd5b5050505060008054906101000a900473ffffffffffffffffffffffffffffffffffffffff1673ffffffffffffffffffffffffffffffffffffffff1663a0024e45600060016040518363ffffffff1660e01b81526004016200113a929190620025d9565b600060405180830381600087803b1580156200115557600080fd5b505af11580156200116a573d6000803e3d6000fd5b5050505060008054906101000a900473ffffffffffffffffffffffffffffffffffffffff1673ffffffffffffffffffffffffffffffffffffffff1663a0024e45600060026040518363ffffffff1660e01b8152600401620011cd92919062002649565b600060405180830381600087803b158015620011e857600080fd5b505af1158015620011fd573d6000803e3d6000fd5b5050505060008060009054906101000a900473ffffffffffffffffffffffffffffffffffffffff1673ffffffffffffffffffffffffffffffffffffffff1663370603f860006040518263ffffffff1660e01b8152600401620012609190620016e4565b600060405180830381865afa1580156200127e573d6000803e3d6000fd5b505050506040513d6000823e3d601f19601f82011682018060405250810190620012a9919062001e14565b94505050505073__$acbfb1c35000d78352310b16a054a6b106$__63abcd7960825160026040518363ffffffff1660e01b8152600401620012ec9291906200270e565b602060405180830381865af41580156200130a573d6000803e3d6000fd5b505050506040513d601f19601f8201168201806040525081019062001330919062001752565b5060008054906101000a900473ffffffffffffffffffffffffffffffffffffffff1673ffffffffffffffffffffffffffffffffffffffff16632f20fb59600060016040518363ffffffff1660e01b815260040162001390929190620025d9565b600060405180830381600087803b158015620013ab57600080fd5b505af1158015620013c0573d6000803e3d6000fd5b5050505060008060009054906101000a900473ffffffffffffffffffffffffffffffffffffffff1673ffffffffffffffffffffffffffffffffffffffff1663370603f860006040518263ffffffff1660e01b8152600401620014239190620016e4565b600060405180830381865afa15801562001441573d6000803e3d6000fd5b505050506040513d6000823e3d601f19601f820116820180604052508101906200146c919062001e14565b94505050505073__$acbfb1c35000d78352310b16a054a6b106$__63abcd7960825160016040518363ffffffff1660e01b8152600401620014af929190620027fd565b602060405180830381865af4158015620014cd573d6000803e3d6000fd5b505050506040513d601f19601f82011682018060405250810190620014f3919062001752565b5073__$acbfb1c35000d78352310b16a054a6b106$__63abcd7960826000815181106200152557620015246200283f565b5b602002602001015160026040518363ffffffff1660e01b81526004016200154e929190620028e4565b602060405180830381865af41580156200156c573d6000803e3d6000fd5b505050506040513d601f19601f8201168201806040525081019062001592919062001752565b505050565b612275806200292783390190565b600082825260208201905092915050565b7f5465737420436f6d6d756e697479000000000000000000000000000000000000600082015250565b6000620015ee600e83620015a5565b9150620015fb82620015b6565b602082019050919050565b7f546869732069732061207465737420636f6d6d756e6974790000000000000000600082015250565b60006200163e601883620015a5565b91506200164b8262001606565b602082019050919050565b600060408201905081810360008301526200167181620015df565b9050818103602083015262001686816200162f565b9050919050565b6000819050919050565b6000819050919050565b6000819050919050565b6000620016cc620016c6620016c0846200168d565b620016a1565b62001697565b9050919050565b620016de81620016ab565b82525050565b6000602082019050620016fb6000830184620016d3565b92915050565b6000604051905090565b600080fd5b600080fd5b60008115159050919050565b6200172c8162001715565b81146200173857600080fd5b50565b6000815190506200174c8162001721565b92915050565b6000602082840312156200176b576200176a6200170b565b5b60006200177b848285016200173b565b91505092915050565b6200178f8162001715565b82525050565b600082825260208201905092915050565b7f54686520636f6d6d756e6974792073686f756c642062652064697361626c6564600082015250565b6000620017de60208362001795565b9150620017eb82620017a6565b602082019050919050565b60006060820190506200180d600083018562001784565b6200181c602083018462001784565b81810360408301526200182f81620017cf565b90509392505050565b7f54686520636f6d6d756e6974792073686f756c6420626520656e61626c656400600082015250565b600062001870601f8362001795565b91506200187d8262001838565b602082019050919050565b60006060820190506200189f600083018562001784565b620018ae602083018462001784565b8181036040830152620018c18162001861565b90509392505050565b7f55706461746564205465737420436f6d6d756e69747900000000000000000000600082015250565b600062001902601683620015a5565b91506200190f82620018ca565b602082019050919050565b7f5468697320697320616e2075706461746564207465737420636f6d6d756e697460008201527f7900000000000000000000000000000000000000000000000000000000000000602082015250565b600062001978602183620015a5565b915062001985826200191a565b604082019050919050565b6000606082019050620019a76000830184620016d3565b8181036020830152620019ba81620018f3565b90508181036040830152620019cf8162001969565b905092915050565b60008160e01c9050919050565b600060033d111562001a065760046000803e62001a03600051620019d7565b90505b90565b6000601f19601f8301169050919050565b7f4e487b7100000000000000000000000000000000000000000000000000000000600052604160045260246000fd5b62001a548262001a09565b810181811067ffffffffffffffff8211171562001a765762001a7562001a1a565b5b80604052505050565b600060443d1062001b175762001a9462001701565b60043d036004823e80513d602482011167ffffffffffffffff8211171562001abe57505062001b17565b808201805167ffffffffffffffff81111562001ade575050505062001b17565b80602083010160043d03850181111562001afd57505050505062001b17565b62001b0e8260200185018662001a49565b82955050505050505b90565b600081519050919050565b60005b8381101562001b4557808201518184015260208101905062001b28565b60008484015250505050565b600062001b5e8262001b1a565b62001b6a818562001795565b935062001b7c81856020860162001b25565b62001b878162001a09565b840191505092915050565b600060408201905062001ba9600083018562001784565b818103602083015262001bbd818462001b51565b90509392505050565b600080fd5b600080fd5b600062001bdc62001701565b905062001bea828262001a49565b919050565b600067ffffffffffffffff82111562001c0d5762001c0c62001a1a565b5b62001c188262001a09565b9050602081019050919050565b600062001c3c62001c368462001bef565b62001bd0565b90508281526020810184848401111562001c5b5762001c5a62001bcb565b5b62001c6884828562001b25565b509392505050565b600082601f83011262001c885762001c8762001bc6565b5b815162001c9a84826020860162001c25565b91505092915050565b600073ffffffffffffffffffffffffffffffffffffffff82169050919050565b600062001cd08262001ca3565b9050919050565b62001ce28162001cc3565b811462001cee57600080fd5b50565b60008151905062001d028162001cd7565b92915050565b600067ffffffffffffffff82111562001d265762001d2562001a1a565b5b602082029050602081019050919050565b600080fd5b62001d478162001697565b811462001d5357600080fd5b50565b60008151905062001d678162001d3c565b92915050565b600062001d8462001d7e8462001d08565b62001bd0565b9050808382526020820190506020840283018581111562001daa5762001da962001d37565b5b835b8181101562001dd7578062001dc2888262001d56565b84526020840193505060208101905062001dac565b5050509392505050565b600082601f83011262001df95762001df862001bc6565b5b815162001e0b84826020860162001d6d565b91505092915050565b600080600080600060a0868803121562001e335762001e326200170b565b5b600086015167ffffffffffffffff81111562001e545762001e5362001710565b5b62001e628882890162001c70565b955050602086015167ffffffffffffffff81111562001e865762001e8562001710565b5b62001e948882890162001c70565b945050604062001ea78882890162001cf1565b935050606062001eba888289016200173b565b925050608086015167ffffffffffffffff81111562001ede5762001edd62001710565b5b62001eec8882890162001de1565b9150509295509295909350565b600062001f0860168362001795565b915062001f1582620018ca565b602082019050919050565b7f54686520636f6d6d756e697479206e616d652073686f756c64206d617463682060008201527f7468652075706461746564206e616d6500000000000000000000000000000000602082015250565b600062001f7e60308362001795565b915062001f8b8262001f20565b604082019050919050565b6000606082019050818103600083015262001fb2818462001b51565b9050818103602083015262001fc78162001ef9565b9050818103604083015262001fdc8162001f6f565b905092915050565b600062001ff360218362001795565b915062002000826200191a565b604082019050919050565b7f54686520636f6d6d756e697479206465736372697074696f6e2073686f756c6460008201527f206d61746368207468652075706461746564206465736372697074696f6e0000602082015250565b600062002069603e8362001795565b915062002076826200200b565b604082019050919050565b600060608201905081810360008301526200209d818462001b51565b90508181036020830152620020b28162001fe4565b90508181036040830152620020c7816200205a565b905092915050565b7f54686520636f6e74726163742073686f756c64206e6f7420626520706175736560008201527f64206265666f72652070617573696e6700000000000000000000000000000000602082015250565b60006200212d60308362001795565b91506200213a82620020cf565b604082019050919050565b60006060820190506200215c600083018562001784565b6200216b602083018462001784565b81810360408301526200217e816200211e565b90509392505050565b7f54686520636f6e74726163742073686f756c642062652070617573656420616660008201527f7465722070617573696e67000000000000000000000000000000000000000000602082015250565b6000620021e5602b8362001795565b9150620021f28262002187565b604082019050919050565b600060608201905062002214600083018562001784565b62002223602083018462001784565b81810360408301526200223681620021d6565b90509392505050565b7f54686520636f6e74726163742073686f756c64206e6f7420626520706175736560008201527f6420616674657220756e70617573696e67000000000000000000000000000000602082015250565b60006200229d60318362001795565b9150620022aa826200223f565b604082019050919050565b6000606082019050620022cc600083018562001784565b620022db602083018462001784565b8181036040830152620022ee816200228e565b90509392505050565b600062002306600e8362001795565b91506200231382620015b6565b602082019050919050565b7f54686520636f6d6d756e697479206e616d652073686f756c64206d617463682060008201527f74686520696e7075740000000000000000000000000000000000000000000000602082015250565b60006200237c60298362001795565b915062002389826200231e565b604082019050919050565b60006060820190508181036000830152620023b0818462001b51565b90508181036020830152620023c581620022f7565b90508181036040830152620023da816200236d565b905092915050565b6000620023f160188362001795565b9150620023fe8262001606565b602082019050919050565b7f54686520636f6d6d756e697479206465736372697074696f6e2073686f756c6460008201527f206d617463682074686520696e70757400000000000000000000000000000000602082015250565b60006200246760308362001795565b9150620024748262002409565b604082019050919050565b600060608201905081810360008301526200249b818462001b51565b90508181036020830152620024b081620023e2565b90508181036040830152620024c58162002458565b905092915050565b620024d88162001cc3565b82525050565b7f54686520636f6d6d756e697479206f776e65722073686f756c6420626520746860008201527f652073656e646572000000000000000000000000000000000000000000000000602082015250565b60006200253c60288362001795565b91506200254982620024de565b604082019050919050565b60006060820190506200256b6000830185620024cd565b6200257a6020830184620024cd565b81810360408301526200258d816200252d565b90509392505050565b6000819050919050565b6000620025c1620025bb620025b58462002596565b620016a1565b62001697565b9050919050565b620025d381620025a0565b82525050565b6000604082019050620025f06000830185620016d3565b620025ff6020830184620025c8565b9392505050565b6000819050919050565b6000620026316200262b620026258462002606565b620016a1565b62001697565b9050919050565b620026438162002610565b82525050565b6000604082019050620026606000830185620016d3565b6200266f602083018462002638565b9392505050565b620026818162001697565b82525050565b620026928162002610565b82525050565b7f546865206e756d626572206f6620706f73742049447320696e2074686520636f60008201527f6d6d756e6974792073686f756c64206265203200000000000000000000000000602082015250565b6000620026f660338362001795565b9150620027038262002698565b604082019050919050565b600060608201905062002725600083018562002676565b62002734602083018462002687565b81810360408301526200274781620026e7565b90509392505050565b6200275b81620025a0565b82525050565b7f546865206e756d626572206f6620706f73742049447320696e2074686520636f60008201527f6d6d756e6974792073686f756c6420626520312061667465722072656d6f766160208201527f6c00000000000000000000000000000000000000000000000000000000000000604082015250565b6000620027e560418362001795565b9150620027f28262002761565b606082019050919050565b600060608201905062002814600083018562002676565b62002823602083018462002750565b81810360408301526200283681620027d6565b90509392505050565b7f4e487b7100000000000000000000000000000000000000000000000000000000600052603260045260246000fd5b7f5468652072656d61696e696e6720706f737420494420696e2074686520636f6d60008201527f6d756e6974792073686f756c6420626520322061667465722072656d6f76616c602082015250565b6000620028cc60408362001795565b9150620028d9826200286e565b604082019050919050565b6000606082019050620028fb600083018562002676565b6200290a602083018462002687565b81810360408301526200291d81620028bd565b9050939250505056fe60806040526000600355600067ffffffffffffffff811115620000275762000026620001fa565b5b604051908082528060200260200182016040528015620000565781602001602082028036833780820191505090505b50600490805190602001906200006e92919062000189565b503480156200007c57600080fd5b506200009d62000091620000bd60201b60201c565b620000c560201b60201c565b60008060146101000a81548160ff02191690831515021790555062000229565b600033905090565b60008060009054906101000a900473ffffffffffffffffffffffffffffffffffffffff169050816000806101000a81548173ffffffffffffffffffffffffffffffffffffffff021916908373ffffffffffffffffffffffffffffffffffffffff1602179055508173ffffffffffffffffffffffffffffffffffffffff168173ffffffffffffffffffffffffffffffffffffffff167f8be0079c531659141344cd1fd0a4f28419497f9722a3daafe3b4186f6b6457e060405160405180910390a35050565b828054828255906000526020600020908101928215620001c8579160200282015b82811115620001c7578251825591602001919060010190620001aa565b5b509050620001d79190620001db565b5090565b5b80821115620001f6576000816000905550600101620001dc565b5090565b7f4e487b7100000000000000000000000000000000000000000000000000000000600052604160045260246000fd5b61203c80620002396000396000f3fe608060405234801561001057600080fd5b506004361061012c5760003560e01c80637a5b730b116100ad578063a0024e4511610071578063a0024e45146102fb578063e590b56a14610317578063eecb7d221461034a578063f2fde38b14610366578063f6d8f2cb146103825761012c565b80637a5b730b146102695780638456cb59146102875780638c2bf5c5146102915780638da5cb5b146102c15780639d8a1ecc146102df5761012c565b8063426b6283116100f4578063426b6283146101c35780634448d64c146101f357806352923385146102235780635c975abb14610241578063715018a61461025f5761012c565b806303b28c33146101315780631a1ebfc91461014d5780632f20fb5914610169578063370603f8146101855780633f4ba83a146101b9575b600080fd5b61014b60048036038101906101469190611435565b6103b2565b005b610167600480360381019061016291906114e3565b6105ca565b005b610183600480360381019061017e9190611510565b6106a7565b005b61019f600480360381019061019a91906114e3565b6107d8565b6040516101b09594939291906116e9565b60405180910390f35b6101c16109fa565b005b6101dd60048036038101906101d891906114e3565b610a0c565b6040516101ea9190611751565b60405180910390f35b61020d6004803603810190610208919061176c565b610a39565b60405161021a91906117c4565b60405180910390f35b61022b610a61565b60405161023891906117df565b60405180910390f35b610249610ab9565b6040516102569190611751565b60405180910390f35b610267610acf565b005b610271610ae3565b60405161027e91906117c4565b60405180910390f35b61028f610ae9565b005b6102ab60048036038101906102a691906114e3565b610afb565b6040516102b891906117c4565b60405180910390f35b6102c9610b1f565b6040516102d69190611801565b60405180910390f35b6102f960048036038101906102f491906114e3565b610b48565b005b61031560048036038101906103109190611510565b610c26565b005b610331600480360381019061032c91906114e3565b610c67565b604051610341949392919061181c565b60405180910390f35b610364600480360381019061035f919061186f565b610dd4565b005b610380600480360381019061037b9190611926565b610f1e565b005b61039c6004803603810190610397919061176c565b610fa1565b6040516103a991906117c4565b60405180910390f35b6103ba610fcf565b6040518060a001604052808381526020018281526020013373ffffffffffffffffffffffffffffffffffffffff168152602001600115158152602001600067ffffffffffffffff8111156104115761041061130a565b5b60405190808252806020026020018201604052801561043f5781602001602082028036833780820191505090505b50815250600160006003548152602001908152602001600020600082015181600001908161046d9190611b5f565b5060208201518160010190816104839190611b5f565b5060408201518160020160006101000a81548173ffffffffffffffffffffffffffffffffffffffff021916908373ffffffffffffffffffffffffffffffffffffffff16021790555060608201518160020160146101000a81548160ff0219169083151502179055506080820151816003019080519060200190610507929190611271565b5090505060035460028360405161051e9190611c6d565b9081526020016040518091039020819055503373ffffffffffffffffffffffffffffffffffffffff166003547f05117d86257948a373a638259cb64263dcdd5cd1bd0402baa7a4258319e749bb848460405161057b929190611c84565b60405180910390a360046003549080600181540180825580915050600190039060005260206000200160009091909190915055600360008154809291906105c190611cea565b91905055505050565b6105d2610fcf565b6001600082815260200190815260200160002060020160009054906101000a900473ffffffffffffffffffffffffffffffffffffffff1673ffffffffffffffffffffffffffffffffffffffff163373ffffffffffffffffffffffffffffffffffffffff1614610676576040517f08c379a000000000000000000000000000000000000000000000000000000000815260040161066d90611d7e565b60405180910390fd5b600180600083815260200190815260200160002060020160146101000a81548160ff02191690831515021790555050565b60006001600084815260200190815260200160002060030180549050905060005b818110156107d257826001600086815260200190815260200160002060030182815481106106f9576106f8611d9e565b5b9060005260206000200154036107bf576001600085815260200190815260200160002060030160018361072c9190611dcd565b8154811061073d5761073c611d9e565b5b90600052602060002001546001600086815260200190815260200160002060030182815481106107705761076f611d9e565b5b9060005260206000200181905550600160008581526020019081526020016000206003018054806107a4576107a3611e01565b5b600190038181906000526020600020016000905590556107d2565b80806107ca90611cea565b9150506106c8565b50505050565b606080600080606060016000878152602001908152602001600020600001600160008881526020019081526020016000206001016001600089815260200190815260200160002060020160009054906101000a900473ffffffffffffffffffffffffffffffffffffffff16600160008a815260200190815260200160002060020160149054906101000a900460ff16600160008b815260200190815260200160002060030184805461088990611982565b80601f01602080910402602001604051908101604052809291908181526020018280546108b590611982565b80156109025780601f106108d757610100808354040283529160200191610902565b820191906000526020600020905b8154815290600101906020018083116108e557829003601f168201915b5050505050945083805461091590611982565b80601f016020809104026020016040519081016040528092919081815260200182805461094190611982565b801561098e5780601f106109635761010080835404028352916020019161098e565b820191906000526020600020905b81548152906001019060200180831161097157829003601f168201915b50505050509350808054806020026020016040519081016040528092919081815260200182805480156109e057602002820191906000526020600020905b8154815260200190600101908083116109cc575b505050505090509450945094509450945091939590929450565b610a02611019565b610a0a611097565b565b60006001600083815260200190815260200160002060020160149054906101000a900460ff169050919050565b6000600282604051610a4b9190611c6d565b9081526020016040518091039020549050919050565b60606004805480602002602001604051908101604052809291908181526020018280548015610aaf57602002820191906000526020600020905b815481526020019060010190808311610a9b575b5050505050905090565b60008060149054906101000a900460ff16905090565b610ad7611019565b610ae160006110f9565b565b60035481565b610af1611019565b610af96111bd565b565b60048181548110610b0b57600080fd5b906000526020600020016000915090505481565b60008060009054906101000a900473ffffffffffffffffffffffffffffffffffffffff16905090565b610b50610fcf565b6001600082815260200190815260200160002060020160009054906101000a900473ffffffffffffffffffffffffffffffffffffffff1673ffffffffffffffffffffffffffffffffffffffff163373ffffffffffffffffffffffffffffffffffffffff1614610bf4576040517f08c379a0000000000000000000000000000000000000000000000000000000008152600401610beb90611d7e565b60405180910390fd5b60006001600083815260200190815260200160002060020160146101000a81548160ff02191690831515021790555050565b600160008381526020019081526020016000206003018190806001815401808255809150506001900390600052602060002001600090919091909150555050565b6001602052806000526040600020600091509050806000018054610c8a90611982565b80601f0160208091040260200160405190810160405280929190818152602001828054610cb690611982565b8015610d035780601f10610cd857610100808354040283529160200191610d03565b820191906000526020600020905b815481529060010190602001808311610ce657829003601f168201915b505050505090806001018054610d1890611982565b80601f0160208091040260200160405190810160405280929190818152602001828054610d4490611982565b8015610d915780601f10610d6657610100808354040283529160200191610d91565b820191906000526020600020905b815481529060010190602001808311610d7457829003601f168201915b5050505050908060020160009054906101000a900473ffffffffffffffffffffffffffffffffffffffff16908060020160149054906101000a900460ff16905084565b610ddc610fcf565b6001600084815260200190815260200160002060020160009054906101000a900473ffffffffffffffffffffffffffffffffffffffff1673ffffffffffffffffffffffffffffffffffffffff163373ffffffffffffffffffffffffffffffffffffffff1614610e80576040517f08c379a0000000000000000000000000000000000000000000000000000000008152600401610e7790611d7e565b60405180910390fd5b81600160008581526020019081526020016000206000019081610ea39190611b5f565b5080600160008581526020019081526020016000206001019081610ec79190611b5f565b503373ffffffffffffffffffffffffffffffffffffffff16837f966f170f085b3fd1cf1e51d9497dcdf2e316a3f1160eecabcc47aee8897256e48484604051610f11929190611c84565b60405180910390a3505050565b610f26611019565b600073ffffffffffffffffffffffffffffffffffffffff168173ffffffffffffffffffffffffffffffffffffffff1603610f95576040517f08c379a0000000000000000000000000000000000000000000000000000000008152600401610f8c90611ea2565b60405180910390fd5b610f9e816110f9565b50565b6002818051602081018201805184825260208301602085012081835280955050505050506000915090505481565b610fd7610ab9565b15611017576040517f08c379a000000000000000000000000000000000000000000000000000000000815260040161100e90611f0e565b60405180910390fd5b565b611021611220565b73ffffffffffffffffffffffffffffffffffffffff1661103f610b1f565b73ffffffffffffffffffffffffffffffffffffffff1614611095576040517f08c379a000000000000000000000000000000000000000000000000000000000815260040161108c90611f7a565b60405180910390fd5b565b61109f611228565b60008060146101000a81548160ff0219169083151502179055507f5db9ee0a495bf2e6ff9c91a7834c1ba4fdd244a5e8aa4e537bd38aeae4b073aa6110e2611220565b6040516110ef9190611801565b60405180910390a1565b60008060009054906101000a900473ffffffffffffffffffffffffffffffffffffffff169050816000806101000a81548173ffffffffffffffffffffffffffffffffffffffff021916908373ffffffffffffffffffffffffffffffffffffffff1602179055508173ffffffffffffffffffffffffffffffffffffffff168173ffffffffffffffffffffffffffffffffffffffff167f8be0079c531659141344cd1fd0a4f28419497f9722a3daafe3b4186f6b6457e060405160405180910390a35050565b6111c5610fcf565b6001600060146101000a81548160ff0219169083151502179055507f62e78cea01bee320cd4e420270b5ea74000d11b0c9f74754ebdbfc544b05a258611209611220565b6040516112169190611801565b60405180910390a1565b600033905090565b611230610ab9565b61126f576040517f08c379a000000000000000000000000000000000000000000000000000000000815260040161126690611fe6565b60405180910390fd5b565b8280548282559060005260206000209081019282156112ad579160200282015b828111156112ac578251825591602001919060010190611291565b5b5090506112ba91906112be565b5090565b5b808211156112d75760008160009055506001016112bf565b5090565b6000604051905090565b600080fd5b600080fd5b600080fd5b600080fd5b6000601f19601f8301169050919050565b7f4e487b7100000000000000000000000000000000000000000000000000000000600052604160045260246000fd5b611342826112f9565b810181811067ffffffffffffffff821117156113615761136061130a565b5b80604052505050565b60006113746112db565b90506113808282611339565b919050565b600067ffffffffffffffff8211156113a05761139f61130a565b5b6113a9826112f9565b9050602081019050919050565b82818337600083830152505050565b60006113d86113d384611385565b61136a565b9050828152602081018484840111156113f4576113f36112f4565b5b6113ff8482856113b6565b509392505050565b600082601f83011261141c5761141b6112ef565b5b813561142c8482602086016113c5565b91505092915050565b6000806040838503121561144c5761144b6112e5565b5b600083013567ffffffffffffffff81111561146a576114696112ea565b5b61147685828601611407565b925050602083013567ffffffffffffffff811115611497576114966112ea565b5b6114a385828601611407565b9150509250929050565b6000819050919050565b6114c0816114ad565b81146114cb57600080fd5b50565b6000813590506114dd816114b7565b92915050565b6000602082840312156114f9576114f86112e5565b5b6000611507848285016114ce565b91505092915050565b60008060408385031215611527576115266112e5565b5b6000611535858286016114ce565b9250506020611546858286016114ce565b9150509250929050565b600081519050919050565b600082825260208201905092915050565b60005b8381101561158a57808201518184015260208101905061156f565b60008484015250505050565b60006115a182611550565b6115ab818561155b565b93506115bb81856020860161156c565b6115c4816112f9565b840191505092915050565b600073ffffffffffffffffffffffffffffffffffffffff82169050919050565b60006115fa826115cf565b9050919050565b61160a816115ef565b82525050565b60008115159050919050565b61162581611610565b82525050565b600081519050919050565b600082825260208201905092915050565b6000819050602082019050919050565b611660816114ad565b82525050565b60006116728383611657565b60208301905092915050565b6000602082019050919050565b60006116968261162b565b6116a08185611636565b93506116ab83611647565b8060005b838110156116dc5781516116c38882611666565b97506116ce8361167e565b9250506001810190506116af565b5085935050505092915050565b600060a08201905081810360008301526117038188611596565b905081810360208301526117178187611596565b90506117266040830186611601565b611733606083018561161c565b8181036080830152611745818461168b565b90509695505050505050565b6000602082019050611766600083018461161c565b92915050565b600060208284031215611782576117816112e5565b5b600082013567ffffffffffffffff8111156117a05761179f6112ea565b5b6117ac84828501611407565b91505092915050565b6117be816114ad565b82525050565b60006020820190506117d960008301846117b5565b92915050565b600060208201905081810360008301526117f9818461168b565b905092915050565b60006020820190506118166000830184611601565b92915050565b600060808201905081810360008301526118368187611596565b9050818103602083015261184a8186611596565b90506118596040830185611601565b611866606083018461161c565b95945050505050565b600080600060608486031215611888576118876112e5565b5b6000611896868287016114ce565b935050602084013567ffffffffffffffff8111156118b7576118b66112ea565b5b6118c386828701611407565b925050604084013567ffffffffffffffff8111156118e4576118e36112ea565b5b6118f086828701611407565b9150509250925092565b611903816115ef565b811461190e57600080fd5b50565b600081359050611920816118fa565b92915050565b60006020828403121561193c5761193b6112e5565b5b600061194a84828501611911565b91505092915050565b7f4e487b7100000000000000000000000000000000000000000000000000000000600052602260045260246000fd5b6000600282049050600182168061199a57607f821691505b6020821081036119ad576119ac611953565b5b50919050565b60008190508160005260206000209050919050565b60006020601f8301049050919050565b600082821b905092915050565b600060088302611a157fffffffffffffffffffffffffffffffffffffffffffffffffffffffffffffffff826119d8565b611a1f86836119d8565b95508019841693508086168417925050509392505050565b6000819050919050565b6000611a5c611a57611a52846114ad565b611a37565b6114ad565b9050919050565b6000819050919050565b611a7683611a41565b611a8a611a8282611a63565b8484546119e5565b825550505050565b600090565b611a9f611a92565b611aaa818484611a6d565b505050565b5b81811015611ace57611ac3600082611a97565b600181019050611ab0565b5050565b601f821115611b1357611ae4816119b3565b611aed846119c8565b81016020851015611afc578190505b611b10611b08856119c8565b830182611aaf565b50505b505050565b600082821c905092915050565b6000611b3660001984600802611b18565b1980831691505092915050565b6000611b4f8383611b25565b9150826002028217905092915050565b611b6882611550565b67ffffffffffffffff811115611b8157611b8061130a565b5b611b8b8254611982565b611b96828285611ad2565b600060209050601f831160018114611bc95760008415611bb7578287015190505b611bc18582611b43565b865550611c29565b601f198416611bd7866119b3565b60005b82811015611bff57848901518255600182019150602085019450602081019050611bda565b86831015611c1c5784890151611c18601f891682611b25565b8355505b6001600288020188555050505b505050505050565b600081905092915050565b6000611c4782611550565b611c518185611c31565b9350611c6181856020860161156c565b80840191505092915050565b6000611c798284611c3c565b915081905092915050565b60006040820190508181036000830152611c9e8185611596565b90508181036020830152611cb28184611596565b90509392505050565b7f4e487b7100000000000000000000000000000000000000000000000000000000600052601160045260246000fd5b6000611cf5826114ad565b91507fffffffffffffffffffffffffffffffffffffffffffffffffffffffffffffffff8203611d2757611d26611cbb565b5b600182019050919050565b7f4e6f7420746865206f776e657200000000000000000000000000000000000000600082015250565b6000611d68600d8361155b565b9150611d7382611d32565b602082019050919050565b60006020820190508181036000830152611d9781611d5b565b9050919050565b7f4e487b7100000000000000000000000000000000000000000000000000000000600052603260045260246000fd5b6000611dd8826114ad565b9150611de3836114ad565b9250828203905081811115611dfb57611dfa611cbb565b5b92915050565b7f4e487b7100000000000000000000000000000000000000000000000000000000600052603160045260246000fd5b7f4f776e61626c653a206e6577206f776e657220697320746865207a65726f206160008201527f6464726573730000000000000000000000000000000000000000000000000000602082015250565b6000611e8c60268361155b565b9150611e9782611e30565b604082019050919050565b60006020820190508181036000830152611ebb81611e7f565b9050919050565b7f5061757361626c653a2070617573656400000000000000000000000000000000600082015250565b6000611ef860108361155b565b9150611f0382611ec2565b602082019050919050565b60006020820190508181036000830152611f2781611eeb565b9050919050565b7f4f776e61626c653a2063616c6c6572206973206e6f7420746865206f776e6572600082015250565b6000611f6460208361155b565b9150611f6f82611f2e565b602082019050919050565b60006020820190508181036000830152611f9381611f57565b9050919050565b7f5061757361626c653a206e6f7420706175736564000000000000000000000000600082015250565b6000611fd060148361155b565b9150611fdb82611f9a565b602082019050919050565b60006020820190508181036000830152611fff81611fc3565b905091905056fea2646970667358221220a0cd123fc3be70bd9e5fa255217295a04502c2ba3c8a7c570d4c7ed818f0f31964736f6c63430008120033a26469706673582212205b8aa97e57ccfa69243a2414ca708c063cb89dbbc4f85d11772a5b6897e1a09664736f6c63430008120033",
			"opcodes": "PUSH1 0x80 PUSH1 0x40 MSTORE CALLVALUE DUP1 ISZERO PUSH2 0x10 JUMPI PUSH1 0x0 DUP1 REVERT JUMPDEST POP PUSH2 0x4BD1 DUP1 PUSH2 0x20 PUSH1 0x0 CODECOPY PUSH1 0x0 RETURN INVALID PUSH1 0x80 PUSH1 0x40 MSTORE CALLVALUE DUP1 ISZERO PUSH3 0x11 JUMPI PUSH1 0x0 DUP1 REVERT JUMPDEST POP PUSH1 0x4 CALLDATASIZE LT PUSH3 0x6A JUMPI PUSH1 0x0 CALLDATALOAD PUSH1 0xE0 SHR DUP1 PUSH4 0x1F530BE1 EQ PUSH3 0x6F JUMPI DUP1 PUSH4 0x37C2D7EA EQ PUSH3 0x7B JUMPI DUP1 PUSH4 0x52C498FF EQ PUSH3 0x87 JUMPI DUP1 PUSH4 0x6331E7D4 EQ PUSH3 0x93 JUMPI DUP1 PUSH4 0x9B5C95C7 EQ PUSH3 0x9F JUMPI DUP1 PUSH4 0xD9F1924D EQ PUSH3 0xAB JUMPI JUMPDEST PUSH1 0x0 DUP1 REVERT JUMPDEST PUSH3 0x79 PUSH3 0xB7 JUMP JUMPDEST STOP JUMPDEST PUSH3 0x85 PUSH3 0x4B4 JUMP JUMPDEST STOP JUMPDEST PUSH3 0x91 PUSH3 0x847 JUMP JUMPDEST STOP JUMPDEST PUSH3 0x9D PUSH3 0xC98 JUMP JUMPDEST STOP JUMPDEST PUSH3 0xA9 PUSH3 0xD05 JUMP JUMPDEST STOP JUMPDEST PUSH3 0xB5 PUSH3 0x104E JUMP JUMPDEST STOP JUMPDEST PUSH1 0x0 DUP1 SLOAD SWAP1 PUSH2 0x100 EXP SWAP1 DIV PUSH20 0xFFFFFFFFFFFFFFFFFFFFFFFFFFFFFFFFFFFFFFFF AND PUSH20 0xFFFFFFFFFFFFFFFFFFFFFFFFFFFFFFFFFFFFFFFF AND PUSH4 0x3B28C33 PUSH1 0x40 MLOAD DUP2 PUSH4 0xFFFFFFFF AND PUSH1 0xE0 SHL DUP2 MSTORE PUSH1 0x4 ADD PUSH3 0x110 SWAP1 PUSH3 0x1656 JUMP JUMPDEST PUSH1 0x0 PUSH1 0x40 MLOAD DUP1 DUP4 SUB DUP2 PUSH1 0x0 DUP8 DUP1 EXTCODESIZE ISZERO DUP1 ISZERO PUSH3 0x12B JUMPI PUSH1 0x0 DUP1 REVERT JUMPDEST POP GAS CALL ISZERO DUP1 ISZERO PUSH3 0x140 JUMPI RETURNDATASIZE PUSH1 0x0 DUP1 RETURNDATACOPY RETURNDATASIZE PUSH1 0x0 REVERT JUMPDEST POP POP POP POP PUSH1 0x0 DUP1 SLOAD SWAP1 PUSH2 0x100 EXP SWAP1 DIV PUSH20 0xFFFFFFFFFFFFFFFFFFFFFFFFFFFFFFFFFFFFFFFF AND PUSH20 0xFFFFFFFFFFFFFFFFFFFFFFFFFFFFFFFFFFFFFFFF AND PUSH4 0x9D8A1ECC PUSH1 0x0 PUSH1 0x40 MLOAD DUP3 PUSH4 0xFFFFFFFF AND PUSH1 0xE0 SHL DUP2 MSTORE PUSH1 0x4 ADD PUSH3 0x1A0 SWAP2 SWAP1 PUSH3 0x16E4 JUMP JUMPDEST PUSH1 0x0 PUSH1 0x40 MLOAD DUP1 DUP4 SUB DUP2 PUSH1 0x0 DUP8 DUP1 EXTCODESIZE ISZERO DUP1 ISZERO PUSH3 0x1BB JUMPI PUSH1 0x0 DUP1 REVERT JUMPDEST POP GAS CALL ISZERO DUP1 ISZERO PUSH3 0x1D0 JUMPI RETURNDATASIZE PUSH1 0x0 DUP1 RETURNDATACOPY RETURNDATASIZE PUSH1 0x0 REVERT JUMPDEST POP POP POP POP PUSH1 0x0 DUP1 PUSH1 0x0 SWAP1 SLOAD SWAP1 PUSH2 0x100 EXP SWAP1 DIV PUSH20 0xFFFFFFFFFFFFFFFFFFFFFFFFFFFFFFFFFFFFFFFF AND PUSH20 0xFFFFFFFFFFFFFFFFFFFFFFFFFFFFFFFFFFFFFFFF AND PUSH4 0x426B6283 PUSH1 0x0 PUSH1 0x40 MLOAD DUP3 PUSH4 0xFFFFFFFF AND PUSH1 0xE0 SHL DUP2 MSTORE PUSH1 0x4 ADD PUSH3 0x233 SWAP2 SWAP1 PUSH3 0x16E4 JUMP JUMPDEST PUSH1 0x20 PUSH1 0x40 MLOAD DUP1 DUP4 SUB DUP2 DUP7 GAS STATICCALL ISZERO DUP1 ISZERO PUSH3 0x251 JUMPI RETURNDATASIZE PUSH1 0x0 DUP1 RETURNDATACOPY RETURNDATASIZE PUSH1 0x0 REVERT JUMPDEST POP POP POP POP PUSH1 0x40 MLOAD RETURNDATASIZE PUSH1 0x1F NOT PUSH1 0x1F DUP3 ADD AND DUP3 ADD DUP1 PUSH1 0x40 MSTORE POP DUP2 ADD SWAP1 PUSH3 0x277 SWAP2 SWAP1 PUSH3 0x1752 JUMP JUMPDEST SWAP1 POP PUSH20 0x0 PUSH4 0x767392B3 DUP3 PUSH1 0x0 PUSH1 0x40 MLOAD DUP4 PUSH4 0xFFFFFFFF AND PUSH1 0xE0 SHL DUP2 MSTORE PUSH1 0x4 ADD PUSH3 0x2B5 SWAP3 SWAP2 SWAP1 PUSH3 0x17F6 JUMP JUMPDEST PUSH1 0x20 PUSH1 0x40 MLOAD DUP1 DUP4 SUB DUP2 DUP7 GAS DELEGATECALL ISZERO DUP1 ISZERO PUSH3 0x2D3 JUMPI RETURNDATASIZE PUSH1 0x0 DUP1 RETURNDATACOPY RETURNDATASIZE PUSH1 0x0 REVERT JUMPDEST POP POP POP POP PUSH1 0x40 MLOAD RETURNDATASIZE PUSH1 0x1F NOT PUSH1 0x1F DUP3 ADD AND DUP3 ADD DUP1 PUSH1 0x40 MSTORE POP DUP2 ADD SWAP1 PUSH3 0x2F9 SWAP2 SWAP1 PUSH3 0x1752 JUMP JUMPDEST POP PUSH1 0x0 DUP1 SLOAD SWAP1 PUSH2 0x100 EXP SWAP1 DIV PUSH20 0xFFFFFFFFFFFFFFFFFFFFFFFFFFFFFFFFFFFFFFFF AND PUSH20 0xFFFFFFFFFFFFFFFFFFFFFFFFFFFFFFFFFFFFFFFF AND PUSH4 0x1A1EBFC9 PUSH1 0x0 PUSH1 0x40 MLOAD DUP3 PUSH4 0xFFFFFFFF AND PUSH1 0xE0 SHL DUP2 MSTORE PUSH1 0x4 ADD PUSH3 0x356 SWAP2 SWAP1 PUSH3 0x16E4 JUMP JUMPDEST PUSH1 0x0 PUSH1 0x40 MLOAD DUP1 DUP4 SUB DUP2 PUSH1 0x0 DUP8 DUP1 EXTCODESIZE ISZERO DUP1 ISZERO PUSH3 0x371 JUMPI PUSH1 0x0 DUP1 REVERT JUMPDEST POP GAS CALL ISZERO DUP1 ISZERO PUSH3 0x386 JUMPI RETURNDATASIZE PUSH1 0x0 DUP1 RETURNDATACOPY RETURNDATASIZE PUSH1 0x0 REVERT JUMPDEST POP POP POP POP PUSH1 0x0 DUP1 PUSH1 0x0 SWAP1 SLOAD SWAP1 PUSH2 0x100 EXP SWAP1 DIV PUSH20 0xFFFFFFFFFFFFFFFFFFFFFFFFFFFFFFFFFFFFFFFF AND PUSH20 0xFFFFFFFFFFFFFFFFFFFFFFFFFFFFFFFFFFFFFFFF AND PUSH4 0x426B6283 PUSH1 0x0 PUSH1 0x40 MLOAD DUP3 PUSH4 0xFFFFFFFF AND PUSH1 0xE0 SHL DUP2 MSTORE PUSH1 0x4 ADD PUSH3 0x3E9 SWAP2 SWAP1 PUSH3 0x16E4 JUMP JUMPDEST PUSH1 0x20 PUSH1 0x40 MLOAD DUP1 DUP4 SUB DUP2 DUP7 GAS STATICCALL ISZERO DUP1 ISZERO PUSH3 0x407 JUMPI RETURNDATASIZE PUSH1 0x0 DUP1 RETURNDATACOPY RETURNDATASIZE PUSH1 0x0 REVERT JUMPDEST POP POP POP POP PUSH1 0x40 MLOAD RETURNDATASIZE PUSH1 0x1F NOT PUSH1 0x1F DUP3 ADD AND DUP3 ADD DUP1 PUSH1 0x40 MSTORE POP DUP2 ADD SWAP1 PUSH3 0x42D SWAP2 SWAP1 PUSH3 0x1752 JUMP JUMPDEST SWAP1 POP PUSH20 0x0 PUSH4 0x767392B3 DUP3 PUSH1 0x1 PUSH1 0x40 MLOAD DUP4 PUSH4 0xFFFFFFFF AND PUSH1 0xE0 SHL DUP2 MSTORE PUSH1 0x4 ADD PUSH3 0x46B SWAP3 SWAP2 SWAP1 PUSH3 0x1888 JUMP JUMPDEST PUSH1 0x20 PUSH1 0x40 MLOAD DUP1 DUP4 SUB DUP2 DUP7 GAS DELEGATECALL ISZERO DUP1 ISZERO PUSH3 0x489 JUMPI RETURNDATASIZE PUSH1 0x0 DUP1 RETURNDATACOPY RETURNDATASIZE PUSH1 0x0 REVERT JUMPDEST POP POP POP POP PUSH1 0x40 MLOAD RETURNDATASIZE PUSH1 0x1F NOT PUSH1 0x1F DUP3 ADD AND DUP3 ADD DUP1 PUSH1 0x40 MSTORE POP DUP2 ADD SWAP1 PUSH3 0x4AF SWAP2 SWAP1 PUSH3 0x1752 JUMP JUMPDEST POP POP POP JUMP JUMPDEST PUSH1 0x0 DUP1 SLOAD SWAP1 PUSH2 0x100 EXP SWAP1 DIV PUSH20 0xFFFFFFFFFFFFFFFFFFFFFFFFFFFFFFFFFFFFFFFF AND PUSH20 0xFFFFFFFFFFFFFFFFFFFFFFFFFFFFFFFFFFFFFFFF AND PUSH4 0x3B28C33 PUSH1 0x40 MLOAD DUP2 PUSH4 0xFFFFFFFF AND PUSH1 0xE0 SHL DUP2 MSTORE PUSH1 0x4 ADD PUSH3 0x50D SWAP1 PUSH3 0x1656 JUMP JUMPDEST PUSH1 0x0 PUSH1 0x40 MLOAD DUP1 DUP4 SUB DUP2 PUSH1 0x0 DUP8 DUP1 EXTCODESIZE ISZERO DUP1 ISZERO PUSH3 0x528 JUMPI PUSH1 0x0 DUP1 REVERT JUMPDEST POP GAS CALL ISZERO DUP1 ISZERO PUSH3 0x53D JUMPI RETURNDATASIZE PUSH1 0x0 DUP1 RETURNDATACOPY RETURNDATASIZE PUSH1 0x0 REVERT JUMPDEST POP POP POP POP PUSH1 0x0 DUP1 SLOAD SWAP1 PUSH2 0x100 EXP SWAP1 DIV PUSH20 0xFFFFFFFFFFFFFFFFFFFFFFFFFFFFFFFFFFFFFFFF AND PUSH20 0xFFFFFFFFFFFFFFFFFFFFFFFFFFFFFFFFFFFFFFFF AND PUSH4 0xEECB7D22 PUSH1 0x0 PUSH1 0x40 MLOAD DUP3 PUSH4 0xFFFFFFFF AND PUSH1 0xE0 SHL DUP2 MSTORE PUSH1 0x4 ADD PUSH3 0x59D SWAP2 SWAP1 PUSH3 0x1990 JUMP JUMPDEST PUSH1 0x0 PUSH1 0x40 MLOAD DUP1 DUP4 SUB DUP2 PUSH1 0x0 DUP8 DUP1 EXTCODESIZE ISZERO DUP1 ISZERO PUSH3 0x5B8 JUMPI PUSH1 0x0 DUP1 REVERT JUMPDEST POP GAS CALL SWAP3 POP POP POP DUP1 ISZERO PUSH3 0x5CA JUMPI POP PUSH1 0x1 JUMPDEST PUSH3 0x697 JUMPI PUSH3 0x5D9 PUSH3 0x19E4 JUMP JUMPDEST DUP1 PUSH4 0x8C379A0 SUB PUSH3 0x685 JUMPI POP PUSH3 0x5F0 PUSH3 0x1A7F JUMP JUMPDEST DUP1 PUSH3 0x5FD JUMPI POP PUSH3 0x687 JUMP JUMPDEST PUSH20 0x0 PUSH4 0x39DF137F PUSH1 0x0 DUP4 PUSH1 0x40 MLOAD DUP4 PUSH4 0xFFFFFFFF AND PUSH1 0xE0 SHL DUP2 MSTORE PUSH1 0x4 ADD PUSH3 0x639 SWAP3 SWAP2 SWAP1 PUSH3 0x1B92 JUMP JUMPDEST PUSH1 0x20 PUSH1 0x40 MLOAD DUP1 DUP4 SUB DUP2 DUP7 GAS DELEGATECALL ISZERO DUP1 ISZERO PUSH3 0x657 JUMPI RETURNDATASIZE PUSH1 0x0 DUP1 RETURNDATACOPY RETURNDATASIZE PUSH1 0x0 REVERT JUMPDEST POP POP POP POP PUSH1 0x40 MLOAD RETURNDATASIZE PUSH1 0x1F NOT PUSH1 0x1F DUP3 ADD AND DUP3 ADD DUP1 PUSH1 0x40 MSTORE POP DUP2 ADD SWAP1 PUSH3 0x67D SWAP2 SWAP1 PUSH3 0x1752 JUMP JUMPDEST POP POP PUSH3 0x691 JUMP JUMPDEST POP JUMPDEST RETURNDATASIZE PUSH1 0x0 DUP1 RETURNDATACOPY RETURNDATASIZE PUSH1 0x0 REVERT JUMPDEST PUSH3 0x845 JUMP JUMPDEST PUSH1 0x0 DUP1 PUSH1 0x0 DUP1 SLOAD SWAP1 PUSH2 0x100 EXP SWAP1 DIV PUSH20 0xFFFFFFFFFFFFFFFFFFFFFFFFFFFFFFFFFFFFFFFF AND PUSH20 0xFFFFFFFFFFFFFFFFFFFFFFFFFFFFFFFFFFFFFFFF AND PUSH4 0x370603F8 PUSH1 0x0 PUSH1 0x40 MLOAD DUP3 PUSH4 0xFFFFFFFF AND PUSH1 0xE0 SHL DUP2 MSTORE PUSH1 0x4 ADD PUSH3 0x6F6 SWAP2 SWAP1 PUSH3 0x16E4 JUMP JUMPDEST PUSH1 0x0 PUSH1 0x40 MLOAD DUP1 DUP4 SUB DUP2 DUP7 GAS STATICCALL ISZERO DUP1 ISZERO PUSH3 0x714 JUMPI RETURNDATASIZE PUSH1 0x0 DUP1 RETURNDATACOPY RETURNDATASIZE PUSH1 0x0 REVERT JUMPDEST POP POP POP POP PUSH1 0x40 MLOAD RETURNDATASIZE PUSH1 0x0 DUP3 RETURNDATACOPY RETURNDATASIZE PUSH1 0x1F NOT PUSH1 0x1F DUP3 ADD AND DUP3 ADD DUP1 PUSH1 0x40 MSTORE POP DUP2 ADD SWAP1 PUSH3 0x73F SWAP2 SWAP1 PUSH3 0x1E14 JUMP JUMPDEST POP POP POP SWAP2 POP SWAP2 POP PUSH20 0x0 PUSH4 0xE8C2CB16 DUP4 PUSH1 0x40 MLOAD DUP3 PUSH4 0xFFFFFFFF AND PUSH1 0xE0 SHL DUP2 MSTORE PUSH1 0x4 ADD PUSH3 0x77F SWAP2 SWAP1 PUSH3 0x1F96 JUMP JUMPDEST PUSH1 0x20 PUSH1 0x40 MLOAD DUP1 DUP4 SUB DUP2 DUP7 GAS DELEGATECALL ISZERO DUP1 ISZERO PUSH3 0x79D JUMPI RETURNDATASIZE PUSH1 0x0 DUP1 RETURNDATACOPY RETURNDATASIZE PUSH1 0x0 REVERT JUMPDEST POP POP POP POP PUSH1 0x40 MLOAD RETURNDATASIZE PUSH1 0x1F NOT PUSH1 0x1F DUP3 ADD AND DUP3 ADD DUP1 PUSH1 0x40 MSTORE POP DUP2 ADD SWAP1 PUSH3 0x7C3 SWAP2 SWAP1 PUSH3 0x1752 JUMP JUMPDEST POP PUSH20 0x0 PUSH4 0xE8C2CB16 DUP3 PUSH1 0x40 MLOAD DUP3 PUSH4 0xFFFFFFFF AND PUSH1 0xE0 SHL DUP2 MSTORE PUSH1 0x4 ADD PUSH3 0x7FD SWAP2 SWAP1 PUSH3 0x2081 JUMP JUMPDEST PUSH1 0x20 PUSH1 0x40 MLOAD DUP1 DUP4 SUB DUP2 DUP7 GAS DELEGATECALL ISZERO DUP1 ISZERO PUSH3 0x81B JUMPI RETURNDATASIZE PUSH1 0x0 DUP1 RETURNDATACOPY RETURNDATASIZE PUSH1 0x0 REVERT JUMPDEST POP POP POP POP PUSH1 0x40 MLOAD RETURNDATASIZE PUSH1 0x1F NOT PUSH1 0x1F DUP3 ADD AND DUP3 ADD DUP1 PUSH1 0x40 MSTORE POP DUP2 ADD SWAP1 PUSH3 0x841 SWAP2 SWAP1 PUSH3 0x1752 JUMP JUMPDEST POP POP POP JUMPDEST JUMP JUMPDEST PUSH1 0x0 DUP1 PUSH1 0x0 SWAP1 SLOAD SWAP1 PUSH2 0x100 EXP SWAP1 DIV PUSH20 0xFFFFFFFFFFFFFFFFFFFFFFFFFFFFFFFFFFFFFFFF AND PUSH20 0xFFFFFFFFFFFFFFFFFFFFFFFFFFFFFFFFFFFFFFFF AND PUSH4 0x5C975ABB PUSH1 0x40 MLOAD DUP2 PUSH4 0xFFFFFFFF AND PUSH1 0xE0 SHL DUP2 MSTORE PUSH1 0x4 ADD PUSH1 0x20 PUSH1 0x40 MLOAD DUP1 DUP4 SUB DUP2 DUP7 GAS STATICCALL ISZERO DUP1 ISZERO PUSH3 0x8B6 JUMPI RETURNDATASIZE PUSH1 0x0 DUP1 RETURNDATACOPY RETURNDATASIZE PUSH1 0x0 REVERT JUMPDEST POP POP POP POP PUSH1 0x40 MLOAD RETURNDATASIZE PUSH1 0x1F NOT PUSH1 0x1F DUP3 ADD AND DUP3 ADD DUP1 PUSH1 0x40 MSTORE POP DUP2 ADD SWAP1 PUSH3 0x8DC SWAP2 SWAP1 PUSH3 0x1752 JUMP JUMPDEST SWAP1 POP PUSH20 0x0 PUSH4 0x767392B3 DUP3 PUSH1 0x0 PUSH1 0x40 MLOAD DUP4 PUSH4 0xFFFFFFFF AND PUSH1 0xE0 SHL DUP2 MSTORE PUSH1 0x4 ADD PUSH3 0x91A SWAP3 SWAP2 SWAP1 PUSH3 0x2145 JUMP JUMPDEST PUSH1 0x20 PUSH1 0x40 MLOAD DUP1 DUP4 SUB DUP2 DUP7 GAS DELEGATECALL ISZERO DUP1 ISZERO PUSH3 0x938 JUMPI RETURNDATASIZE PUSH1 0x0 DUP1 RETURNDATACOPY RETURNDATASIZE PUSH1 0x0 REVERT JUMPDEST POP POP POP POP PUSH1 0x40 MLOAD RETURNDATASIZE PUSH1 0x1F NOT PUSH1 0x1F DUP3 ADD AND DUP3 ADD DUP1 PUSH1 0x40 MSTORE POP DUP2 ADD SWAP1 PUSH3 0x95E SWAP2 SWAP1 PUSH3 0x1752 JUMP JUMPDEST POP PUSH1 0x0 DUP1 SLOAD SWAP1 PUSH2 0x100 EXP SWAP1 DIV PUSH20 0xFFFFFFFFFFFFFFFFFFFFFFFFFFFFFFFFFFFFFFFF AND PUSH20 0xFFFFFFFFFFFFFFFFFFFFFFFFFFFFFFFFFFFFFFFF AND PUSH4 0x8456CB59 PUSH1 0x40 MLOAD DUP2 PUSH4 0xFFFFFFFF AND PUSH1 0xE0 SHL DUP2 MSTORE PUSH1 0x4 ADD PUSH1 0x0 PUSH1 0x40 MLOAD DUP1 DUP4 SUB DUP2 PUSH1 0x0 DUP8 DUP1 EXTCODESIZE ISZERO DUP1 ISZERO PUSH3 0x9C8 JUMPI PUSH1 0x0 DUP1 REVERT JUMPDEST POP GAS CALL ISZERO DUP1 ISZERO PUSH3 0x9DD JUMPI RETURNDATASIZE PUSH1 0x0 DUP1 RETURNDATACOPY RETURNDATASIZE PUSH1 0x0 REVERT JUMPDEST POP POP POP POP PUSH1 0x0 DUP1 PUSH1 0x0 SWAP1 SLOAD SWAP1 PUSH2 0x100 EXP SWAP1 DIV PUSH20 0xFFFFFFFFFFFFFFFFFFFFFFFFFFFFFFFFFFFFFFFF AND PUSH20 0xFFFFFFFFFFFFFFFFFFFFFFFFFFFFFFFFFFFFFFFF AND PUSH4 0x5C975ABB PUSH1 0x40 MLOAD DUP2 PUSH4 0xFFFFFFFF AND PUSH1 0xE0 SHL DUP2 MSTORE PUSH1 0x4 ADD PUSH1 0x20 PUSH1 0x40 MLOAD DUP1 DUP4 SUB DUP2 DUP7 GAS STATICCALL ISZERO DUP1 ISZERO PUSH3 0xA50 JUMPI RETURNDATASIZE PUSH1 0x0 DUP1 RETURNDATACOPY RETURNDATASIZE PUSH1 0x0 REVERT JUMPDEST POP POP POP POP PUSH1 0x40 MLOAD RETURNDATASIZE PUSH1 0x1F NOT PUSH1 0x1F DUP3 ADD AND DUP3 ADD DUP1 PUSH1 0x40 MSTORE POP DUP2 ADD SWAP1 PUSH3 0xA76 SWAP2 SWAP1 PUSH3 0x1752 JUMP JUMPDEST SWAP1 POP PUSH20 0x0 PUSH4 0x767392B3 DUP3 PUSH1 0x1 PUSH1 0x40 MLOAD DUP4 PUSH4 0xFFFFFFFF AND PUSH1 0xE0 SHL DUP2 MSTORE PUSH1 0x4 ADD PUSH3 0xAB4 SWAP3 SWAP2 SWAP1 PUSH3 0x21FD JUMP JUMPDEST PUSH1 0x20 PUSH1 0x40 MLOAD DUP1 DUP4 SUB DUP2 DUP7 GAS DELEGATECALL ISZERO DUP1 ISZERO PUSH3 0xAD2 JUMPI RETURNDATASIZE PUSH1 0x0 DUP1 RETURNDATACOPY RETURNDATASIZE PUSH1 0x0 REVERT JUMPDEST POP POP POP POP PUSH1 0x40 MLOAD RETURNDATASIZE PUSH1 0x1F NOT PUSH1 0x1F DUP3 ADD AND DUP3 ADD DUP1 PUSH1 0x40 MSTORE POP DUP2 ADD SWAP1 PUSH3 0xAF8 SWAP2 SWAP1 PUSH3 0x1752 JUMP JUMPDEST POP PUSH1 0x0 DUP1 SLOAD SWAP1 PUSH2 0x100 EXP SWAP1 DIV PUSH20 0xFFFFFFFFFFFFFFFFFFFFFFFFFFFFFFFFFFFFFFFF AND PUSH20 0xFFFFFFFFFFFFFFFFFFFFFFFFFFFFFFFFFFFFFFFF AND PUSH4 0x3F4BA83A PUSH1 0x40 MLOAD DUP2 PUSH4 0xFFFFFFFF AND PUSH1 0xE0 SHL DUP2 MSTORE PUSH1 0x4 ADD PUSH1 0x0 PUSH1 0x40 MLOAD DUP1 DUP4 SUB DUP2 PUSH1 0x0 DUP8 DUP1 EXTCODESIZE ISZERO DUP1 ISZERO PUSH3 0xB62 JUMPI PUSH1 0x0 DUP1 REVERT JUMPDEST POP GAS CALL ISZERO DUP1 ISZERO PUSH3 0xB77 JUMPI RETURNDATASIZE PUSH1 0x0 DUP1 RETURNDATACOPY RETURNDATASIZE PUSH1 0x0 REVERT JUMPDEST POP POP POP POP PUSH1 0x0 DUP1 PUSH1 0x0 SWAP1 SLOAD SWAP1 PUSH2 0x100 EXP SWAP1 DIV PUSH20 0xFFFFFFFFFFFFFFFFFFFFFFFFFFFFFFFFFFFFFFFF AND PUSH20 0xFFFFFFFFFFFFFFFFFFFFFFFFFFFFFFFFFFFFFFFF AND PUSH4 0x5C975ABB PUSH1 0x40 MLOAD DUP2 PUSH4 0xFFFFFFFF AND PUSH1 0xE0 SHL DUP2 MSTORE PUSH1 0x4 ADD PUSH1 0x20 PUSH1 0x40 MLOAD DUP1 DUP4 SUB DUP2 DUP7 GAS STATICCALL ISZERO DUP1 ISZERO PUSH3 0xBEA JUMPI RETURNDATASIZE PUSH1 0x0 DUP1 RETURNDATACOPY RETURNDATASIZE PUSH1 0x0 REVERT JUMPDEST POP POP POP POP PUSH1 0x40 MLOAD RETURNDATASIZE PUSH1 0x1F NOT PUSH1 0x1F DUP3 ADD AND DUP3 ADD DUP1 PUSH1 0x40 MSTORE POP DUP2 ADD SWAP1 PUSH3 0xC10 SWAP2 SWAP1 PUSH3 0x1752 JUMP JUMPDEST SWAP1 POP PUSH20 0x0 PUSH4 0x767392B3 DUP3 PUSH1 0x0 PUSH1 0x40 MLOAD DUP4 PUSH4 0xFFFFFFFF AND PUSH1 0xE0 SHL DUP2 MSTORE PUSH1 0x4 ADD PUSH3 0xC4E SWAP3 SWAP2 SWAP1 PUSH3 0x22B5 JUMP JUMPDEST PUSH1 0x20 PUSH1 0x40 MLOAD DUP1 DUP4 SUB DUP2 DUP7 GAS DELEGATECALL ISZERO DUP1 ISZERO PUSH3 0xC6C JUMPI RETURNDATASIZE PUSH1 0x0 DUP1 RETURNDATACOPY RETURNDATASIZE PUSH1 0x0 REVERT JUMPDEST POP POP POP POP PUSH1 0x40 MLOAD RETURNDATASIZE PUSH1 0x1F NOT PUSH1 0x1F DUP3 ADD AND DUP3 ADD DUP1 PUSH1 0x40 MSTORE POP DUP2 ADD SWAP1 PUSH3 0xC92 SWAP2 SWAP1 PUSH3 0x1752 JUMP JUMPDEST POP POP POP POP JUMP JUMPDEST PUSH1 0x40 MLOAD PUSH3 0xCA6 SWAP1 PUSH3 0x1597 JUMP JUMPDEST PUSH1 0x40 MLOAD DUP1 SWAP2 SUB SWAP1 PUSH1 0x0 CREATE DUP1 ISZERO DUP1 ISZERO PUSH3 0xCC3 JUMPI RETURNDATASIZE PUSH1 0x0 DUP1 RETURNDATACOPY RETURNDATASIZE PUSH1 0x0 REVERT JUMPDEST POP PUSH1 0x0 DUP1 PUSH2 0x100 EXP DUP2 SLOAD DUP2 PUSH20 0xFFFFFFFFFFFFFFFFFFFFFFFFFFFFFFFFFFFFFFFF MUL NOT AND SWAP1 DUP4 PUSH20 0xFFFFFFFFFFFFFFFFFFFFFFFFFFFFFFFFFFFFFFFF AND MUL OR SWAP1 SSTORE POP JUMP JUMPDEST PUSH1 0x0 DUP1 SLOAD SWAP1 PUSH2 0x100 EXP SWAP1 DIV PUSH20 0xFFFFFFFFFFFFFFFFFFFFFFFFFFFFFFFFFFFFFFFF AND PUSH20 0xFFFFFFFFFFFFFFFFFFFFFFFFFFFFFFFFFFFFFFFF AND PUSH4 0x3B28C33 PUSH1 0x40 MLOAD DUP2 PUSH4 0xFFFFFFFF AND PUSH1 0xE0 SHL DUP2 MSTORE PUSH1 0x4 ADD PUSH3 0xD5E SWAP1 PUSH3 0x1656 JUMP JUMPDEST PUSH1 0x0 PUSH1 0x40 MLOAD DUP1 DUP4 SUB DUP2 PUSH1 0x0 DUP8 DUP1 EXTCODESIZE ISZERO DUP1 ISZERO PUSH3 0xD79 JUMPI PUSH1 0x0 DUP1 REVERT JUMPDEST POP GAS CALL ISZERO DUP1 ISZERO PUSH3 0xD8E JUMPI RETURNDATASIZE PUSH1 0x0 DUP1 RETURNDATACOPY RETURNDATASIZE PUSH1 0x0 REVERT JUMPDEST POP POP POP POP PUSH1 0x0 DUP1 PUSH1 0x0 DUP1 PUSH1 0x0 DUP1 PUSH1 0x0 SWAP1 SLOAD SWAP1 PUSH2 0x100 EXP SWAP1 DIV PUSH20 0xFFFFFFFFFFFFFFFFFFFFFFFFFFFFFFFFFFFFFFFF AND PUSH20 0xFFFFFFFFFFFFFFFFFFFFFFFFFFFFFFFFFFFFFFFF AND PUSH4 0x370603F8 PUSH1 0x0 PUSH1 0x40 MLOAD DUP3 PUSH4 0xFFFFFFFF AND PUSH1 0xE0 SHL DUP2 MSTORE PUSH1 0x4 ADD PUSH3 0xDF7 SWAP2 SWAP1 PUSH3 0x16E4 JUMP JUMPDEST PUSH1 0x0 PUSH1 0x40 MLOAD DUP1 DUP4 SUB DUP2 DUP7 GAS STATICCALL ISZERO DUP1 ISZERO PUSH3 0xE15 JUMPI RETURNDATASIZE PUSH1 0x0 DUP1 RETURNDATACOPY RETURNDATASIZE PUSH1 0x0 REVERT JUMPDEST POP POP POP POP PUSH1 0x40 MLOAD RETURNDATASIZE PUSH1 0x0 DUP3 RETURNDATACOPY RETURNDATASIZE PUSH1 0x1F NOT PUSH1 0x1F DUP3 ADD AND DUP3 ADD DUP1 PUSH1 0x40 MSTORE POP DUP2 ADD SWAP1 PUSH3 0xE40 SWAP2 SWAP1 PUSH3 0x1E14 JUMP JUMPDEST SWAP5 POP SWAP5 POP SWAP5 POP SWAP5 POP SWAP5 POP PUSH20 0x0 PUSH4 0xE8C2CB16 DUP7 PUSH1 0x40 MLOAD DUP3 PUSH4 0xFFFFFFFF AND PUSH1 0xE0 SHL DUP2 MSTORE PUSH1 0x4 ADD PUSH3 0xE83 SWAP2 SWAP1 PUSH3 0x2394 JUMP JUMPDEST PUSH1 0x20 PUSH1 0x40 MLOAD DUP1 DUP4 SUB DUP2 DUP7 GAS DELEGATECALL ISZERO DUP1 ISZERO PUSH3 0xEA1 JUMPI RETURNDATASIZE PUSH1 0x0 DUP1 RETURNDATACOPY RETURNDATASIZE PUSH1 0x0 REVERT JUMPDEST POP POP POP POP PUSH1 0x40 MLOAD RETURNDATASIZE PUSH1 0x1F NOT PUSH1 0x1F DUP3 ADD AND DUP3 ADD DUP1 PUSH1 0x40 MSTORE POP DUP2 ADD SWAP1 PUSH3 0xEC7 SWAP2 SWAP1 PUSH3 0x1752 JUMP JUMPDEST POP PUSH20 0x0 PUSH4 0xE8C2CB16 DUP6 PUSH1 0x40 MLOAD DUP3 PUSH4 0xFFFFFFFF AND PUSH1 0xE0 SHL DUP2 MSTORE PUSH1 0x4 ADD PUSH3 0xF01 SWAP2 SWAP1 PUSH3 0x247F JUMP JUMPDEST PUSH1 0x20 PUSH1 0x40 MLOAD DUP1 DUP4 SUB DUP2 DUP7 GAS DELEGATECALL ISZERO DUP1 ISZERO PUSH3 0xF1F JUMPI RETURNDATASIZE PUSH1 0x0 DUP1 RETURNDATACOPY RETURNDATASIZE PUSH1 0x0 REVERT JUMPDEST POP POP POP POP PUSH1 0x40 MLOAD RETURNDATASIZE PUSH1 0x1F NOT PUSH1 0x1F DUP3 ADD AND DUP3 ADD DUP1 PUSH1 0x40 MSTORE POP DUP2 ADD SWAP1 PUSH3 0xF45 SWAP2 SWAP1 PUSH3 0x1752 JUMP JUMPDEST POP PUSH20 0x0 PUSH4 0xBFBA5DD6 DUP5 CALLER PUSH1 0x40 MLOAD DUP4 PUSH4 0xFFFFFFFF AND PUSH1 0xE0 SHL DUP2 MSTORE PUSH1 0x4 ADD PUSH3 0xF81 SWAP3 SWAP2 SWAP1 PUSH3 0x2554 JUMP JUMPDEST PUSH1 0x20 PUSH1 0x40 MLOAD DUP1 DUP4 SUB DUP2 DUP7 GAS DELEGATECALL ISZERO DUP1 ISZERO PUSH3 0xF9F JUMPI RETURNDATASIZE PUSH1 0x0 DUP1 RETURNDATACOPY RETURNDATASIZE PUSH1 0x0 REVERT JUMPDEST POP POP POP POP PUSH1 0x40 MLOAD RETURNDATASIZE PUSH1 0x1F NOT PUSH1 0x1F DUP3 ADD AND DUP3 ADD DUP1 PUSH1 0x40 MSTORE POP DUP2 ADD SWAP1 PUSH3 0xFC5 SWAP2 SWAP1 PUSH3 0x1752 JUMP JUMPDEST POP PUSH20 0x0 PUSH4 0x767392B3 DUP4 PUSH1 0x1 PUSH1 0x40 MLOAD DUP4 PUSH4 0xFFFFFFFF AND PUSH1 0xE0 SHL DUP2 MSTORE PUSH1 0x4 ADD PUSH3 0x1002 SWAP3 SWAP2 SWAP1 PUSH3 0x1888 JUMP JUMPDEST PUSH1 0x20 PUSH1 0x40 MLOAD DUP1 DUP4 SUB DUP2 DUP7 GAS DELEGATECALL ISZERO DUP1 ISZERO PUSH3 0x1020 JUMPI RETURNDATASIZE PUSH1 0x0 DUP1 RETURNDATACOPY RETURNDATASIZE PUSH1 0x0 REVERT JUMPDEST POP POP POP POP PUSH1 0x40 MLOAD RETURNDATASIZE PUSH1 0x1F NOT PUSH1 0x1F DUP3 ADD AND DUP3 ADD DUP1 PUSH1 0x40 MSTORE POP DUP2 ADD SWAP1 PUSH3 0x1046 SWAP2 SWAP1 PUSH3 0x1752 JUMP JUMPDEST POP POP POP POP POP POP JUMP JUMPDEST PUSH1 0x0 DUP1 SLOAD SWAP1 PUSH2 0x100 EXP SWAP1 DIV PUSH20 0xFFFFFFFFFFFFFFFFFFFFFFFFFFFFFFFFFFFFFFFF AND PUSH20 0xFFFFFFFFFFFFFFFFFFFFFFFFFFFFFFFFFFFFFFFF AND PUSH4 0x3B28C33 PUSH1 0x40 MLOAD DUP2 PUSH4 0xFFFFFFFF AND PUSH1 0xE0 SHL DUP2 MSTORE PUSH1 0x4 ADD PUSH3 0x10A7 SWAP1 PUSH3 0x1656 JUMP JUMPDEST PUSH1 0x0 PUSH1 0x40 MLOAD DUP1 DUP4 SUB DUP2 PUSH1 0x0 DUP8 DUP1 EXTCODESIZE ISZERO DUP1 ISZERO PUSH3 0x10C2 JUMPI PUSH1 0x0 DUP1 REVERT JUMPDEST POP GAS CALL ISZERO DUP1 ISZERO PUSH3 0x10D7 JUMPI RETURNDATASIZE PUSH1 0x0 DUP1 RETURNDATACOPY RETURNDATASIZE PUSH1 0x0 REVERT JUMPDEST POP POP POP POP PUSH1 0x0 DUP1 SLOAD SWAP1 PUSH2 0x100 EXP SWAP1 DIV PUSH20 0xFFFFFFFFFFFFFFFFFFFFFFFFFFFFFFFFFFFFFFFF AND PUSH20 0xFFFFFFFFFFFFFFFFFFFFFFFFFFFFFFFFFFFFFFFF AND PUSH4 0xA0024E45 PUSH1 0x0 PUSH1 0x1 PUSH1 0x40 MLOAD DUP4 PUSH4 0xFFFFFFFF AND PUSH1 0xE0 SHL DUP2 MSTORE PUSH1 0x4 ADD PUSH3 0x113A SWAP3 SWAP2 SWAP1 PUSH3 0x25D9 JUMP JUMPDEST PUSH1 0x0 PUSH1 0x40 MLOAD DUP1 DUP4 SUB DUP2 PUSH1 0x0 DUP8 DUP1 EXTCODESIZE ISZERO DUP1 ISZERO PUSH3 0x1155 JUMPI PUSH1 0x0 DUP1 REVERT JUMPDEST POP GAS CALL ISZERO DUP1 ISZERO PUSH3 0x116A JUMPI RETURNDATASIZE PUSH1 0x0 DUP1 RETURNDATACOPY RETURNDATASIZE PUSH1 0x0 REVERT JUMPDEST POP POP POP POP PUSH1 0x0 DUP1 SLOAD SWAP1 PUSH2 0x100 EXP SWAP1 DIV PUSH20 0xFFFFFFFFFFFFFFFFFFFFFFFFFFFFFFFFFFFFFFFF AND PUSH20 0xFFFFFFFFFFFFFFFFFFFFFFFFFFFFFFFFFFFFFFFF AND PUSH4 0xA0024E45 PUSH1 0x0 PUSH1 0x2 PUSH1 0x40 MLOAD DUP4 PUSH4 0xFFFFFFFF AND PUSH1 0xE0 SHL DUP2 MSTORE PUSH1 0x4 ADD PUSH3 0x11CD SWAP3 SWAP2 SWAP1 PUSH3 0x2649 JUMP JUMPDEST PUSH1 0x0 PUSH1 0x40 MLOAD DUP1 DUP4 SUB DUP2 PUSH1 0x0 DUP8 DUP1 EXTCODESIZE ISZERO DUP1 ISZERO PUSH3 0x11E8 JUMPI PUSH1 0x0 DUP1 REVERT JUMPDEST POP GAS CALL ISZERO DUP1 ISZERO PUSH3 0x11FD JUMPI RETURNDATASIZE PUSH1 0x0 DUP1 RETURNDATACOPY RETURNDATASIZE PUSH1 0x0 REVERT JUMPDEST POP POP POP POP PUSH1 0x0 DUP1 PUSH1 0x0 SWAP1 SLOAD SWAP1 PUSH2 0x100 EXP SWAP1 DIV PUSH20 0xFFFFFFFFFFFFFFFFFFFFFFFFFFFFFFFFFFFFFFFF AND PUSH20 0xFFFFFFFFFFFFFFFFFFFFFFFFFFFFFFFFFFFFFFFF AND PUSH4 0x370603F8 PUSH1 0x0 PUSH1 0x40 MLOAD DUP3 PUSH4 0xFFFFFFFF AND PUSH1 0xE0 SHL DUP2 MSTORE PUSH1 0x4 ADD PUSH3 0x1260 SWAP2 SWAP1 PUSH3 0x16E4 JUMP JUMPDEST PUSH1 0x0 PUSH1 0x40 MLOAD DUP1 DUP4 SUB DUP2 DUP7 GAS STATICCALL ISZERO DUP1 ISZERO PUSH3 0x127E JUMPI RETURNDATASIZE PUSH1 0x0 DUP1 RETURNDATACOPY RETURNDATASIZE PUSH1 0x0 REVERT JUMPDEST POP POP POP POP PUSH1 0x40 MLOAD RETURNDATASIZE PUSH1 0x0 DUP3 RETURNDATACOPY RETURNDATASIZE PUSH1 0x1F NOT PUSH1 0x1F DUP3 ADD AND DUP3 ADD DUP1 PUSH1 0x40 MSTORE POP DUP2 ADD SWAP1 PUSH3 0x12A9 SWAP2 SWAP1 PUSH3 0x1E14 JUMP JUMPDEST SWAP5 POP POP POP POP POP PUSH20 0x0 PUSH4 0xABCD7960 DUP3 MLOAD PUSH1 0x2 PUSH1 0x40 MLOAD DUP4 PUSH4 0xFFFFFFFF AND PUSH1 0xE0 SHL DUP2 MSTORE PUSH1 0x4 ADD PUSH3 0x12EC SWAP3 SWAP2 SWAP1 PUSH3 0x270E JUMP JUMPDEST PUSH1 0x20 PUSH1 0x40 MLOAD DUP1 DUP4 SUB DUP2 DUP7 GAS DELEGATECALL ISZERO DUP1 ISZERO PUSH3 0x130A JUMPI RETURNDATASIZE PUSH1 0x0 DUP1 RETURNDATACOPY RETURNDATASIZE PUSH1 0x0 REVERT JUMPDEST POP POP POP POP PUSH1 0x40 MLOAD RETURNDATASIZE PUSH1 0x1F NOT PUSH1 0x1F DUP3 ADD AND DUP3 ADD DUP1 PUSH1 0x40 MSTORE POP DUP2 ADD SWAP1 PUSH3 0x1330 SWAP2 SWAP1 PUSH3 0x1752 JUMP JUMPDEST POP PUSH1 0x0 DUP1 SLOAD SWAP1 PUSH2 0x100 EXP SWAP1 DIV PUSH20 0xFFFFFFFFFFFFFFFFFFFFFFFFFFFFFFFFFFFFFFFF AND PUSH20 0xFFFFFFFFFFFFFFFFFFFFFFFFFFFFFFFFFFFFFFFF AND PUSH4 0x2F20FB59 PUSH1 0x0 PUSH1 0x1 PUSH1 0x40 MLOAD DUP4 PUSH4 0xFFFFFFFF AND PUSH1 0xE0 SHL DUP2 MSTORE PUSH1 0x4 ADD PUSH3 0x1390 SWAP3 SWAP2 SWAP1 PUSH3 0x25D9 JUMP JUMPDEST PUSH1 0x0 PUSH1 0x40 MLOAD DUP1 DUP4 SUB DUP2 PUSH1 0x0 DUP8 DUP1 EXTCODESIZE ISZERO DUP1 ISZERO PUSH3 0x13AB JUMPI PUSH1 0x0 DUP1 REVERT JUMPDEST POP GAS CALL ISZERO DUP1 ISZERO PUSH3 0x13C0 JUMPI RETURNDATASIZE PUSH1 0x0 DUP1 RETURNDATACOPY RETURNDATASIZE PUSH1 0x0 REVERT JUMPDEST POP POP POP POP PUSH1 0x0 DUP1 PUSH1 0x0 SWAP1 SLOAD SWAP1 PUSH2 0x100 EXP SWAP1 DIV PUSH20 0xFFFFFFFFFFFFFFFFFFFFFFFFFFFFFFFFFFFFFFFF AND PUSH20 0xFFFFFFFFFFFFFFFFFFFFFFFFFFFFFFFFFFFFFFFF AND PUSH4 0x370603F8 PUSH1 0x0 PUSH1 0x40 MLOAD DUP3 PUSH4 0xFFFFFFFF AND PUSH1 0xE0 SHL DUP2 MSTORE PUSH1 0x4 ADD PUSH3 0x1423 SWAP2 SWAP1 PUSH3 0x16E4 JUMP JUMPDEST PUSH1 0x0 PUSH1 0x40 MLOAD DUP1 DUP4 SUB DUP2 DUP7 GAS STATICCALL ISZERO DUP1 ISZERO PUSH3 0x1441 JUMPI RETURNDATASIZE PUSH1 0x0 DUP1 RETURNDATACOPY RETURNDATASIZE PUSH1 0x0 REVERT JUMPDEST POP POP POP POP PUSH1 0x40 MLOAD RETURNDATASIZE PUSH1 0x0 DUP3 RETURNDATACOPY RETURNDATASIZE PUSH1 0x1F NOT PUSH1 0x1F DUP3 ADD AND DUP3 ADD DUP1 PUSH1 0x40 MSTORE POP DUP2 ADD SWAP1 PUSH3 0x146C SWAP2 SWAP1 PUSH3 0x1E14 JUMP JUMPDEST SWAP5 POP POP POP POP POP PUSH20 0x0 PUSH4 0xABCD7960 DUP3 MLOAD PUSH1 0x1 PUSH1 0x40 MLOAD DUP4 PUSH4 0xFFFFFFFF AND PUSH1 0xE0 SHL DUP2 MSTORE PUSH1 0x4 ADD PUSH3 0x14AF SWAP3 SWAP2 SWAP1 PUSH3 0x27FD JUMP JUMPDEST PUSH1 0x20 PUSH1 0x40 MLOAD DUP1 DUP4 SUB DUP2 DUP7 GAS DELEGATECALL ISZERO DUP1 ISZERO PUSH3 0x14CD JUMPI RETURNDATASIZE PUSH1 0x0 DUP1 RETURNDATACOPY RETURNDATASIZE PUSH1 0x0 REVERT JUMPDEST POP POP POP POP PUSH1 0x40 MLOAD RETURNDATASIZE PUSH1 0x1F NOT PUSH1 0x1F DUP3 ADD AND DUP3 ADD DUP1 PUSH1 0x40 MSTORE POP DUP2 ADD SWAP1 PUSH3 0x14F3 SWAP2 SWAP1 PUSH3 0x1752 JUMP JUMPDEST POP PUSH20 0x0 PUSH4 0xABCD7960 DUP3 PUSH1 0x0 DUP2 MLOAD DUP2 LT PUSH3 0x1525 JUMPI PUSH3 0x1524 PUSH3 0x283F JUMP JUMPDEST JUMPDEST PUSH1 0x20 MUL PUSH1 0x20 ADD ADD MLOAD PUSH1 0x2 PUSH1 0x40 MLOAD DUP4 PUSH4 0xFFFFFFFF AND PUSH1 0xE0 SHL DUP2 MSTORE PUSH1 0x4 ADD PUSH3 0x154E SWAP3 SWAP2 SWAP1 PUSH3 0x28E4 JUMP JUMPDEST PUSH1 0x20 PUSH1 0x40 MLOAD DUP1 DUP4 SUB DUP2 DUP7 GAS DELEGATECALL ISZERO DUP1 ISZERO PUSH3 0x156C JUMPI RETURNDATASIZE PUSH1 0x0 DUP1 RETURNDATACOPY RETURNDATASIZE PUSH1 0x0 REVERT JUMPDEST POP POP POP POP PUSH1 0x40 MLOAD RETURNDATASIZE PUSH1 0x1F NOT PUSH1 0x1F DUP3 ADD AND DUP3 ADD DUP1 PUSH1 0x40 MSTORE POP DUP2 ADD SWAP1 PUSH3 0x1592 SWAP2 SWAP1 PUSH3 0x1752 JUMP JUMPDEST POP POP POP JUMP JUMPDEST PUSH2 0x2275 DUP1 PUSH3 0x2927 DUP4 CODECOPY ADD SWAP1 JUMP JUMPDEST PUSH1 0x0 DUP3 DUP3 MSTORE PUSH1 0x20 DUP3 ADD SWAP1 POP SWAP3 SWAP2 POP POP JUMP JUMPDEST PUSH32 0x5465737420436F6D6D756E697479000000000000000000000000000000000000 PUSH1 0x0 DUP3 ADD MSTORE POP JUMP JUMPDEST PUSH1 0x0 PUSH3 0x15EE PUSH1 0xE DUP4 PUSH3 0x15A5 JUMP JUMPDEST SWAP2 POP PUSH3 0x15FB DUP3 PUSH3 0x15B6 JUMP JUMPDEST PUSH1 0x20 DUP3 ADD SWAP1 POP SWAP2 SWAP1 POP JUMP JUMPDEST PUSH32 0x546869732069732061207465737420636F6D6D756E6974790000000000000000 PUSH1 0x0 DUP3 ADD MSTORE POP JUMP JUMPDEST PUSH1 0x0 PUSH3 0x163E PUSH1 0x18 DUP4 PUSH3 0x15A5 JUMP JUMPDEST SWAP2 POP PUSH3 0x164B DUP3 PUSH3 0x1606 JUMP JUMPDEST PUSH1 0x20 DUP3 ADD SWAP1 POP SWAP2 SWAP1 POP JUMP JUMPDEST PUSH1 0x0 PUSH1 0x40 DUP3 ADD SWAP1 POP DUP2 DUP2 SUB PUSH1 0x0 DUP4 ADD MSTORE PUSH3 0x1671 DUP2 PUSH3 0x15DF JUMP JUMPDEST SWAP1 POP DUP2 DUP2 SUB PUSH1 0x20 DUP4 ADD MSTORE PUSH3 0x1686 DUP2 PUSH3 0x162F JUMP JUMPDEST SWAP1 POP SWAP2 SWAP1 POP JUMP JUMPDEST PUSH1 0x0 DUP2 SWAP1 POP SWAP2 SWAP1 POP JUMP JUMPDEST PUSH1 0x0 DUP2 SWAP1 POP SWAP2 SWAP1 POP JUMP JUMPDEST PUSH1 0x0 DUP2 SWAP1 POP SWAP2 SWAP1 POP JUMP JUMPDEST PUSH1 0x0 PUSH3 0x16CC PUSH3 0x16C6 PUSH3 0x16C0 DUP5 PUSH3 0x168D JUMP JUMPDEST PUSH3 0x16A1 JUMP JUMPDEST PUSH3 0x1697 JUMP JUMPDEST SWAP1 POP SWAP2 SWAP1 POP JUMP JUMPDEST PUSH3 0x16DE DUP2 PUSH3 0x16AB JUMP JUMPDEST DUP3 MSTORE POP POP JUMP JUMPDEST PUSH1 0x0 PUSH1 0x20 DUP3 ADD SWAP1 POP PUSH3 0x16FB PUSH1 0x0 DUP4 ADD DUP5 PUSH3 0x16D3 JUMP JUMPDEST SWAP3 SWAP2 POP POP JUMP JUMPDEST PUSH1 0x0 PUSH1 0x40 MLOAD SWAP1 POP SWAP1 JUMP JUMPDEST PUSH1 0x0 DUP1 REVERT JUMPDEST PUSH1 0x0 DUP1 REVERT JUMPDEST PUSH1 0x0 DUP2 ISZERO ISZERO SWAP1 POP SWAP2 SWAP1 POP JUMP JUMPDEST PUSH3 0x172C DUP2 PUSH3 0x1715 JUMP JUMPDEST DUP2 EQ PUSH3 0x1738 JUMPI PUSH1 0x0 DUP1 REVERT JUMPDEST POP JUMP JUMPDEST PUSH1 0x0 DUP2 MLOAD SWAP1 POP PUSH3 0x174C DUP2 PUSH3 0x1721 JUMP JUMPDEST SWAP3 SWAP2 POP POP JUMP JUMPDEST PUSH1 0x0 PUSH1 0x20 DUP3 DUP5 SUB SLT ISZERO PUSH3 0x176B JUMPI PUSH3 0x176A PUSH3 0x170B JUMP JUMPDEST JUMPDEST PUSH1 0x0 PUSH3 0x177B DUP5 DUP3 DUP6 ADD PUSH3 0x173B JUMP JUMPDEST SWAP2 POP POP SWAP3 SWAP2 POP POP JUMP JUMPDEST PUSH3 0x178F DUP2 PUSH3 0x1715 JUMP JUMPDEST DUP3 MSTORE POP POP JUMP JUMPDEST PUSH1 0x0 DUP3 DUP3 MSTORE PUSH1 0x20 DUP3 ADD SWAP1 POP SWAP3 SWAP2 POP POP JUMP JUMPDEST PUSH32 0x54686520636F6D6D756E6974792073686F756C642062652064697361626C6564 PUSH1 0x0 DUP3 ADD MSTORE POP JUMP JUMPDEST PUSH1 0x0 PUSH3 0x17DE PUSH1 0x20 DUP4 PUSH3 0x1795 JUMP JUMPDEST SWAP2 POP PUSH3 0x17EB DUP3 PUSH3 0x17A6 JUMP JUMPDEST PUSH1 0x20 DUP3 ADD SWAP1 POP SWAP2 SWAP1 POP JUMP JUMPDEST PUSH1 0x0 PUSH1 0x60 DUP3 ADD SWAP1 POP PUSH3 0x180D PUSH1 0x0 DUP4 ADD DUP6 PUSH3 0x1784 JUMP JUMPDEST PUSH3 0x181C PUSH1 0x20 DUP4 ADD DUP5 PUSH3 0x1784 JUMP JUMPDEST DUP2 DUP2 SUB PUSH1 0x40 DUP4 ADD MSTORE PUSH3 0x182F DUP2 PUSH3 0x17CF JUMP JUMPDEST SWAP1 POP SWAP4 SWAP3 POP POP POP JUMP JUMPDEST PUSH32 0x54686520636F6D6D756E6974792073686F756C6420626520656E61626C656400 PUSH1 0x0 DUP3 ADD MSTORE POP JUMP JUMPDEST PUSH1 0x0 PUSH3 0x1870 PUSH1 0x1F DUP4 PUSH3 0x1795 JUMP JUMPDEST SWAP2 POP PUSH3 0x187D DUP3 PUSH3 0x1838 JUMP JUMPDEST PUSH1 0x20 DUP3 ADD SWAP1 POP SWAP2 SWAP1 POP JUMP JUMPDEST PUSH1 0x0 PUSH1 0x60 DUP3 ADD SWAP1 POP PUSH3 0x189F PUSH1 0x0 DUP4 ADD DUP6 PUSH3 0x1784 JUMP JUMPDEST PUSH3 0x18AE PUSH1 0x20 DUP4 ADD DUP5 PUSH3 0x1784 JUMP JUMPDEST DUP2 DUP2 SUB PUSH1 0x40 DUP4 ADD MSTORE PUSH3 0x18C1 DUP2 PUSH3 0x1861 JUMP JUMPDEST SWAP1 POP SWAP4 SWAP3 POP POP POP JUMP JUMPDEST PUSH32 0x55706461746564205465737420436F6D6D756E69747900000000000000000000 PUSH1 0x0 DUP3 ADD MSTORE POP JUMP JUMPDEST PUSH1 0x0 PUSH3 0x1902 PUSH1 0x16 DUP4 PUSH3 0x15A5 JUMP JUMPDEST SWAP2 POP PUSH3 0x190F DUP3 PUSH3 0x18CA JUMP JUMPDEST PUSH1 0x20 DUP3 ADD SWAP1 POP SWAP2 SWAP1 POP JUMP JUMPDEST PUSH32 0x5468697320697320616E2075706461746564207465737420636F6D6D756E6974 PUSH1 0x0 DUP3 ADD MSTORE PUSH32 0x7900000000000000000000000000000000000000000000000000000000000000 PUSH1 0x20 DUP3 ADD MSTORE POP JUMP JUMPDEST PUSH1 0x0 PUSH3 0x1978 PUSH1 0x21 DUP4 PUSH3 0x15A5 JUMP JUMPDEST SWAP2 POP PUSH3 0x1985 DUP3 PUSH3 0x191A JUMP JUMPDEST PUSH1 0x40 DUP3 ADD SWAP1 POP SWAP2 SWAP1 POP JUMP JUMPDEST PUSH1 0x0 PUSH1 0x60 DUP3 ADD SWAP1 POP PUSH3 0x19A7 PUSH1 0x0 DUP4 ADD DUP5 PUSH3 0x16D3 JUMP JUMPDEST DUP2 DUP2 SUB PUSH1 0x20 DUP4 ADD MSTORE PUSH3 0x19BA DUP2 PUSH3 0x18F3 JUMP JUMPDEST SWAP1 POP DUP2 DUP2 SUB PUSH1 0x40 DUP4 ADD MSTORE PUSH3 0x19CF DUP2 PUSH3 0x1969 JUMP JUMPDEST SWAP1 POP SWAP3 SWAP2 POP POP JUMP JUMPDEST PUSH1 0x0 DUP2 PUSH1 0xE0 SHR SWAP1 POP SWAP2 SWAP1 POP JUMP JUMPDEST PUSH1 0x0 PUSH1 0x3 RETURNDATASIZE GT ISZERO PUSH3 0x1A06 JUMPI PUSH1 0x4 PUSH1 0x0 DUP1 RETURNDATACOPY PUSH3 0x1A03 PUSH1 0x0 MLOAD PUSH3 0x19D7 JUMP JUMPDEST SWAP1 POP JUMPDEST SWAP1 JUMP JUMPDEST PUSH1 0x0 PUSH1 0x1F NOT PUSH1 0x1F DUP4 ADD AND SWAP1 POP SWAP2 SWAP1 POP JUMP JUMPDEST PUSH32 0x4E487B7100000000000000000000000000000000000000000000000000000000 PUSH1 0x0 MSTORE PUSH1 0x41 PUSH1 0x4 MSTORE PUSH1 0x24 PUSH1 0x0 REVERT JUMPDEST PUSH3 0x1A54 DUP3 PUSH3 0x1A09 JUMP JUMPDEST DUP2 ADD DUP2 DUP2 LT PUSH8 0xFFFFFFFFFFFFFFFF DUP3 GT OR ISZERO PUSH3 0x1A76 JUMPI PUSH3 0x1A75 PUSH3 0x1A1A JUMP JUMPDEST JUMPDEST DUP1 PUSH1 0x40 MSTORE POP POP POP JUMP JUMPDEST PUSH1 0x0 PUSH1 0x44 RETURNDATASIZE LT PUSH3 0x1B17 JUMPI PUSH3 0x1A94 PUSH3 0x1701 JUMP JUMPDEST PUSH1 0x4 RETURNDATASIZE SUB PUSH1 0x4 DUP3 RETURNDATACOPY DUP1 MLOAD RETURNDATASIZE PUSH1 0x24 DUP3 ADD GT PUSH8 0xFFFFFFFFFFFFFFFF DUP3 GT OR ISZERO PUSH3 0x1ABE JUMPI POP POP PUSH3 0x1B17 JUMP JUMPDEST DUP1 DUP3 ADD DUP1 MLOAD PUSH8 0xFFFFFFFFFFFFFFFF DUP2 GT ISZERO PUSH3 0x1ADE JUMPI POP POP POP POP PUSH3 0x1B17 JUMP JUMPDEST DUP1 PUSH1 0x20 DUP4 ADD ADD PUSH1 0x4 RETURNDATASIZE SUB DUP6 ADD DUP2 GT ISZERO PUSH3 0x1AFD JUMPI POP POP POP POP POP PUSH3 0x1B17 JUMP JUMPDEST PUSH3 0x1B0E DUP3 PUSH1 0x20 ADD DUP6 ADD DUP7 PUSH3 0x1A49 JUMP JUMPDEST DUP3 SWAP6 POP POP POP POP POP POP JUMPDEST SWAP1 JUMP JUMPDEST PUSH1 0x0 DUP2 MLOAD SWAP1 POP SWAP2 SWAP1 POP JUMP JUMPDEST PUSH1 0x0 JUMPDEST DUP4 DUP2 LT ISZERO PUSH3 0x1B45 JUMPI DUP1 DUP3 ADD MLOAD DUP2 DUP5 ADD MSTORE PUSH1 0x20 DUP2 ADD SWAP1 POP PUSH3 0x1B28 JUMP JUMPDEST PUSH1 0x0 DUP5 DUP5 ADD MSTORE POP POP POP POP JUMP JUMPDEST PUSH1 0x0 PUSH3 0x1B5E DUP3 PUSH3 0x1B1A JUMP JUMPDEST PUSH3 0x1B6A DUP2 DUP6 PUSH3 0x1795 JUMP JUMPDEST SWAP4 POP PUSH3 0x1B7C DUP2 DUP6 PUSH1 0x20 DUP7 ADD PUSH3 0x1B25 JUMP JUMPDEST PUSH3 0x1B87 DUP2 PUSH3 0x1A09 JUMP JUMPDEST DUP5 ADD SWAP2 POP POP SWAP3 SWAP2 POP POP JUMP JUMPDEST PUSH1 0x0 PUSH1 0x40 DUP3 ADD SWAP1 POP PUSH3 0x1BA9 PUSH1 0x0 DUP4 ADD DUP6 PUSH3 0x1784 JUMP JUMPDEST DUP2 DUP2 SUB PUSH1 0x20 DUP4 ADD MSTORE PUSH3 0x1BBD DUP2 DUP5 PUSH3 0x1B51 JUMP JUMPDEST SWAP1 POP SWAP4 SWAP3 POP POP POP JUMP JUMPDEST PUSH1 0x0 DUP1 REVERT JUMPDEST PUSH1 0x0 DUP1 REVERT JUMPDEST PUSH1 0x0 PUSH3 0x1BDC PUSH3 0x1701 JUMP JUMPDEST SWAP1 POP PUSH3 0x1BEA DUP3 DUP3 PUSH3 0x1A49 JUMP JUMPDEST SWAP2 SWAP1 POP JUMP JUMPDEST PUSH1 0x0 PUSH8 0xFFFFFFFFFFFFFFFF DUP3 GT ISZERO PUSH3 0x1C0D JUMPI PUSH3 0x1C0C PUSH3 0x1A1A JUMP JUMPDEST JUMPDEST PUSH3 0x1C18 DUP3 PUSH3 0x1A09 JUMP JUMPDEST SWAP1 POP PUSH1 0x20 DUP2 ADD SWAP1 POP SWAP2 SWAP1 POP JUMP JUMPDEST PUSH1 0x0 PUSH3 0x1C3C PUSH3 0x1C36 DUP5 PUSH3 0x1BEF JUMP JUMPDEST PUSH3 0x1BD0 JUMP JUMPDEST SWAP1 POP DUP3 DUP2 MSTORE PUSH1 0x20 DUP2 ADD DUP5 DUP5 DUP5 ADD GT ISZERO PUSH3 0x1C5B JUMPI PUSH3 0x1C5A PUSH3 0x1BCB JUMP JUMPDEST JUMPDEST PUSH3 0x1C68 DUP5 DUP3 DUP6 PUSH3 0x1B25 JUMP JUMPDEST POP SWAP4 SWAP3 POP POP POP JUMP JUMPDEST PUSH1 0x0 DUP3 PUSH1 0x1F DUP4 ADD SLT PUSH3 0x1C88 JUMPI PUSH3 0x1C87 PUSH3 0x1BC6 JUMP JUMPDEST JUMPDEST DUP2 MLOAD PUSH3 0x1C9A DUP5 DUP3 PUSH1 0x20 DUP7 ADD PUSH3 0x1C25 JUMP JUMPDEST SWAP2 POP POP SWAP3 SWAP2 POP POP JUMP JUMPDEST PUSH1 0x0 PUSH20 0xFFFFFFFFFFFFFFFFFFFFFFFFFFFFFFFFFFFFFFFF DUP3 AND SWAP1 POP SWAP2 SWAP1 POP JUMP JUMPDEST PUSH1 0x0 PUSH3 0x1CD0 DUP3 PUSH3 0x1CA3 JUMP JUMPDEST SWAP1 POP SWAP2 SWAP1 POP JUMP JUMPDEST PUSH3 0x1CE2 DUP2 PUSH3 0x1CC3 JUMP JUMPDEST DUP2 EQ PUSH3 0x1CEE JUMPI PUSH1 0x0 DUP1 REVERT JUMPDEST POP JUMP JUMPDEST PUSH1 0x0 DUP2 MLOAD SWAP1 POP PUSH3 0x1D02 DUP2 PUSH3 0x1CD7 JUMP JUMPDEST SWAP3 SWAP2 POP POP JUMP JUMPDEST PUSH1 0x0 PUSH8 0xFFFFFFFFFFFFFFFF DUP3 GT ISZERO PUSH3 0x1D26 JUMPI PUSH3 0x1D25 PUSH3 0x1A1A JUMP JUMPDEST JUMPDEST PUSH1 0x20 DUP3 MUL SWAP1 POP PUSH1 0x20 DUP2 ADD SWAP1 POP SWAP2 SWAP1 POP JUMP JUMPDEST PUSH1 0x0 DUP1 REVERT JUMPDEST PUSH3 0x1D47 DUP2 PUSH3 0x1697 JUMP JUMPDEST DUP2 EQ PUSH3 0x1D53 JUMPI PUSH1 0x0 DUP1 REVERT JUMPDEST POP JUMP JUMPDEST PUSH1 0x0 DUP2 MLOAD SWAP1 POP PUSH3 0x1D67 DUP2 PUSH3 0x1D3C JUMP JUMPDEST SWAP3 SWAP2 POP POP JUMP JUMPDEST PUSH1 0x0 PUSH3 0x1D84 PUSH3 0x1D7E DUP5 PUSH3 0x1D08 JUMP JUMPDEST PUSH3 0x1BD0 JUMP JUMPDEST SWAP1 POP DUP1 DUP4 DUP3 MSTORE PUSH1 0x20 DUP3 ADD SWAP1 POP PUSH1 0x20 DUP5 MUL DUP4 ADD DUP6 DUP2 GT ISZERO PUSH3 0x1DAA JUMPI PUSH3 0x1DA9 PUSH3 0x1D37 JUMP JUMPDEST JUMPDEST DUP4 JUMPDEST DUP2 DUP2 LT ISZERO PUSH3 0x1DD7 JUMPI DUP1 PUSH3 0x1DC2 DUP9 DUP3 PUSH3 0x1D56 JUMP JUMPDEST DUP5 MSTORE PUSH1 0x20 DUP5 ADD SWAP4 POP POP PUSH1 0x20 DUP2 ADD SWAP1 POP PUSH3 0x1DAC JUMP JUMPDEST POP POP POP SWAP4 SWAP3 POP POP POP JUMP JUMPDEST PUSH1 0x0 DUP3 PUSH1 0x1F DUP4 ADD SLT PUSH3 0x1DF9 JUMPI PUSH3 0x1DF8 PUSH3 0x1BC6 JUMP JUMPDEST JUMPDEST DUP2 MLOAD PUSH3 0x1E0B DUP5 DUP3 PUSH1 0x20 DUP7 ADD PUSH3 0x1D6D JUMP JUMPDEST SWAP2 POP POP SWAP3 SWAP2 POP POP JUMP JUMPDEST PUSH1 0x0 DUP1 PUSH1 0x0 DUP1 PUSH1 0x0 PUSH1 0xA0 DUP7 DUP9 SUB SLT ISZERO PUSH3 0x1E33 JUMPI PUSH3 0x1E32 PUSH3 0x170B JUMP JUMPDEST JUMPDEST PUSH1 0x0 DUP7 ADD MLOAD PUSH8 0xFFFFFFFFFFFFFFFF DUP2 GT ISZERO PUSH3 0x1E54 JUMPI PUSH3 0x1E53 PUSH3 0x1710 JUMP JUMPDEST JUMPDEST PUSH3 0x1E62 DUP9 DUP3 DUP10 ADD PUSH3 0x1C70 JUMP JUMPDEST SWAP6 POP POP PUSH1 0x20 DUP7 ADD MLOAD PUSH8 0xFFFFFFFFFFFFFFFF DUP2 GT ISZERO PUSH3 0x1E86 JUMPI PUSH3 0x1E85 PUSH3 0x1710 JUMP JUMPDEST JUMPDEST PUSH3 0x1E94 DUP9 DUP3 DUP10 ADD PUSH3 0x1C70 JUMP JUMPDEST SWAP5 POP POP PUSH1 0x40 PUSH3 0x1EA7 DUP9 DUP3 DUP10 ADD PUSH3 0x1CF1 JUMP JUMPDEST SWAP4 POP POP PUSH1 0x60 PUSH3 0x1EBA DUP9 DUP3 DUP10 ADD PUSH3 0x173B JUMP JUMPDEST SWAP3 POP POP PUSH1 0x80 DUP7 ADD MLOAD PUSH8 0xFFFFFFFFFFFFFFFF DUP2 GT ISZERO PUSH3 0x1EDE JUMPI PUSH3 0x1EDD PUSH3 0x1710 JUMP JUMPDEST JUMPDEST PUSH3 0x1EEC DUP9 DUP3 DUP10 ADD PUSH3 0x1DE1 JUMP JUMPDEST SWAP2 POP POP SWAP3 SWAP6 POP SWAP3 SWAP6 SWAP1 SWAP4 POP JUMP JUMPDEST PUSH1 0x0 PUSH3 0x1F08 PUSH1 0x16 DUP4 PUSH3 0x1795 JUMP JUMPDEST SWAP2 POP PUSH3 0x1F15 DUP3 PUSH3 0x18CA JUMP JUMPDEST PUSH1 0x20 DUP3 ADD SWAP1 POP SWAP2 SWAP1 POP JUMP JUMPDEST PUSH32 0x54686520636F6D6D756E697479206E616D652073686F756C64206D6174636820 PUSH1 0x0 DUP3 ADD MSTORE PUSH32 0x7468652075706461746564206E616D6500000000000000000000000000000000 PUSH1 0x20 DUP3 ADD MSTORE POP JUMP JUMPDEST PUSH1 0x0 PUSH3 0x1F7E PUSH1 0x30 DUP4 PUSH3 0x1795 JUMP JUMPDEST SWAP2 POP PUSH3 0x1F8B DUP3 PUSH3 0x1F20 JUMP JUMPDEST PUSH1 0x40 DUP3 ADD SWAP1 POP SWAP2 SWAP1 POP JUMP JUMPDEST PUSH1 0x0 PUSH1 0x60 DUP3 ADD SWAP1 POP DUP2 DUP2 SUB PUSH1 0x0 DUP4 ADD MSTORE PUSH3 0x1FB2 DUP2 DUP5 PUSH3 0x1B51 JUMP JUMPDEST SWAP1 POP DUP2 DUP2 SUB PUSH1 0x20 DUP4 ADD MSTORE PUSH3 0x1FC7 DUP2 PUSH3 0x1EF9 JUMP JUMPDEST SWAP1 POP DUP2 DUP2 SUB PUSH1 0x40 DUP4 ADD MSTORE PUSH3 0x1FDC DUP2 PUSH3 0x1F6F JUMP JUMPDEST SWAP1 POP SWAP3 SWAP2 POP POP JUMP JUMPDEST PUSH1 0x0 PUSH3 0x1FF3 PUSH1 0x21 DUP4 PUSH3 0x1795 JUMP JUMPDEST SWAP2 POP PUSH3 0x2000 DUP3 PUSH3 0x191A JUMP JUMPDEST PUSH1 0x40 DUP3 ADD SWAP1 POP SWAP2 SWAP1 POP JUMP JUMPDEST PUSH32 0x54686520636F6D6D756E697479206465736372697074696F6E2073686F756C64 PUSH1 0x0 DUP3 ADD MSTORE PUSH32 0x206D61746368207468652075706461746564206465736372697074696F6E0000 PUSH1 0x20 DUP3 ADD MSTORE POP JUMP JUMPDEST PUSH1 0x0 PUSH3 0x2069 PUSH1 0x3E DUP4 PUSH3 0x1795 JUMP JUMPDEST SWAP2 POP PUSH3 0x2076 DUP3 PUSH3 0x200B JUMP JUMPDEST PUSH1 0x40 DUP3 ADD SWAP1 POP SWAP2 SWAP1 POP JUMP JUMPDEST PUSH1 0x0 PUSH1 0x60 DUP3 ADD SWAP1 POP DUP2 DUP2 SUB PUSH1 0x0 DUP4 ADD MSTORE PUSH3 0x209D DUP2 DUP5 PUSH3 0x1B51 JUMP JUMPDEST SWAP1 POP DUP2 DUP2 SUB PUSH1 0x20 DUP4 ADD MSTORE PUSH3 0x20B2 DUP2 PUSH3 0x1FE4 JUMP JUMPDEST SWAP1 POP DUP2 DUP2 SUB PUSH1 0x40 DUP4 ADD MSTORE PUSH3 0x20C7 DUP2 PUSH3 0x205A JUMP JUMPDEST SWAP1 POP SWAP3 SWAP2 POP POP JUMP JUMPDEST PUSH32 0x54686520636F6E74726163742073686F756C64206E6F74206265207061757365 PUSH1 0x0 DUP3 ADD MSTORE PUSH32 0x64206265666F72652070617573696E6700000000000000000000000000000000 PUSH1 0x20 DUP3 ADD MSTORE POP JUMP JUMPDEST PUSH1 0x0 PUSH3 0x212D PUSH1 0x30 DUP4 PUSH3 0x1795 JUMP JUMPDEST SWAP2 POP PUSH3 0x213A DUP3 PUSH3 0x20CF JUMP JUMPDEST PUSH1 0x40 DUP3 ADD SWAP1 POP SWAP2 SWAP1 POP JUMP JUMPDEST PUSH1 0x0 PUSH1 0x60 DUP3 ADD SWAP1 POP PUSH3 0x215C PUSH1 0x0 DUP4 ADD DUP6 PUSH3 0x1784 JUMP JUMPDEST PUSH3 0x216B PUSH1 0x20 DUP4 ADD DUP5 PUSH3 0x1784 JUMP JUMPDEST DUP2 DUP2 SUB PUSH1 0x40 DUP4 ADD MSTORE PUSH3 0x217E DUP2 PUSH3 0x211E JUMP JUMPDEST SWAP1 POP SWAP4 SWAP3 POP POP POP JUMP JUMPDEST PUSH32 0x54686520636F6E74726163742073686F756C6420626520706175736564206166 PUSH1 0x0 DUP3 ADD MSTORE PUSH32 0x7465722070617573696E67000000000000000000000000000000000000000000 PUSH1 0x20 DUP3 ADD MSTORE POP JUMP JUMPDEST PUSH1 0x0 PUSH3 0x21E5 PUSH1 0x2B DUP4 PUSH3 0x1795 JUMP JUMPDEST SWAP2 POP PUSH3 0x21F2 DUP3 PUSH3 0x2187 JUMP JUMPDEST PUSH1 0x40 DUP3 ADD SWAP1 POP SWAP2 SWAP1 POP JUMP JUMPDEST PUSH1 0x0 PUSH1 0x60 DUP3 ADD SWAP1 POP PUSH3 0x2214 PUSH1 0x0 DUP4 ADD DUP6 PUSH3 0x1784 JUMP JUMPDEST PUSH3 0x2223 PUSH1 0x20 DUP4 ADD DUP5 PUSH3 0x1784 JUMP JUMPDEST DUP2 DUP2 SUB PUSH1 0x40 DUP4 ADD MSTORE PUSH3 0x2236 DUP2 PUSH3 0x21D6 JUMP JUMPDEST SWAP1 POP SWAP4 SWAP3 POP POP POP JUMP JUMPDEST PUSH32 0x54686520636F6E74726163742073686F756C64206E6F74206265207061757365 PUSH1 0x0 DUP3 ADD MSTORE PUSH32 0x6420616674657220756E70617573696E67000000000000000000000000000000 PUSH1 0x20 DUP3 ADD MSTORE POP JUMP JUMPDEST PUSH1 0x0 PUSH3 0x229D PUSH1 0x31 DUP4 PUSH3 0x1795 JUMP JUMPDEST SWAP2 POP PUSH3 0x22AA DUP3 PUSH3 0x223F JUMP JUMPDEST PUSH1 0x40 DUP3 ADD SWAP1 POP SWAP2 SWAP1 POP JUMP JUMPDEST PUSH1 0x0 PUSH1 0x60 DUP3 ADD SWAP1 POP PUSH3 0x22CC PUSH1 0x0 DUP4 ADD DUP6 PUSH3 0x1784 JUMP JUMPDEST PUSH3 0x22DB PUSH1 0x20 DUP4 ADD DUP5 PUSH3 0x1784 JUMP JUMPDEST DUP2 DUP2 SUB PUSH1 0x40 DUP4 ADD MSTORE PUSH3 0x22EE DUP2 PUSH3 0x228E JUMP JUMPDEST SWAP1 POP SWAP4 SWAP3 POP POP POP JUMP JUMPDEST PUSH1 0x0 PUSH3 0x2306 PUSH1 0xE DUP4 PUSH3 0x1795 JUMP JUMPDEST SWAP2 POP PUSH3 0x2313 DUP3 PUSH3 0x15B6 JUMP JUMPDEST PUSH1 0x20 DUP3 ADD SWAP1 POP SWAP2 SWAP1 POP JUMP JUMPDEST PUSH32 0x54686520636F6D6D756E697479206E616D652073686F756C64206D6174636820 PUSH1 0x0 DUP3 ADD MSTORE PUSH32 0x74686520696E7075740000000000000000000000000000000000000000000000 PUSH1 0x20 DUP3 ADD MSTORE POP JUMP JUMPDEST PUSH1 0x0 PUSH3 0x237C PUSH1 0x29 DUP4 PUSH3 0x1795 JUMP JUMPDEST SWAP2 POP PUSH3 0x2389 DUP3 PUSH3 0x231E JUMP JUMPDEST PUSH1 0x40 DUP3 ADD SWAP1 POP SWAP2 SWAP1 POP JUMP JUMPDEST PUSH1 0x0 PUSH1 0x60 DUP3 ADD SWAP1 POP DUP2 DUP2 SUB PUSH1 0x0 DUP4 ADD MSTORE PUSH3 0x23B0 DUP2 DUP5 PUSH3 0x1B51 JUMP JUMPDEST SWAP1 POP DUP2 DUP2 SUB PUSH1 0x20 DUP4 ADD MSTORE PUSH3 0x23C5 DUP2 PUSH3 0x22F7 JUMP JUMPDEST SWAP1 POP DUP2 DUP2 SUB PUSH1 0x40 DUP4 ADD MSTORE PUSH3 0x23DA DUP2 PUSH3 0x236D JUMP JUMPDEST SWAP1 POP SWAP3 SWAP2 POP POP JUMP JUMPDEST PUSH1 0x0 PUSH3 0x23F1 PUSH1 0x18 DUP4 PUSH3 0x1795 JUMP JUMPDEST SWAP2 POP PUSH3 0x23FE DUP3 PUSH3 0x1606 JUMP JUMPDEST PUSH1 0x20 DUP3 ADD SWAP1 POP SWAP2 SWAP1 POP JUMP JUMPDEST PUSH32 0x54686520636F6D6D756E697479206465736372697074696F6E2073686F756C64 PUSH1 0x0 DUP3 ADD MSTORE PUSH32 0x206D617463682074686520696E70757400000000000000000000000000000000 PUSH1 0x20 DUP3 ADD MSTORE POP JUMP JUMPDEST PUSH1 0x0 PUSH3 0x2467 PUSH1 0x30 DUP4 PUSH3 0x1795 JUMP JUMPDEST SWAP2 POP PUSH3 0x2474 DUP3 PUSH3 0x2409 JUMP JUMPDEST PUSH1 0x40 DUP3 ADD SWAP1 POP SWAP2 SWAP1 POP JUMP JUMPDEST PUSH1 0x0 PUSH1 0x60 DUP3 ADD SWAP1 POP DUP2 DUP2 SUB PUSH1 0x0 DUP4 ADD MSTORE PUSH3 0x249B DUP2 DUP5 PUSH3 0x1B51 JUMP JUMPDEST SWAP1 POP DUP2 DUP2 SUB PUSH1 0x20 DUP4 ADD MSTORE PUSH3 0x24B0 DUP2 PUSH3 0x23E2 JUMP JUMPDEST SWAP1 POP DUP2 DUP2 SUB PUSH1 0x40 DUP4 ADD MSTORE PUSH3 0x24C5 DUP2 PUSH3 0x2458 JUMP JUMPDEST SWAP1 POP SWAP3 SWAP2 POP POP JUMP JUMPDEST PUSH3 0x24D8 DUP2 PUSH3 0x1CC3 JUMP JUMPDEST DUP3 MSTORE POP POP JUMP JUMPDEST PUSH32 0x54686520636F6D6D756E697479206F776E65722073686F756C64206265207468 PUSH1 0x0 DUP3 ADD MSTORE PUSH32 0x652073656E646572000000000000000000000000000000000000000000000000 PUSH1 0x20 DUP3 ADD MSTORE POP JUMP JUMPDEST PUSH1 0x0 PUSH3 0x253C PUSH1 0x28 DUP4 PUSH3 0x1795 JUMP JUMPDEST SWAP2 POP PUSH3 0x2549 DUP3 PUSH3 0x24DE JUMP JUMPDEST PUSH1 0x40 DUP3 ADD SWAP1 POP SWAP2 SWAP1 POP JUMP JUMPDEST PUSH1 0x0 PUSH1 0x60 DUP3 ADD SWAP1 POP PUSH3 0x256B PUSH1 0x0 DUP4 ADD DUP6 PUSH3 0x24CD JUMP JUMPDEST PUSH3 0x257A PUSH1 0x20 DUP4 ADD DUP5 PUSH3 0x24CD JUMP JUMPDEST DUP2 DUP2 SUB PUSH1 0x40 DUP4 ADD MSTORE PUSH3 0x258D DUP2 PUSH3 0x252D JUMP JUMPDEST SWAP1 POP SWAP4 SWAP3 POP POP POP JUMP JUMPDEST PUSH1 0x0 DUP2 SWAP1 POP SWAP2 SWAP1 POP JUMP JUMPDEST PUSH1 0x0 PUSH3 0x25C1 PUSH3 0x25BB PUSH3 0x25B5 DUP5 PUSH3 0x2596 JUMP JUMPDEST PUSH3 0x16A1 JUMP JUMPDEST PUSH3 0x1697 JUMP JUMPDEST SWAP1 POP SWAP2 SWAP1 POP JUMP JUMPDEST PUSH3 0x25D3 DUP2 PUSH3 0x25A0 JUMP JUMPDEST DUP3 MSTORE POP POP JUMP JUMPDEST PUSH1 0x0 PUSH1 0x40 DUP3 ADD SWAP1 POP PUSH3 0x25F0 PUSH1 0x0 DUP4 ADD DUP6 PUSH3 0x16D3 JUMP JUMPDEST PUSH3 0x25FF PUSH1 0x20 DUP4 ADD DUP5 PUSH3 0x25C8 JUMP JUMPDEST SWAP4 SWAP3 POP POP POP JUMP JUMPDEST PUSH1 0x0 DUP2 SWAP1 POP SWAP2 SWAP1 POP JUMP JUMPDEST PUSH1 0x0 PUSH3 0x2631 PUSH3 0x262B PUSH3 0x2625 DUP5 PUSH3 0x2606 JUMP JUMPDEST PUSH3 0x16A1 JUMP JUMPDEST PUSH3 0x1697 JUMP JUMPDEST SWAP1 POP SWAP2 SWAP1 POP JUMP JUMPDEST PUSH3 0x2643 DUP2 PUSH3 0x2610 JUMP JUMPDEST DUP3 MSTORE POP POP JUMP JUMPDEST PUSH1 0x0 PUSH1 0x40 DUP3 ADD SWAP1 POP PUSH3 0x2660 PUSH1 0x0 DUP4 ADD DUP6 PUSH3 0x16D3 JUMP JUMPDEST PUSH3 0x266F PUSH1 0x20 DUP4 ADD DUP5 PUSH3 0x2638 JUMP JUMPDEST SWAP4 SWAP3 POP POP POP JUMP JUMPDEST PUSH3 0x2681 DUP2 PUSH3 0x1697 JUMP JUMPDEST DUP3 MSTORE POP POP JUMP JUMPDEST PUSH3 0x2692 DUP2 PUSH3 0x2610 JUMP JUMPDEST DUP3 MSTORE POP POP JUMP JUMPDEST PUSH32 0x546865206E756D626572206F6620706F73742049447320696E2074686520636F PUSH1 0x0 DUP3 ADD MSTORE PUSH32 0x6D6D756E6974792073686F756C64206265203200000000000000000000000000 PUSH1 0x20 DUP3 ADD MSTORE POP JUMP JUMPDEST PUSH1 0x0 PUSH3 0x26F6 PUSH1 0x33 DUP4 PUSH3 0x1795 JUMP JUMPDEST SWAP2 POP PUSH3 0x2703 DUP3 PUSH3 0x2698 JUMP JUMPDEST PUSH1 0x40 DUP3 ADD SWAP1 POP SWAP2 SWAP1 POP JUMP JUMPDEST PUSH1 0x0 PUSH1 0x60 DUP3 ADD SWAP1 POP PUSH3 0x2725 PUSH1 0x0 DUP4 ADD DUP6 PUSH3 0x2676 JUMP JUMPDEST PUSH3 0x2734 PUSH1 0x20 DUP4 ADD DUP5 PUSH3 0x2687 JUMP JUMPDEST DUP2 DUP2 SUB PUSH1 0x40 DUP4 ADD MSTORE PUSH3 0x2747 DUP2 PUSH3 0x26E7 JUMP JUMPDEST SWAP1 POP SWAP4 SWAP3 POP POP POP JUMP JUMPDEST PUSH3 0x275B DUP2 PUSH3 0x25A0 JUMP JUMPDEST DUP3 MSTORE POP POP JUMP JUMPDEST PUSH32 0x546865206E756D626572206F6620706F73742049447320696E2074686520636F PUSH1 0x0 DUP3 ADD MSTORE PUSH32 0x6D6D756E6974792073686F756C6420626520312061667465722072656D6F7661 PUSH1 0x20 DUP3 ADD MSTORE PUSH32 0x6C00000000000000000000000000000000000000000000000000000000000000 PUSH1 0x40 DUP3 ADD MSTORE POP JUMP JUMPDEST PUSH1 0x0 PUSH3 0x27E5 PUSH1 0x41 DUP4 PUSH3 0x1795 JUMP JUMPDEST SWAP2 POP PUSH3 0x27F2 DUP3 PUSH3 0x2761 JUMP JUMPDEST PUSH1 0x60 DUP3 ADD SWAP1 POP SWAP2 SWAP1 POP JUMP JUMPDEST PUSH1 0x0 PUSH1 0x60 DUP3 ADD SWAP1 POP PUSH3 0x2814 PUSH1 0x0 DUP4 ADD DUP6 PUSH3 0x2676 JUMP JUMPDEST PUSH3 0x2823 PUSH1 0x20 DUP4 ADD DUP5 PUSH3 0x2750 JUMP JUMPDEST DUP2 DUP2 SUB PUSH1 0x40 DUP4 ADD MSTORE PUSH3 0x2836 DUP2 PUSH3 0x27D6 JUMP JUMPDEST SWAP1 POP SWAP4 SWAP3 POP POP POP JUMP JUMPDEST PUSH32 0x4E487B7100000000000000000000000000000000000000000000000000000000 PUSH1 0x0 MSTORE PUSH1 0x32 PUSH1 0x4 MSTORE PUSH1 0x24 PUSH1 0x0 REVERT JUMPDEST PUSH32 0x5468652072656D61696E696E6720706F737420494420696E2074686520636F6D PUSH1 0x0 DUP3 ADD MSTORE PUSH32 0x6D756E6974792073686F756C6420626520322061667465722072656D6F76616C PUSH1 0x20 DUP3 ADD MSTORE POP JUMP JUMPDEST PUSH1 0x0 PUSH3 0x28CC PUSH1 0x40 DUP4 PUSH3 0x1795 JUMP JUMPDEST SWAP2 POP PUSH3 0x28D9 DUP3 PUSH3 0x286E JUMP JUMPDEST PUSH1 0x40 DUP3 ADD SWAP1 POP SWAP2 SWAP1 POP JUMP JUMPDEST PUSH1 0x0 PUSH1 0x60 DUP3 ADD SWAP1 POP PUSH3 0x28FB PUSH1 0x0 DUP4 ADD DUP6 PUSH3 0x2676 JUMP JUMPDEST PUSH3 0x290A PUSH1 0x20 DUP4 ADD DUP5 PUSH3 0x2687 JUMP JUMPDEST DUP2 DUP2 SUB PUSH1 0x40 DUP4 ADD MSTORE PUSH3 0x291D DUP2 PUSH3 0x28BD JUMP JUMPDEST SWAP1 POP SWAP4 SWAP3 POP POP POP JUMP INVALID PUSH1 0x80 PUSH1 0x40 MSTORE PUSH1 0x0 PUSH1 0x3 SSTORE PUSH1 0x0 PUSH8 0xFFFFFFFFFFFFFFFF DUP2 GT ISZERO PUSH3 0x27 JUMPI PUSH3 0x26 PUSH3 0x1FA JUMP JUMPDEST JUMPDEST PUSH1 0x40 MLOAD SWAP1 DUP1 DUP3 MSTORE DUP1 PUSH1 0x20 MUL PUSH1 0x20 ADD DUP3 ADD PUSH1 0x40 MSTORE DUP1 ISZERO PUSH3 0x56 JUMPI DUP2 PUSH1 0x20 ADD PUSH1 0x20 DUP3 MUL DUP1 CALLDATASIZE DUP4 CALLDATACOPY DUP1 DUP3 ADD SWAP2 POP POP SWAP1 POP JUMPDEST POP PUSH1 0x4 SWAP1 DUP1 MLOAD SWAP1 PUSH1 0x20 ADD SWAP1 PUSH3 0x6E SWAP3 SWAP2 SWAP1 PUSH3 0x189 JUMP JUMPDEST POP CALLVALUE DUP1 ISZERO PUSH3 0x7C JUMPI PUSH1 0x0 DUP1 REVERT JUMPDEST POP PUSH3 0x9D PUSH3 0x91 PUSH3 0xBD PUSH1 0x20 SHL PUSH1 0x20 SHR JUMP JUMPDEST PUSH3 0xC5 PUSH1 0x20 SHL PUSH1 0x20 SHR JUMP JUMPDEST PUSH1 0x0 DUP1 PUSH1 0x14 PUSH2 0x100 EXP DUP2 SLOAD DUP2 PUSH1 0xFF MUL NOT AND SWAP1 DUP4 ISZERO ISZERO MUL OR SWAP1 SSTORE POP PUSH3 0x229 JUMP JUMPDEST PUSH1 0x0 CALLER SWAP1 POP SWAP1 JUMP JUMPDEST PUSH1 0x0 DUP1 PUSH1 0x0 SWAP1 SLOAD SWAP1 PUSH2 0x100 EXP SWAP1 DIV PUSH20 0xFFFFFFFFFFFFFFFFFFFFFFFFFFFFFFFFFFFFFFFF AND SWAP1 POP DUP2 PUSH1 0x0 DUP1 PUSH2 0x100 EXP DUP2 SLOAD DUP2 PUSH20 0xFFFFFFFFFFFFFFFFFFFFFFFFFFFFFFFFFFFFFFFF MUL NOT AND SWAP1 DUP4 PUSH20 0xFFFFFFFFFFFFFFFFFFFFFFFFFFFFFFFFFFFFFFFF AND MUL OR SWAP1 SSTORE POP DUP2 PUSH20 0xFFFFFFFFFFFFFFFFFFFFFFFFFFFFFFFFFFFFFFFF AND DUP2 PUSH20 0xFFFFFFFFFFFFFFFFFFFFFFFFFFFFFFFFFFFFFFFF AND PUSH32 0x8BE0079C531659141344CD1FD0A4F28419497F9722A3DAAFE3B4186F6B6457E0 PUSH1 0x40 MLOAD PUSH1 0x40 MLOAD DUP1 SWAP2 SUB SWAP1 LOG3 POP POP JUMP JUMPDEST DUP3 DUP1 SLOAD DUP3 DUP3 SSTORE SWAP1 PUSH1 0x0 MSTORE PUSH1 0x20 PUSH1 0x0 KECCAK256 SWAP1 DUP2 ADD SWAP3 DUP3 ISZERO PUSH3 0x1C8 JUMPI SWAP2 PUSH1 0x20 MUL DUP3 ADD JUMPDEST DUP3 DUP2 GT ISZERO PUSH3 0x1C7 JUMPI DUP3 MLOAD DUP3 SSTORE SWAP2 PUSH1 0x20 ADD SWAP2 SWAP1 PUSH1 0x1 ADD SWAP1 PUSH3 0x1AA JUMP JUMPDEST JUMPDEST POP SWAP1 POP PUSH3 0x1D7 SWAP2 SWAP1 PUSH3 0x1DB JUMP JUMPDEST POP SWAP1 JUMP JUMPDEST JUMPDEST DUP1 DUP3 GT ISZERO PUSH3 0x1F6 JUMPI PUSH1 0x0 DUP2 PUSH1 0x0 SWAP1 SSTORE POP PUSH1 0x1 ADD PUSH3 0x1DC JUMP JUMPDEST POP SWAP1 JUMP JUMPDEST PUSH32 0x4E487B7100000000000000000000000000000000000000000000000000000000 PUSH1 0x0 MSTORE PUSH1 0x41 PUSH1 0x4 MSTORE PUSH1 0x24 PUSH1 0x0 REVERT JUMPDEST PUSH2 0x203C DUP1 PUSH3 0x239 PUSH1 0x0 CODECOPY PUSH1 0x0 RETURN INVALID PUSH1 0x80 PUSH1 0x40 MSTORE CALLVALUE DUP1 ISZERO PUSH2 0x10 JUMPI PUSH1 0x0 DUP1 REVERT JUMPDEST POP PUSH1 0x4 CALLDATASIZE LT PUSH2 0x12C JUMPI PUSH1 0x0 CALLDATALOAD PUSH1 0xE0 SHR DUP1 PUSH4 0x7A5B730B GT PUSH2 0xAD JUMPI DUP1 PUSH4 0xA0024E45 GT PUSH2 0x71 JUMPI DUP1 PUSH4 0xA0024E45 EQ PUSH2 0x2FB JUMPI DUP1 PUSH4 0xE590B56A EQ PUSH2 0x317 JUMPI DUP1 PUSH4 0xEECB7D22 EQ PUSH2 0x34A JUMPI DUP1 PUSH4 0xF2FDE38B EQ PUSH2 0x366 JUMPI DUP1 PUSH4 0xF6D8F2CB EQ PUSH2 0x382 JUMPI PUSH2 0x12C JUMP JUMPDEST DUP1 PUSH4 0x7A5B730B EQ PUSH2 0x269 JUMPI DUP1 PUSH4 0x8456CB59 EQ PUSH2 0x287 JUMPI DUP1 PUSH4 0x8C2BF5C5 EQ PUSH2 0x291 JUMPI DUP1 PUSH4 0x8DA5CB5B EQ PUSH2 0x2C1 JUMPI DUP1 PUSH4 0x9D8A1ECC EQ PUSH2 0x2DF JUMPI PUSH2 0x12C JUMP JUMPDEST DUP1 PUSH4 0x426B6283 GT PUSH2 0xF4 JUMPI DUP1 PUSH4 0x426B6283 EQ PUSH2 0x1C3 JUMPI DUP1 PUSH4 0x4448D64C EQ PUSH2 0x1F3 JUMPI DUP1 PUSH4 0x52923385 EQ PUSH2 0x223 JUMPI DUP1 PUSH4 0x5C975ABB EQ PUSH2 0x241 JUMPI DUP1 PUSH4 0x715018A6 EQ PUSH2 0x25F JUMPI PUSH2 0x12C JUMP JUMPDEST DUP1 PUSH4 0x3B28C33 EQ PUSH2 0x131 JUMPI DUP1 PUSH4 0x1A1EBFC9 EQ PUSH2 0x14D JUMPI DUP1 PUSH4 0x2F20FB59 EQ PUSH2 0x169 JUMPI DUP1 PUSH4 0x370603F8 EQ PUSH2 0x185 JUMPI DUP1 PUSH4 0x3F4BA83A EQ PUSH2 0x1B9 JUMPI JUMPDEST PUSH1 0x0 DUP1 REVERT JUMPDEST PUSH2 0x14B PUSH1 0x4 DUP1 CALLDATASIZE SUB DUP2 ADD SWAP1 PUSH2 0x146 SWAP2 SWAP1 PUSH2 0x1435 JUMP JUMPDEST PUSH2 0x3B2 JUMP JUMPDEST STOP JUMPDEST PUSH2 0x167 PUSH1 0x4 DUP1 CALLDATASIZE SUB DUP2 ADD SWAP1 PUSH2 0x162 SWAP2 SWAP1 PUSH2 0x14E3 JUMP JUMPDEST PUSH2 0x5CA JUMP JUMPDEST STOP JUMPDEST PUSH2 0x183 PUSH1 0x4 DUP1 CALLDATASIZE SUB DUP2 ADD SWAP1 PUSH2 0x17E SWAP2 SWAP1 PUSH2 0x1510 JUMP JUMPDEST PUSH2 0x6A7 JUMP JUMPDEST STOP JUMPDEST PUSH2 0x19F PUSH1 0x4 DUP1 CALLDATASIZE SUB DUP2 ADD SWAP1 PUSH2 0x19A SWAP2 SWAP1 PUSH2 0x14E3 JUMP JUMPDEST PUSH2 0x7D8 JUMP JUMPDEST PUSH1 0x40 MLOAD PUSH2 0x1B0 SWAP6 SWAP5 SWAP4 SWAP3 SWAP2 SWAP1 PUSH2 0x16E9 JUMP JUMPDEST PUSH1 0x40 MLOAD DUP1 SWAP2 SUB SWAP1 RETURN JUMPDEST PUSH2 0x1C1 PUSH2 0x9FA JUMP JUMPDEST STOP JUMPDEST PUSH2 0x1DD PUSH1 0x4 DUP1 CALLDATASIZE SUB DUP2 ADD SWAP1 PUSH2 0x1D8 SWAP2 SWAP1 PUSH2 0x14E3 JUMP JUMPDEST PUSH2 0xA0C JUMP JUMPDEST PUSH1 0x40 MLOAD PUSH2 0x1EA SWAP2 SWAP1 PUSH2 0x1751 JUMP JUMPDEST PUSH1 0x40 MLOAD DUP1 SWAP2 SUB SWAP1 RETURN JUMPDEST PUSH2 0x20D PUSH1 0x4 DUP1 CALLDATASIZE SUB DUP2 ADD SWAP1 PUSH2 0x208 SWAP2 SWAP1 PUSH2 0x176C JUMP JUMPDEST PUSH2 0xA39 JUMP JUMPDEST PUSH1 0x40 MLOAD PUSH2 0x21A SWAP2 SWAP1 PUSH2 0x17C4 JUMP JUMPDEST PUSH1 0x40 MLOAD DUP1 SWAP2 SUB SWAP1 RETURN JUMPDEST PUSH2 0x22B PUSH2 0xA61 JUMP JUMPDEST PUSH1 0x40 MLOAD PUSH2 0x238 SWAP2 SWAP1 PUSH2 0x17DF JUMP JUMPDEST PUSH1 0x40 MLOAD DUP1 SWAP2 SUB SWAP1 RETURN JUMPDEST PUSH2 0x249 PUSH2 0xAB9 JUMP JUMPDEST PUSH1 0x40 MLOAD PUSH2 0x256 SWAP2 SWAP1 PUSH2 0x1751 JUMP JUMPDEST PUSH1 0x40 MLOAD DUP1 SWAP2 SUB SWAP1 RETURN JUMPDEST PUSH2 0x267 PUSH2 0xACF JUMP JUMPDEST STOP JUMPDEST PUSH2 0x271 PUSH2 0xAE3 JUMP JUMPDEST PUSH1 0x40 MLOAD PUSH2 0x27E SWAP2 SWAP1 PUSH2 0x17C4 JUMP JUMPDEST PUSH1 0x40 MLOAD DUP1 SWAP2 SUB SWAP1 RETURN JUMPDEST PUSH2 0x28F PUSH2 0xAE9 JUMP JUMPDEST STOP JUMPDEST PUSH2 0x2AB PUSH1 0x4 DUP1 CALLDATASIZE SUB DUP2 ADD SWAP1 PUSH2 0x2A6 SWAP2 SWAP1 PUSH2 0x14E3 JUMP JUMPDEST PUSH2 0xAFB JUMP JUMPDEST PUSH1 0x40 MLOAD PUSH2 0x2B8 SWAP2 SWAP1 PUSH2 0x17C4 JUMP JUMPDEST PUSH1 0x40 MLOAD DUP1 SWAP2 SUB SWAP1 RETURN JUMPDEST PUSH2 0x2C9 PUSH2 0xB1F JUMP JUMPDEST PUSH1 0x40 MLOAD PUSH2 0x2D6 SWAP2 SWAP1 PUSH2 0x1801 JUMP JUMPDEST PUSH1 0x40 MLOAD DUP1 SWAP2 SUB SWAP1 RETURN JUMPDEST PUSH2 0x2F9 PUSH1 0x4 DUP1 CALLDATASIZE SUB DUP2 ADD SWAP1 PUSH2 0x2F4 SWAP2 SWAP1 PUSH2 0x14E3 JUMP JUMPDEST PUSH2 0xB48 JUMP JUMPDEST STOP JUMPDEST PUSH2 0x315 PUSH1 0x4 DUP1 CALLDATASIZE SUB DUP2 ADD SWAP1 PUSH2 0x310 SWAP2 SWAP1 PUSH2 0x1510 JUMP JUMPDEST PUSH2 0xC26 JUMP JUMPDEST STOP JUMPDEST PUSH2 0x331 PUSH1 0x4 DUP1 CALLDATASIZE SUB DUP2 ADD SWAP1 PUSH2 0x32C SWAP2 SWAP1 PUSH2 0x14E3 JUMP JUMPDEST PUSH2 0xC67 JUMP JUMPDEST PUSH1 0x40 MLOAD PUSH2 0x341 SWAP5 SWAP4 SWAP3 SWAP2 SWAP1 PUSH2 0x181C JUMP JUMPDEST PUSH1 0x40 MLOAD DUP1 SWAP2 SUB SWAP1 RETURN JUMPDEST PUSH2 0x364 PUSH1 0x4 DUP1 CALLDATASIZE SUB DUP2 ADD SWAP1 PUSH2 0x35F SWAP2 SWAP1 PUSH2 0x186F JUMP JUMPDEST PUSH2 0xDD4 JUMP JUMPDEST STOP JUMPDEST PUSH2 0x380 PUSH1 0x4 DUP1 CALLDATASIZE SUB DUP2 ADD SWAP1 PUSH2 0x37B SWAP2 SWAP1 PUSH2 0x1926 JUMP JUMPDEST PUSH2 0xF1E JUMP JUMPDEST STOP JUMPDEST PUSH2 0x39C PUSH1 0x4 DUP1 CALLDATASIZE SUB DUP2 ADD SWAP1 PUSH2 0x397 SWAP2 SWAP1 PUSH2 0x176C JUMP JUMPDEST PUSH2 0xFA1 JUMP JUMPDEST PUSH1 0x40 MLOAD PUSH2 0x3A9 SWAP2 SWAP1 PUSH2 0x17C4 JUMP JUMPDEST PUSH1 0x40 MLOAD DUP1 SWAP2 SUB SWAP1 RETURN JUMPDEST PUSH2 0x3BA PUSH2 0xFCF JUMP JUMPDEST PUSH1 0x40 MLOAD DUP1 PUSH1 0xA0 ADD PUSH1 0x40 MSTORE DUP1 DUP4 DUP2 MSTORE PUSH1 0x20 ADD DUP3 DUP2 MSTORE PUSH1 0x20 ADD CALLER PUSH20 0xFFFFFFFFFFFFFFFFFFFFFFFFFFFFFFFFFFFFFFFF AND DUP2 MSTORE PUSH1 0x20 ADD PUSH1 0x1 ISZERO ISZERO DUP2 MSTORE PUSH1 0x20 ADD PUSH1 0x0 PUSH8 0xFFFFFFFFFFFFFFFF DUP2 GT ISZERO PUSH2 0x411 JUMPI PUSH2 0x410 PUSH2 0x130A JUMP JUMPDEST JUMPDEST PUSH1 0x40 MLOAD SWAP1 DUP1 DUP3 MSTORE DUP1 PUSH1 0x20 MUL PUSH1 0x20 ADD DUP3 ADD PUSH1 0x40 MSTORE DUP1 ISZERO PUSH2 0x43F JUMPI DUP2 PUSH1 0x20 ADD PUSH1 0x20 DUP3 MUL DUP1 CALLDATASIZE DUP4 CALLDATACOPY DUP1 DUP3 ADD SWAP2 POP POP SWAP1 POP JUMPDEST POP DUP2 MSTORE POP PUSH1 0x1 PUSH1 0x0 PUSH1 0x3 SLOAD DUP2 MSTORE PUSH1 0x20 ADD SWAP1 DUP2 MSTORE PUSH1 0x20 ADD PUSH1 0x0 KECCAK256 PUSH1 0x0 DUP3 ADD MLOAD DUP2 PUSH1 0x0 ADD SWAP1 DUP2 PUSH2 0x46D SWAP2 SWAP1 PUSH2 0x1B5F JUMP JUMPDEST POP PUSH1 0x20 DUP3 ADD MLOAD DUP2 PUSH1 0x1 ADD SWAP1 DUP2 PUSH2 0x483 SWAP2 SWAP1 PUSH2 0x1B5F JUMP JUMPDEST POP PUSH1 0x40 DUP3 ADD MLOAD DUP2 PUSH1 0x2 ADD PUSH1 0x0 PUSH2 0x100 EXP DUP2 SLOAD DUP2 PUSH20 0xFFFFFFFFFFFFFFFFFFFFFFFFFFFFFFFFFFFFFFFF MUL NOT AND SWAP1 DUP4 PUSH20 0xFFFFFFFFFFFFFFFFFFFFFFFFFFFFFFFFFFFFFFFF AND MUL OR SWAP1 SSTORE POP PUSH1 0x60 DUP3 ADD MLOAD DUP2 PUSH1 0x2 ADD PUSH1 0x14 PUSH2 0x100 EXP DUP2 SLOAD DUP2 PUSH1 0xFF MUL NOT AND SWAP1 DUP4 ISZERO ISZERO MUL OR SWAP1 SSTORE POP PUSH1 0x80 DUP3 ADD MLOAD DUP2 PUSH1 0x3 ADD SWAP1 DUP1 MLOAD SWAP1 PUSH1 0x20 ADD SWAP1 PUSH2 0x507 SWAP3 SWAP2 SWAP1 PUSH2 0x1271 JUMP JUMPDEST POP SWAP1 POP POP PUSH1 0x3 SLOAD PUSH1 0x2 DUP4 PUSH1 0x40 MLOAD PUSH2 0x51E SWAP2 SWAP1 PUSH2 0x1C6D JUMP JUMPDEST SWAP1 DUP2 MSTORE PUSH1 0x20 ADD PUSH1 0x40 MLOAD DUP1 SWAP2 SUB SWAP1 KECCAK256 DUP2 SWAP1 SSTORE POP CALLER PUSH20 0xFFFFFFFFFFFFFFFFFFFFFFFFFFFFFFFFFFFFFFFF AND PUSH1 0x3 SLOAD PUSH32 0x5117D86257948A373A638259CB64263DCDD5CD1BD0402BAA7A4258319E749BB DUP5 DUP5 PUSH1 0x40 MLOAD PUSH2 0x57B SWAP3 SWAP2 SWAP1 PUSH2 0x1C84 JUMP JUMPDEST PUSH1 0x40 MLOAD DUP1 SWAP2 SUB SWAP1 LOG3 PUSH1 0x4 PUSH1 0x3 SLOAD SWAP1 DUP1 PUSH1 0x1 DUP2 SLOAD ADD DUP1 DUP3 SSTORE DUP1 SWAP2 POP POP PUSH1 0x1 SWAP1 SUB SWAP1 PUSH1 0x0 MSTORE PUSH1 0x20 PUSH1 0x0 KECCAK256 ADD PUSH1 0x0 SWAP1 SWAP2 SWAP1 SWAP2 SWAP1 SWAP2 POP SSTORE PUSH1 0x3 PUSH1 0x0 DUP2 SLOAD DUP1 SWAP3 SWAP2 SWAP1 PUSH2 0x5C1 SWAP1 PUSH2 0x1CEA JUMP JUMPDEST SWAP2 SWAP1 POP SSTORE POP POP POP JUMP JUMPDEST PUSH2 0x5D2 PUSH2 0xFCF JUMP JUMPDEST PUSH1 0x1 PUSH1 0x0 DUP3 DUP2 MSTORE PUSH1 0x20 ADD SWAP1 DUP2 MSTORE PUSH1 0x20 ADD PUSH1 0x0 KECCAK256 PUSH1 0x2 ADD PUSH1 0x0 SWAP1 SLOAD SWAP1 PUSH2 0x100 EXP SWAP1 DIV PUSH20 0xFFFFFFFFFFFFFFFFFFFFFFFFFFFFFFFFFFFFFFFF AND PUSH20 0xFFFFFFFFFFFFFFFFFFFFFFFFFFFFFFFFFFFFFFFF AND CALLER PUSH20 0xFFFFFFFFFFFFFFFFFFFFFFFFFFFFFFFFFFFFFFFF AND EQ PUSH2 0x676 JUMPI PUSH1 0x40 MLOAD PUSH32 0x8C379A000000000000000000000000000000000000000000000000000000000 DUP2 MSTORE PUSH1 0x4 ADD PUSH2 0x66D SWAP1 PUSH2 0x1D7E JUMP JUMPDEST PUSH1 0x40 MLOAD DUP1 SWAP2 SUB SWAP1 REVERT JUMPDEST PUSH1 0x1 DUP1 PUSH1 0x0 DUP4 DUP2 MSTORE PUSH1 0x20 ADD SWAP1 DUP2 MSTORE PUSH1 0x20 ADD PUSH1 0x0 KECCAK256 PUSH1 0x2 ADD PUSH1 0x14 PUSH2 0x100 EXP DUP2 SLOAD DUP2 PUSH1 0xFF MUL NOT AND SWAP1 DUP4 ISZERO ISZERO MUL OR SWAP1 SSTORE POP POP JUMP JUMPDEST PUSH1 0x0 PUSH1 0x1 PUSH1 0x0 DUP5 DUP2 MSTORE PUSH1 0x20 ADD SWAP1 DUP2 MSTORE PUSH1 0x20 ADD PUSH1 0x0 KECCAK256 PUSH1 0x3 ADD DUP1 SLOAD SWAP1 POP SWAP1 POP PUSH1 0x0 JUMPDEST DUP2 DUP2 LT ISZERO PUSH2 0x7D2 JUMPI DUP3 PUSH1 0x1 PUSH1 0x0 DUP7 DUP2 MSTORE PUSH1 0x20 ADD SWAP1 DUP2 MSTORE PUSH1 0x20 ADD PUSH1 0x0 KECCAK256 PUSH1 0x3 ADD DUP3 DUP2 SLOAD DUP2 LT PUSH2 0x6F9 JUMPI PUSH2 0x6F8 PUSH2 0x1D9E JUMP JUMPDEST JUMPDEST SWAP1 PUSH1 0x0 MSTORE PUSH1 0x20 PUSH1 0x0 KECCAK256 ADD SLOAD SUB PUSH2 0x7BF JUMPI PUSH1 0x1 PUSH1 0x0 DUP6 DUP2 MSTORE PUSH1 0x20 ADD SWAP1 DUP2 MSTORE PUSH1 0x20 ADD PUSH1 0x0 KECCAK256 PUSH1 0x3 ADD PUSH1 0x1 DUP4 PUSH2 0x72C SWAP2 SWAP1 PUSH2 0x1DCD JUMP JUMPDEST DUP2 SLOAD DUP2 LT PUSH2 0x73D JUMPI PUSH2 0x73C PUSH2 0x1D9E JUMP JUMPDEST JUMPDEST SWAP1 PUSH1 0x0 MSTORE PUSH1 0x20 PUSH1 0x0 KECCAK256 ADD SLOAD PUSH1 0x1 PUSH1 0x0 DUP7 DUP2 MSTORE PUSH1 0x20 ADD SWAP1 DUP2 MSTORE PUSH1 0x20 ADD PUSH1 0x0 KECCAK256 PUSH1 0x3 ADD DUP3 DUP2 SLOAD DUP2 LT PUSH2 0x770 JUMPI PUSH2 0x76F PUSH2 0x1D9E JUMP JUMPDEST JUMPDEST SWAP1 PUSH1 0x0 MSTORE PUSH1 0x20 PUSH1 0x0 KECCAK256 ADD DUP2 SWAP1 SSTORE POP PUSH1 0x1 PUSH1 0x0 DUP6 DUP2 MSTORE PUSH1 0x20 ADD SWAP1 DUP2 MSTORE PUSH1 0x20 ADD PUSH1 0x0 KECCAK256 PUSH1 0x3 ADD DUP1 SLOAD DUP1 PUSH2 0x7A4 JUMPI PUSH2 0x7A3 PUSH2 0x1E01 JUMP JUMPDEST JUMPDEST PUSH1 0x1 SWAP1 SUB DUP2 DUP2 SWAP1 PUSH1 0x0 MSTORE PUSH1 0x20 PUSH1 0x0 KECCAK256 ADD PUSH1 0x0 SWAP1 SSTORE SWAP1 SSTORE PUSH2 0x7D2 JUMP JUMPDEST DUP1 DUP1 PUSH2 0x7CA SWAP1 PUSH2 0x1CEA JUMP JUMPDEST SWAP2 POP POP PUSH2 0x6C8 JUMP JUMPDEST POP POP POP POP JUMP JUMPDEST PUSH1 0x60 DUP1 PUSH1 0x0 DUP1 PUSH1 0x60 PUSH1 0x1 PUSH1 0x0 DUP8 DUP2 MSTORE PUSH1 0x20 ADD SWAP1 DUP2 MSTORE PUSH1 0x20 ADD PUSH1 0x0 KECCAK256 PUSH1 0x0 ADD PUSH1 0x1 PUSH1 0x0 DUP9 DUP2 MSTORE PUSH1 0x20 ADD SWAP1 DUP2 MSTORE PUSH1 0x20 ADD PUSH1 0x0 KECCAK256 PUSH1 0x1 ADD PUSH1 0x1 PUSH1 0x0 DUP10 DUP2 MSTORE PUSH1 0x20 ADD SWAP1 DUP2 MSTORE PUSH1 0x20 ADD PUSH1 0x0 KECCAK256 PUSH1 0x2 ADD PUSH1 0x0 SWAP1 SLOAD SWAP1 PUSH2 0x100 EXP SWAP1 DIV PUSH20 0xFFFFFFFFFFFFFFFFFFFFFFFFFFFFFFFFFFFFFFFF AND PUSH1 0x1 PUSH1 0x0 DUP11 DUP2 MSTORE PUSH1 0x20 ADD SWAP1 DUP2 MSTORE PUSH1 0x20 ADD PUSH1 0x0 KECCAK256 PUSH1 0x2 ADD PUSH1 0x14 SWAP1 SLOAD SWAP1 PUSH2 0x100 EXP SWAP1 DIV PUSH1 0xFF AND PUSH1 0x1 PUSH1 0x0 DUP12 DUP2 MSTORE PUSH1 0x20 ADD SWAP1 DUP2 MSTORE PUSH1 0x20 ADD PUSH1 0x0 KECCAK256 PUSH1 0x3 ADD DUP5 DUP1 SLOAD PUSH2 0x889 SWAP1 PUSH2 0x1982 JUMP JUMPDEST DUP1 PUSH1 0x1F ADD PUSH1 0x20 DUP1 SWAP2 DIV MUL PUSH1 0x20 ADD PUSH1 0x40 MLOAD SWAP1 DUP2 ADD PUSH1 0x40 MSTORE DUP1 SWAP3 SWAP2 SWAP1 DUP2 DUP2 MSTORE PUSH1 0x20 ADD DUP3 DUP1 SLOAD PUSH2 0x8B5 SWAP1 PUSH2 0x1982 JUMP JUMPDEST DUP1 ISZERO PUSH2 0x902 JUMPI DUP1 PUSH1 0x1F LT PUSH2 0x8D7 JUMPI PUSH2 0x100 DUP1 DUP4 SLOAD DIV MUL DUP4 MSTORE SWAP2 PUSH1 0x20 ADD SWAP2 PUSH2 0x902 JUMP JUMPDEST DUP3 ADD SWAP2 SWAP1 PUSH1 0x0 MSTORE PUSH1 0x20 PUSH1 0x0 KECCAK256 SWAP1 JUMPDEST DUP2 SLOAD DUP2 MSTORE SWAP1 PUSH1 0x1 ADD SWAP1 PUSH1 0x20 ADD DUP1 DUP4 GT PUSH2 0x8E5 JUMPI DUP3 SWAP1 SUB PUSH1 0x1F AND DUP3 ADD SWAP2 JUMPDEST POP POP POP POP POP SWAP5 POP DUP4 DUP1 SLOAD PUSH2 0x915 SWAP1 PUSH2 0x1982 JUMP JUMPDEST DUP1 PUSH1 0x1F ADD PUSH1 0x20 DUP1 SWAP2 DIV MUL PUSH1 0x20 ADD PUSH1 0x40 MLOAD SWAP1 DUP2 ADD PUSH1 0x40 MSTORE DUP1 SWAP3 SWAP2 SWAP1 DUP2 DUP2 MSTORE PUSH1 0x20 ADD DUP3 DUP1 SLOAD PUSH2 0x941 SWAP1 PUSH2 0x1982 JUMP JUMPDEST DUP1 ISZERO PUSH2 0x98E JUMPI DUP1 PUSH1 0x1F LT PUSH2 0x963 JUMPI PUSH2 0x100 DUP1 DUP4 SLOAD DIV MUL DUP4 MSTORE SWAP2 PUSH1 0x20 ADD SWAP2 PUSH2 0x98E JUMP JUMPDEST DUP3 ADD SWAP2 SWAP1 PUSH1 0x0 MSTORE PUSH1 0x20 PUSH1 0x0 KECCAK256 SWAP1 JUMPDEST DUP2 SLOAD DUP2 MSTORE SWAP1 PUSH1 0x1 ADD SWAP1 PUSH1 0x20 ADD DUP1 DUP4 GT PUSH2 0x971 JUMPI DUP3 SWAP1 SUB PUSH1 0x1F AND DUP3 ADD SWAP2 JUMPDEST POP POP POP POP POP SWAP4 POP DUP1 DUP1 SLOAD DUP1 PUSH1 0x20 MUL PUSH1 0x20 ADD PUSH1 0x40 MLOAD SWAP1 DUP2 ADD PUSH1 0x40 MSTORE DUP1 SWAP3 SWAP2 SWAP1 DUP2 DUP2 MSTORE PUSH1 0x20 ADD DUP3 DUP1 SLOAD DUP1 ISZERO PUSH2 0x9E0 JUMPI PUSH1 0x20 MUL DUP3 ADD SWAP2 SWAP1 PUSH1 0x0 MSTORE PUSH1 0x20 PUSH1 0x0 KECCAK256 SWAP1 JUMPDEST DUP2 SLOAD DUP2 MSTORE PUSH1 0x20 ADD SWAP1 PUSH1 0x1 ADD SWAP1 DUP1 DUP4 GT PUSH2 0x9CC JUMPI JUMPDEST POP POP POP POP POP SWAP1 POP SWAP5 POP SWAP5 POP SWAP5 POP SWAP5 POP SWAP5 POP SWAP2 SWAP4 SWAP6 SWAP1 SWAP3 SWAP5 POP JUMP JUMPDEST PUSH2 0xA02 PUSH2 0x1019 JUMP JUMPDEST PUSH2 0xA0A PUSH2 0x1097 JUMP JUMPDEST JUMP JUMPDEST PUSH1 0x0 PUSH1 0x1 PUSH1 0x0 DUP4 DUP2 MSTORE PUSH1 0x20 ADD SWAP1 DUP2 MSTORE PUSH1 0x20 ADD PUSH1 0x0 KECCAK256 PUSH1 0x2 ADD PUSH1 0x14 SWAP1 SLOAD SWAP1 PUSH2 0x100 EXP SWAP1 DIV PUSH1 0xFF AND SWAP1 POP SWAP2 SWAP1 POP JUMP JUMPDEST PUSH1 0x0 PUSH1 0x2 DUP3 PUSH1 0x40 MLOAD PUSH2 0xA4B SWAP2 SWAP1 PUSH2 0x1C6D JUMP JUMPDEST SWAP1 DUP2 MSTORE PUSH1 0x20 ADD PUSH1 0x40 MLOAD DUP1 SWAP2 SUB SWAP1 KECCAK256 SLOAD SWAP1 POP SWAP2 SWAP1 POP JUMP JUMPDEST PUSH1 0x60 PUSH1 0x4 DUP1 SLOAD DUP1 PUSH1 0x20 MUL PUSH1 0x20 ADD PUSH1 0x40 MLOAD SWAP1 DUP2 ADD PUSH1 0x40 MSTORE DUP1 SWAP3 SWAP2 SWAP1 DUP2 DUP2 MSTORE PUSH1 0x20 ADD DUP3 DUP1 SLOAD DUP1 ISZERO PUSH2 0xAAF JUMPI PUSH1 0x20 MUL DUP3 ADD SWAP2 SWAP1 PUSH1 0x0 MSTORE PUSH1 0x20 PUSH1 0x0 KECCAK256 SWAP1 JUMPDEST DUP2 SLOAD DUP2 MSTORE PUSH1 0x20 ADD SWAP1 PUSH1 0x1 ADD SWAP1 DUP1 DUP4 GT PUSH2 0xA9B JUMPI JUMPDEST POP POP POP POP POP SWAP1 POP SWAP1 JUMP JUMPDEST PUSH1 0x0 DUP1 PUSH1 0x14 SWAP1 SLOAD SWAP1 PUSH2 0x100 EXP SWAP1 DIV PUSH1 0xFF AND SWAP1 POP SWAP1 JUMP JUMPDEST PUSH2 0xAD7 PUSH2 0x1019 JUMP JUMPDEST PUSH2 0xAE1 PUSH1 0x0 PUSH2 0x10F9 JUMP JUMPDEST JUMP JUMPDEST PUSH1 0x3 SLOAD DUP2 JUMP JUMPDEST PUSH2 0xAF1 PUSH2 0x1019 JUMP JUMPDEST PUSH2 0xAF9 PUSH2 0x11BD JUMP JUMPDEST JUMP JUMPDEST PUSH1 0x4 DUP2 DUP2 SLOAD DUP2 LT PUSH2 0xB0B JUMPI PUSH1 0x0 DUP1 REVERT JUMPDEST SWAP1 PUSH1 0x0 MSTORE PUSH1 0x20 PUSH1 0x0 KECCAK256 ADD PUSH1 0x0 SWAP2 POP SWAP1 POP SLOAD DUP2 JUMP JUMPDEST PUSH1 0x0 DUP1 PUSH1 0x0 SWAP1 SLOAD SWAP1 PUSH2 0x100 EXP SWAP1 DIV PUSH20 0xFFFFFFFFFFFFFFFFFFFFFFFFFFFFFFFFFFFFFFFF AND SWAP1 POP SWAP1 JUMP JUMPDEST PUSH2 0xB50 PUSH2 0xFCF JUMP JUMPDEST PUSH1 0x1 PUSH1 0x0 DUP3 DUP2 MSTORE PUSH1 0x20 ADD SWAP1 DUP2 MSTORE PUSH1 0x20 ADD PUSH1 0x0 KECCAK256 PUSH1 0x2 ADD PUSH1 0x0 SWAP1 SLOAD SWAP1 PUSH2 0x100 EXP SWAP1 DIV PUSH20 0xFFFFFFFFFFFFFFFFFFFFFFFFFFFFFFFFFFFFFFFF AND PUSH20 0xFFFFFFFFFFFFFFFFFFFFFFFFFFFFFFFFFFFFFFFF AND CALLER PUSH20 0xFFFFFFFFFFFFFFFFFFFFFFFFFFFFFFFFFFFFFFFF AND EQ PUSH2 0xBF4 JUMPI PUSH1 0x40 MLOAD PUSH32 0x8C379A000000000000000000000000000000000000000000000000000000000 DUP2 MSTORE PUSH1 0x4 ADD PUSH2 0xBEB SWAP1 PUSH2 0x1D7E JUMP JUMPDEST PUSH1 0x40 MLOAD DUP1 SWAP2 SUB SWAP1 REVERT JUMPDEST PUSH1 0x0 PUSH1 0x1 PUSH1 0x0 DUP4 DUP2 MSTORE PUSH1 0x20 ADD SWAP1 DUP2 MSTORE PUSH1 0x20 ADD PUSH1 0x0 KECCAK256 PUSH1 0x2 ADD PUSH1 0x14 PUSH2 0x100 EXP DUP2 SLOAD DUP2 PUSH1 0xFF MUL NOT AND SWAP1 DUP4 ISZERO ISZERO MUL OR SWAP1 SSTORE POP POP JUMP JUMPDEST PUSH1 0x1 PUSH1 0x0 DUP4 DUP2 MSTORE PUSH1 0x20 ADD SWAP1 DUP2 MSTORE PUSH1 0x20 ADD PUSH1 0x0 KECCAK256 PUSH1 0x3 ADD DUP2 SWAP1 DUP1 PUSH1 0x1 DUP2 SLOAD ADD DUP1 DUP3 SSTORE DUP1 SWAP2 POP POP PUSH1 0x1 SWAP1 SUB SWAP1 PUSH1 0x0 MSTORE PUSH1 0x20 PUSH1 0x0 KECCAK256 ADD PUSH1 0x0 SWAP1 SWAP2 SWAP1 SWAP2 SWAP1 SWAP2 POP SSTORE POP POP JUMP JUMPDEST PUSH1 0x1 PUSH1 0x20 MSTORE DUP1 PUSH1 0x0 MSTORE PUSH1 0x40 PUSH1 0x0 KECCAK256 PUSH1 0x0 SWAP2 POP SWAP1 POP DUP1 PUSH1 0x0 ADD DUP1 SLOAD PUSH2 0xC8A SWAP1 PUSH2 0x1982 JUMP JUMPDEST DUP1 PUSH1 0x1F ADD PUSH1 0x20 DUP1 SWAP2 DIV MUL PUSH1 0x20 ADD PUSH1 0x40 MLOAD SWAP1 DUP2 ADD PUSH1 0x40 MSTORE DUP1 SWAP3 SWAP2 SWAP1 DUP2 DUP2 MSTORE PUSH1 0x20 ADD DUP3 DUP1 SLOAD PUSH2 0xCB6 SWAP1 PUSH2 0x1982 JUMP JUMPDEST DUP1 ISZERO PUSH2 0xD03 JUMPI DUP1 PUSH1 0x1F LT PUSH2 0xCD8 JUMPI PUSH2 0x100 DUP1 DUP4 SLOAD DIV MUL DUP4 MSTORE SWAP2 PUSH1 0x20 ADD SWAP2 PUSH2 0xD03 JUMP JUMPDEST DUP3 ADD SWAP2 SWAP1 PUSH1 0x0 MSTORE PUSH1 0x20 PUSH1 0x0 KECCAK256 SWAP1 JUMPDEST DUP2 SLOAD DUP2 MSTORE SWAP1 PUSH1 0x1 ADD SWAP1 PUSH1 0x20 ADD DUP1 DUP4 GT PUSH2 0xCE6 JUMPI DUP3 SWAP1 SUB PUSH1 0x1F AND DUP3 ADD SWAP2 JUMPDEST POP POP POP POP POP SWAP1 DUP1 PUSH1 0x1 ADD DUP1 SLOAD PUSH2 0xD18 SWAP1 PUSH2 0x1982 JUMP JUMPDEST DUP1 PUSH1 0x1F ADD PUSH1 0x20 DUP1 SWAP2 DIV MUL PUSH1 0x20 ADD PUSH1 0x40 MLOAD SWAP1 DUP2 ADD PUSH1 0x40 MSTORE DUP1 SWAP3 SWAP2 SWAP1 DUP2 DUP2 MSTORE PUSH1 0x20 ADD DUP3 DUP1 SLOAD PUSH2 0xD44 SWAP1 PUSH2 0x1982 JUMP JUMPDEST DUP1 ISZERO PUSH2 0xD91 JUMPI DUP1 PUSH1 0x1F LT PUSH2 0xD66 JUMPI PUSH2 0x100 DUP1 DUP4 SLOAD DIV MUL DUP4 MSTORE SWAP2 PUSH1 0x20 ADD SWAP2 PUSH2 0xD91 JUMP JUMPDEST DUP3 ADD SWAP2 SWAP1 PUSH1 0x0 MSTORE PUSH1 0x20 PUSH1 0x0 KECCAK256 SWAP1 JUMPDEST DUP2 SLOAD DUP2 MSTORE SWAP1 PUSH1 0x1 ADD SWAP1 PUSH1 0x20 ADD DUP1 DUP4 GT PUSH2 0xD74 JUMPI DUP3 SWAP1 SUB PUSH1 0x1F AND DUP3 ADD SWAP2 JUMPDEST POP POP POP POP POP SWAP1 DUP1 PUSH1 0x2 ADD PUSH1 0x0 SWAP1 SLOAD SWAP1 PUSH2 0x100 EXP SWAP1 DIV PUSH20 0xFFFFFFFFFFFFFFFFFFFFFFFFFFFFFFFFFFFFFFFF AND SWAP1 DUP1 PUSH1 0x2 ADD PUSH1 0x14 SWAP1 SLOAD SWAP1 PUSH2 0x100 EXP SWAP1 DIV PUSH1 0xFF AND SWAP1 POP DUP5 JUMP JUMPDEST PUSH2 0xDDC PUSH2 0xFCF JUMP JUMPDEST PUSH1 0x1 PUSH1 0x0 DUP5 DUP2 MSTORE PUSH1 0x20 ADD SWAP1 DUP2 MSTORE PUSH1 0x20 ADD PUSH1 0x0 KECCAK256 PUSH1 0x2 ADD PUSH1 0x0 SWAP1 SLOAD SWAP1 PUSH2 0x100 EXP SWAP1 DIV PUSH20 0xFFFFFFFFFFFFFFFFFFFFFFFFFFFFFFFFFFFFFFFF AND PUSH20 0xFFFFFFFFFFFFFFFFFFFFFFFFFFFFFFFFFFFFFFFF AND CALLER PUSH20 0xFFFFFFFFFFFFFFFFFFFFFFFFFFFFFFFFFFFFFFFF AND EQ PUSH2 0xE80 JUMPI PUSH1 0x40 MLOAD PUSH32 0x8C379A000000000000000000000000000000000000000000000000000000000 DUP2 MSTORE PUSH1 0x4 ADD PUSH2 0xE77 SWAP1 PUSH2 0x1D7E JUMP JUMPDEST PUSH1 0x40 MLOAD DUP1 SWAP2 SUB SWAP1 REVERT JUMPDEST DUP2 PUSH1 0x1 PUSH1 0x0 DUP6 DUP2 MSTORE PUSH1 0x20 ADD SWAP1 DUP2 MSTORE PUSH1 0x20 ADD PUSH1 0x0 KECCAK256 PUSH1 0x0 ADD SWAP1 DUP2 PUSH2 0xEA3 SWAP2 SWAP1 PUSH2 0x1B5F JUMP JUMPDEST POP DUP1 PUSH1 0x1 PUSH1 0x0 DUP6 DUP2 MSTORE PUSH1 0x20 ADD SWAP1 DUP2 MSTORE PUSH1 0x20 ADD PUSH1 0x0 KECCAK256 PUSH1 0x1 ADD SWAP1 DUP2 PUSH2 0xEC7 SWAP2 SWAP1 PUSH2 0x1B5F JUMP JUMPDEST POP CALLER PUSH20 0xFFFFFFFFFFFFFFFFFFFFFFFFFFFFFFFFFFFFFFFF AND DUP4 PUSH32 0x966F170F085B3FD1CF1E51D9497DCDF2E316A3F1160EECABCC47AEE8897256E4 DUP5 DUP5 PUSH1 0x40 MLOAD PUSH2 0xF11 SWAP3 SWAP2 SWAP1 PUSH2 0x1C84 JUMP JUMPDEST PUSH1 0x40 MLOAD DUP1 SWAP2 SUB SWAP1 LOG3 POP POP POP JUMP JUMPDEST PUSH2 0xF26 PUSH2 0x1019 JUMP JUMPDEST PUSH1 0x0 PUSH20 0xFFFFFFFFFFFFFFFFFFFFFFFFFFFFFFFFFFFFFFFF AND DUP2 PUSH20 0xFFFFFFFFFFFFFFFFFFFFFFFFFFFFFFFFFFFFFFFF AND SUB PUSH2 0xF95 JUMPI PUSH1 0x40 MLOAD PUSH32 0x8C379A000000000000000000000000000000000000000000000000000000000 DUP2 MSTORE PUSH1 0x4 ADD PUSH2 0xF8C SWAP1 PUSH2 0x1EA2 JUMP JUMPDEST PUSH1 0x40 MLOAD DUP1 SWAP2 SUB SWAP1 REVERT JUMPDEST PUSH2 0xF9E DUP2 PUSH2 0x10F9 JUMP JUMPDEST POP JUMP JUMPDEST PUSH1 0x2 DUP2 DUP1 MLOAD PUSH1 0x20 DUP2 ADD DUP3 ADD DUP1 MLOAD DUP5 DUP3 MSTORE PUSH1 0x20 DUP4 ADD PUSH1 0x20 DUP6 ADD KECCAK256 DUP2 DUP4 MSTORE DUP1 SWAP6 POP POP POP POP POP POP PUSH1 0x0 SWAP2 POP SWAP1 POP SLOAD DUP2 JUMP JUMPDEST PUSH2 0xFD7 PUSH2 0xAB9 JUMP JUMPDEST ISZERO PUSH2 0x1017 JUMPI PUSH1 0x40 MLOAD PUSH32 0x8C379A000000000000000000000000000000000000000000000000000000000 DUP2 MSTORE PUSH1 0x4 ADD PUSH2 0x100E SWAP1 PUSH2 0x1F0E JUMP JUMPDEST PUSH1 0x40 MLOAD DUP1 SWAP2 SUB SWAP1 REVERT JUMPDEST JUMP JUMPDEST PUSH2 0x1021 PUSH2 0x1220 JUMP JUMPDEST PUSH20 0xFFFFFFFFFFFFFFFFFFFFFFFFFFFFFFFFFFFFFFFF AND PUSH2 0x103F PUSH2 0xB1F JUMP JUMPDEST PUSH20 0xFFFFFFFFFFFFFFFFFFFFFFFFFFFFFFFFFFFFFFFF AND EQ PUSH2 0x1095 JUMPI PUSH1 0x40 MLOAD PUSH32 0x8C379A000000000000000000000000000000000000000000000000000000000 DUP2 MSTORE PUSH1 0x4 ADD PUSH2 0x108C SWAP1 PUSH2 0x1F7A JUMP JUMPDEST PUSH1 0x40 MLOAD DUP1 SWAP2 SUB SWAP1 REVERT JUMPDEST JUMP JUMPDEST PUSH2 0x109F PUSH2 0x1228 JUMP JUMPDEST PUSH1 0x0 DUP1 PUSH1 0x14 PUSH2 0x100 EXP DUP2 SLOAD DUP2 PUSH1 0xFF MUL NOT AND SWAP1 DUP4 ISZERO ISZERO MUL OR SWAP1 SSTORE POP PUSH32 0x5DB9EE0A495BF2E6FF9C91A7834C1BA4FDD244A5E8AA4E537BD38AEAE4B073AA PUSH2 0x10E2 PUSH2 0x1220 JUMP JUMPDEST PUSH1 0x40 MLOAD PUSH2 0x10EF SWAP2 SWAP1 PUSH2 0x1801 JUMP JUMPDEST PUSH1 0x40 MLOAD DUP1 SWAP2 SUB SWAP1 LOG1 JUMP JUMPDEST PUSH1 0x0 DUP1 PUSH1 0x0 SWAP1 SLOAD SWAP1 PUSH2 0x100 EXP SWAP1 DIV PUSH20 0xFFFFFFFFFFFFFFFFFFFFFFFFFFFFFFFFFFFFFFFF AND SWAP1 POP DUP2 PUSH1 0x0 DUP1 PUSH2 0x100 EXP DUP2 SLOAD DUP2 PUSH20 0xFFFFFFFFFFFFFFFFFFFFFFFFFFFFFFFFFFFFFFFF MUL NOT AND SWAP1 DUP4 PUSH20 0xFFFFFFFFFFFFFFFFFFFFFFFFFFFFFFFFFFFFFFFF AND MUL OR SWAP1 SSTORE POP DUP2 PUSH20 0xFFFFFFFFFFFFFFFFFFFFFFFFFFFFFFFFFFFFFFFF AND DUP2 PUSH20 0xFFFFFFFFFFFFFFFFFFFFFFFFFFFFFFFFFFFFFFFF AND PUSH32 0x8BE0079C531659141344CD1FD0A4F28419497F9722A3DAAFE3B4186F6B6457E0 PUSH1 0x40 MLOAD PUSH1 0x40 MLOAD DUP1 SWAP2 SUB SWAP1 LOG3 POP POP JUMP JUMPDEST PUSH2 0x11C5 PUSH2 0xFCF JUMP JUMPDEST PUSH1 0x1 PUSH1 0x0 PUSH1 0x14 PUSH2 0x100 EXP DUP2 SLOAD DUP2 PUSH1 0xFF MUL NOT AND SWAP1 DUP4 ISZERO ISZERO MUL OR SWAP1 SSTORE POP PUSH32 0x62E78CEA01BEE320CD4E420270B5EA74000D11B0C9F74754EBDBFC544B05A258 PUSH2 0x1209 PUSH2 0x1220 JUMP JUMPDEST PUSH1 0x40 MLOAD PUSH2 0x1216 SWAP2 SWAP1 PUSH2 0x1801 JUMP JUMPDEST PUSH1 0x40 MLOAD DUP1 SWAP2 SUB SWAP1 LOG1 JUMP JUMPDEST PUSH1 0x0 CALLER SWAP1 POP SWAP1 JUMP JUMPDEST PUSH2 0x1230 PUSH2 0xAB9 JUMP JUMPDEST PUSH2 0x126F JUMPI PUSH1 0x40 MLOAD PUSH32 0x8C379A000000000000000000000000000000000000000000000000000000000 DUP2 MSTORE PUSH1 0x4 ADD PUSH2 0x1266 SWAP1 PUSH2 0x1FE6 JUMP JUMPDEST PUSH1 0x40 MLOAD DUP1 SWAP2 SUB SWAP1 REVERT JUMPDEST JUMP JUMPDEST DUP3 DUP1 SLOAD DUP3 DUP3 SSTORE SWAP1 PUSH1 0x0 MSTORE PUSH1 0x20 PUSH1 0x0 KECCAK256 SWAP1 DUP2 ADD SWAP3 DUP3 ISZERO PUSH2 0x12AD JUMPI SWAP2 PUSH1 0x20 MUL DUP3 ADD JUMPDEST DUP3 DUP2 GT ISZERO PUSH2 0x12AC JUMPI DUP3 MLOAD DUP3 SSTORE SWAP2 PUSH1 0x20 ADD SWAP2 SWAP1 PUSH1 0x1 ADD SWAP1 PUSH2 0x1291 JUMP JUMPDEST JUMPDEST POP SWAP1 POP PUSH2 0x12BA SWAP2 SWAP1 PUSH2 0x12BE JUMP JUMPDEST POP SWAP1 JUMP JUMPDEST JUMPDEST DUP1 DUP3 GT ISZERO PUSH2 0x12D7 JUMPI PUSH1 0x0 DUP2 PUSH1 0x0 SWAP1 SSTORE POP PUSH1 0x1 ADD PUSH2 0x12BF JUMP JUMPDEST POP SWAP1 JUMP JUMPDEST PUSH1 0x0 PUSH1 0x40 MLOAD SWAP1 POP SWAP1 JUMP JUMPDEST PUSH1 0x0 DUP1 REVERT JUMPDEST PUSH1 0x0 DUP1 REVERT JUMPDEST PUSH1 0x0 DUP1 REVERT JUMPDEST PUSH1 0x0 DUP1 REVERT JUMPDEST PUSH1 0x0 PUSH1 0x1F NOT PUSH1 0x1F DUP4 ADD AND SWAP1 POP SWAP2 SWAP1 POP JUMP JUMPDEST PUSH32 0x4E487B7100000000000000000000000000000000000000000000000000000000 PUSH1 0x0 MSTORE PUSH1 0x41 PUSH1 0x4 MSTORE PUSH1 0x24 PUSH1 0x0 REVERT JUMPDEST PUSH2 0x1342 DUP3 PUSH2 0x12F9 JUMP JUMPDEST DUP2 ADD DUP2 DUP2 LT PUSH8 0xFFFFFFFFFFFFFFFF DUP3 GT OR ISZERO PUSH2 0x1361 JUMPI PUSH2 0x1360 PUSH2 0x130A JUMP JUMPDEST JUMPDEST DUP1 PUSH1 0x40 MSTORE POP POP POP JUMP JUMPDEST PUSH1 0x0 PUSH2 0x1374 PUSH2 0x12DB JUMP JUMPDEST SWAP1 POP PUSH2 0x1380 DUP3 DUP3 PUSH2 0x1339 JUMP JUMPDEST SWAP2 SWAP1 POP JUMP JUMPDEST PUSH1 0x0 PUSH8 0xFFFFFFFFFFFFFFFF DUP3 GT ISZERO PUSH2 0x13A0 JUMPI PUSH2 0x139F PUSH2 0x130A JUMP JUMPDEST JUMPDEST PUSH2 0x13A9 DUP3 PUSH2 0x12F9 JUMP JUMPDEST SWAP1 POP PUSH1 0x20 DUP2 ADD SWAP1 POP SWAP2 SWAP1 POP JUMP JUMPDEST DUP3 DUP2 DUP4 CALLDATACOPY PUSH1 0x0 DUP4 DUP4 ADD MSTORE POP POP POP JUMP JUMPDEST PUSH1 0x0 PUSH2 0x13D8 PUSH2 0x13D3 DUP5 PUSH2 0x1385 JUMP JUMPDEST PUSH2 0x136A JUMP JUMPDEST SWAP1 POP DUP3 DUP2 MSTORE PUSH1 0x20 DUP2 ADD DUP5 DUP5 DUP5 ADD GT ISZERO PUSH2 0x13F4 JUMPI PUSH2 0x13F3 PUSH2 0x12F4 JUMP JUMPDEST JUMPDEST PUSH2 0x13FF DUP5 DUP3 DUP6 PUSH2 0x13B6 JUMP JUMPDEST POP SWAP4 SWAP3 POP POP POP JUMP JUMPDEST PUSH1 0x0 DUP3 PUSH1 0x1F DUP4 ADD SLT PUSH2 0x141C JUMPI PUSH2 0x141B PUSH2 0x12EF JUMP JUMPDEST JUMPDEST DUP2 CALLDATALOAD PUSH2 0x142C DUP5 DUP3 PUSH1 0x20 DUP7 ADD PUSH2 0x13C5 JUMP JUMPDEST SWAP2 POP POP SWAP3 SWAP2 POP POP JUMP JUMPDEST PUSH1 0x0 DUP1 PUSH1 0x40 DUP4 DUP6 SUB SLT ISZERO PUSH2 0x144C JUMPI PUSH2 0x144B PUSH2 0x12E5 JUMP JUMPDEST JUMPDEST PUSH1 0x0 DUP4 ADD CALLDATALOAD PUSH8 0xFFFFFFFFFFFFFFFF DUP2 GT ISZERO PUSH2 0x146A JUMPI PUSH2 0x1469 PUSH2 0x12EA JUMP JUMPDEST JUMPDEST PUSH2 0x1476 DUP6 DUP3 DUP7 ADD PUSH2 0x1407 JUMP JUMPDEST SWAP3 POP POP PUSH1 0x20 DUP4 ADD CALLDATALOAD PUSH8 0xFFFFFFFFFFFFFFFF DUP2 GT ISZERO PUSH2 0x1497 JUMPI PUSH2 0x1496 PUSH2 0x12EA JUMP JUMPDEST JUMPDEST PUSH2 0x14A3 DUP6 DUP3 DUP7 ADD PUSH2 0x1407 JUMP JUMPDEST SWAP2 POP POP SWAP3 POP SWAP3 SWAP1 POP JUMP JUMPDEST PUSH1 0x0 DUP2 SWAP1 POP SWAP2 SWAP1 POP JUMP JUMPDEST PUSH2 0x14C0 DUP2 PUSH2 0x14AD JUMP JUMPDEST DUP2 EQ PUSH2 0x14CB JUMPI PUSH1 0x0 DUP1 REVERT JUMPDEST POP JUMP JUMPDEST PUSH1 0x0 DUP2 CALLDATALOAD SWAP1 POP PUSH2 0x14DD DUP2 PUSH2 0x14B7 JUMP JUMPDEST SWAP3 SWAP2 POP POP JUMP JUMPDEST PUSH1 0x0 PUSH1 0x20 DUP3 DUP5 SUB SLT ISZERO PUSH2 0x14F9 JUMPI PUSH2 0x14F8 PUSH2 0x12E5 JUMP JUMPDEST JUMPDEST PUSH1 0x0 PUSH2 0x1507 DUP5 DUP3 DUP6 ADD PUSH2 0x14CE JUMP JUMPDEST SWAP2 POP POP SWAP3 SWAP2 POP POP JUMP JUMPDEST PUSH1 0x0 DUP1 PUSH1 0x40 DUP4 DUP6 SUB SLT ISZERO PUSH2 0x1527 JUMPI PUSH2 0x1526 PUSH2 0x12E5 JUMP JUMPDEST JUMPDEST PUSH1 0x0 PUSH2 0x1535 DUP6 DUP3 DUP7 ADD PUSH2 0x14CE JUMP JUMPDEST SWAP3 POP POP PUSH1 0x20 PUSH2 0x1546 DUP6 DUP3 DUP7 ADD PUSH2 0x14CE JUMP JUMPDEST SWAP2 POP POP SWAP3 POP SWAP3 SWAP1 POP JUMP JUMPDEST PUSH1 0x0 DUP2 MLOAD SWAP1 POP SWAP2 SWAP1 POP JUMP JUMPDEST PUSH1 0x0 DUP3 DUP3 MSTORE PUSH1 0x20 DUP3 ADD SWAP1 POP SWAP3 SWAP2 POP POP JUMP JUMPDEST PUSH1 0x0 JUMPDEST DUP4 DUP2 LT ISZERO PUSH2 0x158A JUMPI DUP1 DUP3 ADD MLOAD DUP2 DUP5 ADD MSTORE PUSH1 0x20 DUP2 ADD SWAP1 POP PUSH2 0x156F JUMP JUMPDEST PUSH1 0x0 DUP5 DUP5 ADD MSTORE POP POP POP POP JUMP JUMPDEST PUSH1 0x0 PUSH2 0x15A1 DUP3 PUSH2 0x1550 JUMP JUMPDEST PUSH2 0x15AB DUP2 DUP6 PUSH2 0x155B JUMP JUMPDEST SWAP4 POP PUSH2 0x15BB DUP2 DUP6 PUSH1 0x20 DUP7 ADD PUSH2 0x156C JUMP JUMPDEST PUSH2 0x15C4 DUP2 PUSH2 0x12F9 JUMP JUMPDEST DUP5 ADD SWAP2 POP POP SWAP3 SWAP2 POP POP JUMP JUMPDEST PUSH1 0x0 PUSH20 0xFFFFFFFFFFFFFFFFFFFFFFFFFFFFFFFFFFFFFFFF DUP3 AND SWAP1 POP SWAP2 SWAP1 POP JUMP JUMPDEST PUSH1 0x0 PUSH2 0x15FA DUP3 PUSH2 0x15CF JUMP JUMPDEST SWAP1 POP SWAP2 SWAP1 POP JUMP JUMPDEST PUSH2 0x160A DUP2 PUSH2 0x15EF JUMP JUMPDEST DUP3 MSTORE POP POP JUMP JUMPDEST PUSH1 0x0 DUP2 ISZERO ISZERO SWAP1 POP SWAP2 SWAP1 POP JUMP JUMPDEST PUSH2 0x1625 DUP2 PUSH2 0x1610 JUMP JUMPDEST DUP3 MSTORE POP POP JUMP JUMPDEST PUSH1 0x0 DUP2 MLOAD SWAP1 POP SWAP2 SWAP1 POP JUMP JUMPDEST PUSH1 0x0 DUP3 DUP3 MSTORE PUSH1 0x20 DUP3 ADD SWAP1 POP SWAP3 SWAP2 POP POP JUMP JUMPDEST PUSH1 0x0 DUP2 SWAP1 POP PUSH1 0x20 DUP3 ADD SWAP1 POP SWAP2 SWAP1 POP JUMP JUMPDEST PUSH2 0x1660 DUP2 PUSH2 0x14AD JUMP JUMPDEST DUP3 MSTORE POP POP JUMP JUMPDEST PUSH1 0x0 PUSH2 0x1672 DUP4 DUP4 PUSH2 0x1657 JUMP JUMPDEST PUSH1 0x20 DUP4 ADD SWAP1 POP SWAP3 SWAP2 POP POP JUMP JUMPDEST PUSH1 0x0 PUSH1 0x20 DUP3 ADD SWAP1 POP SWAP2 SWAP1 POP JUMP JUMPDEST PUSH1 0x0 PUSH2 0x1696 DUP3 PUSH2 0x162B JUMP JUMPDEST PUSH2 0x16A0 DUP2 DUP6 PUSH2 0x1636 JUMP JUMPDEST SWAP4 POP PUSH2 0x16AB DUP4 PUSH2 0x1647 JUMP JUMPDEST DUP1 PUSH1 0x0 JUMPDEST DUP4 DUP2 LT ISZERO PUSH2 0x16DC JUMPI DUP2 MLOAD PUSH2 0x16C3 DUP9 DUP3 PUSH2 0x1666 JUMP JUMPDEST SWAP8 POP PUSH2 0x16CE DUP4 PUSH2 0x167E JUMP JUMPDEST SWAP3 POP POP PUSH1 0x1 DUP2 ADD SWAP1 POP PUSH2 0x16AF JUMP JUMPDEST POP DUP6 SWAP4 POP POP POP POP SWAP3 SWAP2 POP POP JUMP JUMPDEST PUSH1 0x0 PUSH1 0xA0 DUP3 ADD SWAP1 POP DUP2 DUP2 SUB PUSH1 0x0 DUP4 ADD MSTORE PUSH2 0x1703 DUP2 DUP9 PUSH2 0x1596 JUMP JUMPDEST SWAP1 POP DUP2 DUP2 SUB PUSH1 0x20 DUP4 ADD MSTORE PUSH2 0x1717 DUP2 DUP8 PUSH2 0x1596 JUMP JUMPDEST SWAP1 POP PUSH2 0x1726 PUSH1 0x40 DUP4 ADD DUP7 PUSH2 0x1601 JUMP JUMPDEST PUSH2 0x1733 PUSH1 0x60 DUP4 ADD DUP6 PUSH2 0x161C JUMP JUMPDEST DUP2 DUP2 SUB PUSH1 0x80 DUP4 ADD MSTORE PUSH2 0x1745 DUP2 DUP5 PUSH2 0x168B JUMP JUMPDEST SWAP1 POP SWAP7 SWAP6 POP POP POP POP POP POP JUMP JUMPDEST PUSH1 0x0 PUSH1 0x20 DUP3 ADD SWAP1 POP PUSH2 0x1766 PUSH1 0x0 DUP4 ADD DUP5 PUSH2 0x161C JUMP JUMPDEST SWAP3 SWAP2 POP POP JUMP JUMPDEST PUSH1 0x0 PUSH1 0x20 DUP3 DUP5 SUB SLT ISZERO PUSH2 0x1782 JUMPI PUSH2 0x1781 PUSH2 0x12E5 JUMP JUMPDEST JUMPDEST PUSH1 0x0 DUP3 ADD CALLDATALOAD PUSH8 0xFFFFFFFFFFFFFFFF DUP2 GT ISZERO PUSH2 0x17A0 JUMPI PUSH2 0x179F PUSH2 0x12EA JUMP JUMPDEST JUMPDEST PUSH2 0x17AC DUP5 DUP3 DUP6 ADD PUSH2 0x1407 JUMP JUMPDEST SWAP2 POP POP SWAP3 SWAP2 POP POP JUMP JUMPDEST PUSH2 0x17BE DUP2 PUSH2 0x14AD JUMP JUMPDEST DUP3 MSTORE POP POP JUMP JUMPDEST PUSH1 0x0 PUSH1 0x20 DUP3 ADD SWAP1 POP PUSH2 0x17D9 PUSH1 0x0 DUP4 ADD DUP5 PUSH2 0x17B5 JUMP JUMPDEST SWAP3 SWAP2 POP POP JUMP JUMPDEST PUSH1 0x0 PUSH1 0x20 DUP3 ADD SWAP1 POP DUP2 DUP2 SUB PUSH1 0x0 DUP4 ADD MSTORE PUSH2 0x17F9 DUP2 DUP5 PUSH2 0x168B JUMP JUMPDEST SWAP1 POP SWAP3 SWAP2 POP POP JUMP JUMPDEST PUSH1 0x0 PUSH1 0x20 DUP3 ADD SWAP1 POP PUSH2 0x1816 PUSH1 0x0 DUP4 ADD DUP5 PUSH2 0x1601 JUMP JUMPDEST SWAP3 SWAP2 POP POP JUMP JUMPDEST PUSH1 0x0 PUSH1 0x80 DUP3 ADD SWAP1 POP DUP2 DUP2 SUB PUSH1 0x0 DUP4 ADD MSTORE PUSH2 0x1836 DUP2 DUP8 PUSH2 0x1596 JUMP JUMPDEST SWAP1 POP DUP2 DUP2 SUB PUSH1 0x20 DUP4 ADD MSTORE PUSH2 0x184A DUP2 DUP7 PUSH2 0x1596 JUMP JUMPDEST SWAP1 POP PUSH2 0x1859 PUSH1 0x40 DUP4 ADD DUP6 PUSH2 0x1601 JUMP JUMPDEST PUSH2 0x1866 PUSH1 0x60 DUP4 ADD DUP5 PUSH2 0x161C JUMP JUMPDEST SWAP6 SWAP5 POP POP POP POP POP JUMP JUMPDEST PUSH1 0x0 DUP1 PUSH1 0x0 PUSH1 0x60 DUP5 DUP7 SUB SLT ISZERO PUSH2 0x1888 JUMPI PUSH2 0x1887 PUSH2 0x12E5 JUMP JUMPDEST JUMPDEST PUSH1 0x0 PUSH2 0x1896 DUP7 DUP3 DUP8 ADD PUSH2 0x14CE JUMP JUMPDEST SWAP4 POP POP PUSH1 0x20 DUP5 ADD CALLDATALOAD PUSH8 0xFFFFFFFFFFFFFFFF DUP2 GT ISZERO PUSH2 0x18B7 JUMPI PUSH2 0x18B6 PUSH2 0x12EA JUMP JUMPDEST JUMPDEST PUSH2 0x18C3 DUP7 DUP3 DUP8 ADD PUSH2 0x1407 JUMP JUMPDEST SWAP3 POP POP PUSH1 0x40 DUP5 ADD CALLDATALOAD PUSH8 0xFFFFFFFFFFFFFFFF DUP2 GT ISZERO PUSH2 0x18E4 JUMPI PUSH2 0x18E3 PUSH2 0x12EA JUMP JUMPDEST JUMPDEST PUSH2 0x18F0 DUP7 DUP3 DUP8 ADD PUSH2 0x1407 JUMP JUMPDEST SWAP2 POP POP SWAP3 POP SWAP3 POP SWAP3 JUMP JUMPDEST PUSH2 0x1903 DUP2 PUSH2 0x15EF JUMP JUMPDEST DUP2 EQ PUSH2 0x190E JUMPI PUSH1 0x0 DUP1 REVERT JUMPDEST POP JUMP JUMPDEST PUSH1 0x0 DUP2 CALLDATALOAD SWAP1 POP PUSH2 0x1920 DUP2 PUSH2 0x18FA JUMP JUMPDEST SWAP3 SWAP2 POP POP JUMP JUMPDEST PUSH1 0x0 PUSH1 0x20 DUP3 DUP5 SUB SLT ISZERO PUSH2 0x193C JUMPI PUSH2 0x193B PUSH2 0x12E5 JUMP JUMPDEST JUMPDEST PUSH1 0x0 PUSH2 0x194A DUP5 DUP3 DUP6 ADD PUSH2 0x1911 JUMP JUMPDEST SWAP2 POP POP SWAP3 SWAP2 POP POP JUMP JUMPDEST PUSH32 0x4E487B7100000000000000000000000000000000000000000000000000000000 PUSH1 0x0 MSTORE PUSH1 0x22 PUSH1 0x4 MSTORE PUSH1 0x24 PUSH1 0x0 REVERT JUMPDEST PUSH1 0x0 PUSH1 0x2 DUP3 DIV SWAP1 POP PUSH1 0x1 DUP3 AND DUP1 PUSH2 0x199A JUMPI PUSH1 0x7F DUP3 AND SWAP2 POP JUMPDEST PUSH1 0x20 DUP3 LT DUP2 SUB PUSH2 0x19AD JUMPI PUSH2 0x19AC PUSH2 0x1953 JUMP JUMPDEST JUMPDEST POP SWAP2 SWAP1 POP JUMP JUMPDEST PUSH1 0x0 DUP2 SWAP1 POP DUP2 PUSH1 0x0 MSTORE PUSH1 0x20 PUSH1 0x0 KECCAK256 SWAP1 POP SWAP2 SWAP1 POP JUMP JUMPDEST PUSH1 0x0 PUSH1 0x20 PUSH1 0x1F DUP4 ADD DIV SWAP1 POP SWAP2 SWAP1 POP JUMP JUMPDEST PUSH1 0x0 DUP3 DUP3 SHL SWAP1 POP SWAP3 SWAP2 POP POP JUMP JUMPDEST PUSH1 0x0 PUSH1 0x8 DUP4 MUL PUSH2 0x1A15 PUSH32 0xFFFFFFFFFFFFFFFFFFFFFFFFFFFFFFFFFFFFFFFFFFFFFFFFFFFFFFFFFFFFFFFF DUP3 PUSH2 0x19D8 JUMP JUMPDEST PUSH2 0x1A1F DUP7 DUP4 PUSH2 0x19D8 JUMP JUMPDEST SWAP6 POP DUP1 NOT DUP5 AND SWAP4 POP DUP1 DUP7 AND DUP5 OR SWAP3 POP POP POP SWAP4 SWAP3 POP POP POP JUMP JUMPDEST PUSH1 0x0 DUP2 SWAP1 POP SWAP2 SWAP1 POP JUMP JUMPDEST PUSH1 0x0 PUSH2 0x1A5C PUSH2 0x1A57 PUSH2 0x1A52 DUP5 PUSH2 0x14AD JUMP JUMPDEST PUSH2 0x1A37 JUMP JUMPDEST PUSH2 0x14AD JUMP JUMPDEST SWAP1 POP SWAP2 SWAP1 POP JUMP JUMPDEST PUSH1 0x0 DUP2 SWAP1 POP SWAP2 SWAP1 POP JUMP JUMPDEST PUSH2 0x1A76 DUP4 PUSH2 0x1A41 JUMP JUMPDEST PUSH2 0x1A8A PUSH2 0x1A82 DUP3 PUSH2 0x1A63 JUMP JUMPDEST DUP5 DUP5 SLOAD PUSH2 0x19E5 JUMP JUMPDEST DUP3 SSTORE POP POP POP POP JUMP JUMPDEST PUSH1 0x0 SWAP1 JUMP JUMPDEST PUSH2 0x1A9F PUSH2 0x1A92 JUMP JUMPDEST PUSH2 0x1AAA DUP2 DUP5 DUP5 PUSH2 0x1A6D JUMP JUMPDEST POP POP POP JUMP JUMPDEST JUMPDEST DUP2 DUP2 LT ISZERO PUSH2 0x1ACE JUMPI PUSH2 0x1AC3 PUSH1 0x0 DUP3 PUSH2 0x1A97 JUMP JUMPDEST PUSH1 0x1 DUP2 ADD SWAP1 POP PUSH2 0x1AB0 JUMP JUMPDEST POP POP JUMP JUMPDEST PUSH1 0x1F DUP3 GT ISZERO PUSH2 0x1B13 JUMPI PUSH2 0x1AE4 DUP2 PUSH2 0x19B3 JUMP JUMPDEST PUSH2 0x1AED DUP5 PUSH2 0x19C8 JUMP JUMPDEST DUP2 ADD PUSH1 0x20 DUP6 LT ISZERO PUSH2 0x1AFC JUMPI DUP2 SWAP1 POP JUMPDEST PUSH2 0x1B10 PUSH2 0x1B08 DUP6 PUSH2 0x19C8 JUMP JUMPDEST DUP4 ADD DUP3 PUSH2 0x1AAF JUMP JUMPDEST POP POP JUMPDEST POP POP POP JUMP JUMPDEST PUSH1 0x0 DUP3 DUP3 SHR SWAP1 POP SWAP3 SWAP2 POP POP JUMP JUMPDEST PUSH1 0x0 PUSH2 0x1B36 PUSH1 0x0 NOT DUP5 PUSH1 0x8 MUL PUSH2 0x1B18 JUMP JUMPDEST NOT DUP1 DUP4 AND SWAP2 POP POP SWAP3 SWAP2 POP POP JUMP JUMPDEST PUSH1 0x0 PUSH2 0x1B4F DUP4 DUP4 PUSH2 0x1B25 JUMP JUMPDEST SWAP2 POP DUP3 PUSH1 0x2 MUL DUP3 OR SWAP1 POP SWAP3 SWAP2 POP POP JUMP JUMPDEST PUSH2 0x1B68 DUP3 PUSH2 0x1550 JUMP JUMPDEST PUSH8 0xFFFFFFFFFFFFFFFF DUP2 GT ISZERO PUSH2 0x1B81 JUMPI PUSH2 0x1B80 PUSH2 0x130A JUMP JUMPDEST JUMPDEST PUSH2 0x1B8B DUP3 SLOAD PUSH2 0x1982 JUMP JUMPDEST PUSH2 0x1B96 DUP3 DUP3 DUP6 PUSH2 0x1AD2 JUMP JUMPDEST PUSH1 0x0 PUSH1 0x20 SWAP1 POP PUSH1 0x1F DUP4 GT PUSH1 0x1 DUP2 EQ PUSH2 0x1BC9 JUMPI PUSH1 0x0 DUP5 ISZERO PUSH2 0x1BB7 JUMPI DUP3 DUP8 ADD MLOAD SWAP1 POP JUMPDEST PUSH2 0x1BC1 DUP6 DUP3 PUSH2 0x1B43 JUMP JUMPDEST DUP7 SSTORE POP PUSH2 0x1C29 JUMP JUMPDEST PUSH1 0x1F NOT DUP5 AND PUSH2 0x1BD7 DUP7 PUSH2 0x19B3 JUMP JUMPDEST PUSH1 0x0 JUMPDEST DUP3 DUP2 LT ISZERO PUSH2 0x1BFF JUMPI DUP5 DUP10 ADD MLOAD DUP3 SSTORE PUSH1 0x1 DUP3 ADD SWAP2 POP PUSH1 0x20 DUP6 ADD SWAP5 POP PUSH1 0x20 DUP2 ADD SWAP1 POP PUSH2 0x1BDA JUMP JUMPDEST DUP7 DUP4 LT ISZERO PUSH2 0x1C1C JUMPI DUP5 DUP10 ADD MLOAD PUSH2 0x1C18 PUSH1 0x1F DUP10 AND DUP3 PUSH2 0x1B25 JUMP JUMPDEST DUP4 SSTORE POP JUMPDEST PUSH1 0x1 PUSH1 0x2 DUP9 MUL ADD DUP9 SSTORE POP POP POP JUMPDEST POP POP POP POP POP POP JUMP JUMPDEST PUSH1 0x0 DUP2 SWAP1 POP SWAP3 SWAP2 POP POP JUMP JUMPDEST PUSH1 0x0 PUSH2 0x1C47 DUP3 PUSH2 0x1550 JUMP JUMPDEST PUSH2 0x1C51 DUP2 DUP6 PUSH2 0x1C31 JUMP JUMPDEST SWAP4 POP PUSH2 0x1C61 DUP2 DUP6 PUSH1 0x20 DUP7 ADD PUSH2 0x156C JUMP JUMPDEST DUP1 DUP5 ADD SWAP2 POP POP SWAP3 SWAP2 POP POP JUMP JUMPDEST PUSH1 0x0 PUSH2 0x1C79 DUP3 DUP5 PUSH2 0x1C3C JUMP JUMPDEST SWAP2 POP DUP2 SWAP1 POP SWAP3 SWAP2 POP POP JUMP JUMPDEST PUSH1 0x0 PUSH1 0x40 DUP3 ADD SWAP1 POP DUP2 DUP2 SUB PUSH1 0x0 DUP4 ADD MSTORE PUSH2 0x1C9E DUP2 DUP6 PUSH2 0x1596 JUMP JUMPDEST SWAP1 POP DUP2 DUP2 SUB PUSH1 0x20 DUP4 ADD MSTORE PUSH2 0x1CB2 DUP2 DUP5 PUSH2 0x1596 JUMP JUMPDEST SWAP1 POP SWAP4 SWAP3 POP POP POP JUMP JUMPDEST PUSH32 0x4E487B7100000000000000000000000000000000000000000000000000000000 PUSH1 0x0 MSTORE PUSH1 0x11 PUSH1 0x4 MSTORE PUSH1 0x24 PUSH1 0x0 REVERT JUMPDEST PUSH1 0x0 PUSH2 0x1CF5 DUP3 PUSH2 0x14AD JUMP JUMPDEST SWAP2 POP PUSH32 0xFFFFFFFFFFFFFFFFFFFFFFFFFFFFFFFFFFFFFFFFFFFFFFFFFFFFFFFFFFFFFFFF DUP3 SUB PUSH2 0x1D27 JUMPI PUSH2 0x1D26 PUSH2 0x1CBB JUMP JUMPDEST JUMPDEST PUSH1 0x1 DUP3 ADD SWAP1 POP SWAP2 SWAP1 POP JUMP JUMPDEST PUSH32 0x4E6F7420746865206F776E657200000000000000000000000000000000000000 PUSH1 0x0 DUP3 ADD MSTORE POP JUMP JUMPDEST PUSH1 0x0 PUSH2 0x1D68 PUSH1 0xD DUP4 PUSH2 0x155B JUMP JUMPDEST SWAP2 POP PUSH2 0x1D73 DUP3 PUSH2 0x1D32 JUMP JUMPDEST PUSH1 0x20 DUP3 ADD SWAP1 POP SWAP2 SWAP1 POP JUMP JUMPDEST PUSH1 0x0 PUSH1 0x20 DUP3 ADD SWAP1 POP DUP2 DUP2 SUB PUSH1 0x0 DUP4 ADD MSTORE PUSH2 0x1D97 DUP2 PUSH2 0x1D5B JUMP JUMPDEST SWAP1 POP SWAP2 SWAP1 POP JUMP JUMPDEST PUSH32 0x4E487B7100000000000000000000000000000000000000000000000000000000 PUSH1 0x0 MSTORE PUSH1 0x32 PUSH1 0x4 MSTORE PUSH1 0x24 PUSH1 0x0 REVERT JUMPDEST PUSH1 0x0 PUSH2 0x1DD8 DUP3 PUSH2 0x14AD JUMP JUMPDEST SWAP2 POP PUSH2 0x1DE3 DUP4 PUSH2 0x14AD JUMP JUMPDEST SWAP3 POP DUP3 DUP3 SUB SWAP1 POP DUP2 DUP2 GT ISZERO PUSH2 0x1DFB JUMPI PUSH2 0x1DFA PUSH2 0x1CBB JUMP JUMPDEST JUMPDEST SWAP3 SWAP2 POP POP JUMP JUMPDEST PUSH32 0x4E487B7100000000000000000000000000000000000000000000000000000000 PUSH1 0x0 MSTORE PUSH1 0x31 PUSH1 0x4 MSTORE PUSH1 0x24 PUSH1 0x0 REVERT JUMPDEST PUSH32 0x4F776E61626C653A206E6577206F776E657220697320746865207A65726F2061 PUSH1 0x0 DUP3 ADD MSTORE PUSH32 0x6464726573730000000000000000000000000000000000000000000000000000 PUSH1 0x20 DUP3 ADD MSTORE POP JUMP JUMPDEST PUSH1 0x0 PUSH2 0x1E8C PUSH1 0x26 DUP4 PUSH2 0x155B JUMP JUMPDEST SWAP2 POP PUSH2 0x1E97 DUP3 PUSH2 0x1E30 JUMP JUMPDEST PUSH1 0x40 DUP3 ADD SWAP1 POP SWAP2 SWAP1 POP JUMP JUMPDEST PUSH1 0x0 PUSH1 0x20 DUP3 ADD SWAP1 POP DUP2 DUP2 SUB PUSH1 0x0 DUP4 ADD MSTORE PUSH2 0x1EBB DUP2 PUSH2 0x1E7F JUMP JUMPDEST SWAP1 POP SWAP2 SWAP1 POP JUMP JUMPDEST PUSH32 0x5061757361626C653A2070617573656400000000000000000000000000000000 PUSH1 0x0 DUP3 ADD MSTORE POP JUMP JUMPDEST PUSH1 0x0 PUSH2 0x1EF8 PUSH1 0x10 DUP4 PUSH2 0x155B JUMP JUMPDEST SWAP2 POP PUSH2 0x1F03 DUP3 PUSH2 0x1EC2 JUMP JUMPDEST PUSH1 0x20 DUP3 ADD SWAP1 POP SWAP2 SWAP1 POP JUMP JUMPDEST PUSH1 0x0 PUSH1 0x20 DUP3 ADD SWAP1 POP DUP2 DUP2 SUB PUSH1 0x0 DUP4 ADD MSTORE PUSH2 0x1F27 DUP2 PUSH2 0x1EEB JUMP JUMPDEST SWAP1 POP SWAP2 SWAP1 POP JUMP JUMPDEST PUSH32 0x4F776E61626C653A2063616C6C6572206973206E6F7420746865206F776E6572 PUSH1 0x0 DUP3 ADD MSTORE POP JUMP JUMPDEST PUSH1 0x0 PUSH2 0x1F64 PUSH1 0x20 DUP4 PUSH2 0x155B JUMP JUMPDEST SWAP2 POP PUSH2 0x1F6F DUP3 PUSH2 0x1F2E JUMP JUMPDEST PUSH1 0x20 DUP3 ADD SWAP1 POP SWAP2 SWAP1 POP JUMP JUMPDEST PUSH1 0x0 PUSH1 0x20 DUP3 ADD SWAP1 POP DUP2 DUP2 SUB PUSH1 0x0 DUP4 ADD MSTORE PUSH2 0x1F93 DUP2 PUSH2 0x1F57 JUMP JUMPDEST SWAP1 POP SWAP2 SWAP1 POP JUMP JUMPDEST PUSH32 0x5061757361626C653A206E6F7420706175736564000000000000000000000000 PUSH1 0x0 DUP3 ADD MSTORE POP JUMP JUMPDEST PUSH1 0x0 PUSH2 0x1FD0 PUSH1 0x14 DUP4 PUSH2 0x155B JUMP JUMPDEST SWAP2 POP PUSH2 0x1FDB DUP3 PUSH2 0x1F9A JUMP JUMPDEST PUSH1 0x20 DUP3 ADD SWAP1 POP SWAP2 SWAP1 POP JUMP JUMPDEST PUSH1 0x0 PUSH1 0x20 DUP3 ADD SWAP1 POP DUP2 DUP2 SUB PUSH1 0x0 DUP4 ADD MSTORE PUSH2 0x1FFF DUP2 PUSH2 0x1FC3 JUMP JUMPDEST SWAP1 POP SWAP2 SWAP1 POP JUMP INVALID LOG2 PUSH5 0x6970667358 0x22 SLT KECCAK256 LOG0 0xCD SLT EXTCODEHASH 0xC3 0xBE PUSH17 0xBD9E5FA255217295A04502C2BA3C8A7C57 0xD 0x4C PUSH31 0xD818F0F31964736F6C63430008120033A26469706673582212205B8AA97E57 0xCC STATICCALL PUSH10 0x243A2414CA708C063CB8 SWAP14 0xBB 0xC4 0xF8 0x5D GT PUSH24 0x2A5B6897E1A09664736F6C63430008120033000000000000 "
		},
		"gasEstimates": {
			"creation": {
				"codeDepositCost": "3881800",
				"executionCost": "4412",
				"totalCost": "3886212"
			},
			"external": {
				"beforeEach()": "infinite",
				"checkCreateCommunity()": "infinite",
				"checkUpdateCommunity()": "infinite",
				"testAddAndRemovePostIdToCommunity()": "infinite",
				"testEnableAndDisableCommunity()": "infinite",
				"testPauseAndUnpause()": "infinite"
			}
		},
		"methodIdentifiers": {
			"beforeEach()": "6331e7d4",
			"checkCreateCommunity()": "9b5c95c7",
			"checkUpdateCommunity()": "37c2d7ea",
			"testAddAndRemovePostIdToCommunity()": "d9f1924d",
			"testEnableAndDisableCommunity()": "1f530be1",
			"testPauseAndUnpause()": "52c498ff"
		}
	},
	"abi": [
		{
			"inputs": [],
			"name": "beforeEach",
			"outputs": [],
			"stateMutability": "nonpayable",
			"type": "function"
		},
		{
			"inputs": [],
			"name": "checkCreateCommunity",
			"outputs": [],
			"stateMutability": "nonpayable",
			"type": "function"
		},
		{
			"inputs": [],
			"name": "checkUpdateCommunity",
			"outputs": [],
			"stateMutability": "nonpayable",
			"type": "function"
		},
		{
			"inputs": [],
			"name": "testAddAndRemovePostIdToCommunity",
			"outputs": [],
			"stateMutability": "nonpayable",
			"type": "function"
		},
		{
			"inputs": [],
			"name": "testEnableAndDisableCommunity",
			"outputs": [],
			"stateMutability": "nonpayable",
			"type": "function"
		},
		{
			"inputs": [],
			"name": "testPauseAndUnpause",
			"outputs": [],
			"stateMutability": "nonpayable",
			"type": "function"
		}
	]
}